{
  "_format": "hh-sol-artifact-1",
  "contractName": "WileCard",
  "sourceName": "contracts/Card.sol",
  "abi": [
    {
      "inputs": [],
      "stateMutability": "nonpayable",
      "type": "constructor"
    },
    {
      "anonymous": false,
      "inputs": [
        {
          "indexed": true,
          "internalType": "address",
          "name": "owner",
          "type": "address"
        },
        {
          "indexed": true,
          "internalType": "address",
          "name": "approved",
          "type": "address"
        },
        {
          "indexed": true,
          "internalType": "uint256",
          "name": "tokenId",
          "type": "uint256"
        }
      ],
      "name": "Approval",
      "type": "event"
    },
    {
      "anonymous": false,
      "inputs": [
        {
          "indexed": true,
          "internalType": "address",
          "name": "owner",
          "type": "address"
        },
        {
          "indexed": true,
          "internalType": "address",
          "name": "operator",
          "type": "address"
        },
        {
          "indexed": false,
          "internalType": "bool",
          "name": "approved",
          "type": "bool"
        }
      ],
      "name": "ApprovalForAll",
      "type": "event"
    },
    {
      "anonymous": false,
      "inputs": [
        {
          "indexed": true,
          "internalType": "address",
          "name": "from",
          "type": "address"
        },
        {
          "indexed": true,
          "internalType": "address",
          "name": "to",
          "type": "address"
        },
        {
          "indexed": true,
          "internalType": "uint256",
          "name": "tokenId",
          "type": "uint256"
        }
      ],
      "name": "Transfer",
      "type": "event"
    },
    {
      "inputs": [],
      "name": "Owner",
      "outputs": [
        {
          "internalType": "address payable",
          "name": "",
          "type": "address"
        }
      ],
      "stateMutability": "view",
      "type": "function"
    },
    {
      "inputs": [
        {
          "internalType": "uint256",
          "name": "tokenId",
          "type": "uint256"
        },
        {
          "internalType": "uint256",
          "name": "price",
          "type": "uint256"
        }
      ],
      "name": "addItemToMarket",
      "outputs": [],
      "stateMutability": "payable",
      "type": "function"
    },
    {
      "inputs": [
        {
          "internalType": "address",
          "name": "to",
          "type": "address"
        },
        {
          "internalType": "uint256",
          "name": "tokenId",
          "type": "uint256"
        }
      ],
      "name": "approve",
      "outputs": [],
      "stateMutability": "nonpayable",
      "type": "function"
    },
    {
      "inputs": [
        {
          "internalType": "address",
          "name": "owner",
          "type": "address"
        }
      ],
      "name": "balanceOf",
      "outputs": [
        {
          "internalType": "uint256",
          "name": "",
          "type": "uint256"
        }
      ],
      "stateMutability": "view",
      "type": "function"
    },
    {
      "inputs": [
        {
          "internalType": "uint256",
          "name": "_fee",
          "type": "uint256"
        }
      ],
      "name": "changeFee",
      "outputs": [
        {
          "internalType": "uint256",
          "name": "",
          "type": "uint256"
        }
      ],
      "stateMutability": "nonpayable",
      "type": "function"
    },
    {
      "inputs": [],
      "name": "deposit",
      "outputs": [
        {
          "internalType": "uint256",
          "name": "",
          "type": "uint256"
        }
      ],
      "stateMutability": "payable",
      "type": "function"
    },
    {
      "inputs": [],
      "name": "deposits",
      "outputs": [
        {
          "internalType": "uint256",
          "name": "",
          "type": "uint256"
        }
      ],
      "stateMutability": "view",
      "type": "function"
    },
    {
      "inputs": [
        {
          "internalType": "uint256",
          "name": "tokenId",
          "type": "uint256"
        }
      ],
      "name": "getApproved",
      "outputs": [
        {
          "internalType": "address",
          "name": "",
          "type": "address"
        }
      ],
      "stateMutability": "view",
      "type": "function"
    },
    {
      "inputs": [],
      "name": "getBalance",
      "outputs": [
        {
          "internalType": "uint256",
          "name": "",
          "type": "uint256"
        }
      ],
      "stateMutability": "view",
      "type": "function"
    },
    {
      "inputs": [
        {
          "internalType": "uint256",
          "name": "marketItemId",
          "type": "uint256"
        }
      ],
      "name": "getMarketItemById",
      "outputs": [
        {
          "components": [
            {
              "internalType": "uint256",
              "name": "itemId",
              "type": "uint256"
            },
            {
              "internalType": "uint256",
              "name": "tokenId",
              "type": "uint256"
            },
            {
              "internalType": "address payable",
              "name": "seller",
              "type": "address"
            },
            {
              "internalType": "address payable",
              "name": "owner",
              "type": "address"
            },
            {
              "internalType": "uint256",
              "name": "price",
              "type": "uint256"
            }
          ],
          "internalType": "struct WileCard.MarketItem",
          "name": "",
          "type": "tuple"
        }
      ],
      "stateMutability": "view",
      "type": "function"
    },
    {
      "inputs": [],
      "name": "getUnsoldItems",
      "outputs": [
        {
          "components": [
            {
              "internalType": "uint256",
              "name": "itemId",
              "type": "uint256"
            },
            {
              "internalType": "uint256",
              "name": "tokenId",
              "type": "uint256"
            },
            {
              "internalType": "address payable",
              "name": "seller",
              "type": "address"
            },
            {
              "internalType": "address payable",
              "name": "owner",
              "type": "address"
            },
            {
              "internalType": "uint256",
              "name": "price",
              "type": "uint256"
            }
          ],
          "internalType": "struct WileCard.MarketItem[]",
          "name": "",
          "type": "tuple[]"
        }
      ],
      "stateMutability": "view",
      "type": "function"
    },
    {
      "inputs": [],
      "name": "getUserToken",
      "outputs": [
        {
          "internalType": "uint256[]",
          "name": "",
          "type": "uint256[]"
        }
      ],
      "stateMutability": "view",
      "type": "function"
    },
    {
      "inputs": [
        {
          "internalType": "address",
          "name": "sender",
          "type": "address"
        }
      ],
      "name": "getUserTokenWithAddress",
      "outputs": [
        {
          "internalType": "uint256[]",
          "name": "",
          "type": "uint256[]"
        }
      ],
      "stateMutability": "view",
      "type": "function"
    },
    {
      "inputs": [
        {
          "internalType": "address",
          "name": "owner",
          "type": "address"
        },
        {
          "internalType": "address",
          "name": "operator",
          "type": "address"
        }
      ],
      "name": "isApprovedForAll",
      "outputs": [
        {
          "internalType": "bool",
          "name": "",
          "type": "bool"
        }
      ],
      "stateMutability": "view",
      "type": "function"
    },
    {
      "inputs": [
        {
          "internalType": "string[]",
          "name": "tokenURI",
          "type": "string[]"
        }
      ],
      "name": "mintNFT",
      "outputs": [],
      "stateMutability": "nonpayable",
      "type": "function"
    },
    {
      "inputs": [],
      "name": "name",
      "outputs": [
        {
          "internalType": "string",
          "name": "",
          "type": "string"
        }
      ],
      "stateMutability": "view",
      "type": "function"
    },
    {
      "inputs": [
        {
          "internalType": "uint256",
          "name": "tokenId",
          "type": "uint256"
        }
      ],
      "name": "ownerOf",
      "outputs": [
        {
          "internalType": "address",
          "name": "",
          "type": "address"
        }
      ],
      "stateMutability": "view",
      "type": "function"
    },
    {
      "inputs": [
        {
          "internalType": "uint256[]",
          "name": "_myArray",
          "type": "uint256[]"
        }
      ],
      "name": "random",
      "outputs": [
        {
          "internalType": "uint256[]",
          "name": "",
          "type": "uint256[]"
        }
      ],
      "stateMutability": "view",
      "type": "function"
    },
    {
      "inputs": [],
      "name": "randomNFT",
      "outputs": [
        {
          "internalType": "uint256",
          "name": "",
          "type": "uint256"
        }
      ],
      "stateMutability": "nonpayable",
      "type": "function"
    },
    {
      "inputs": [
        {
          "internalType": "address",
          "name": "from",
          "type": "address"
        },
        {
          "internalType": "address",
          "name": "to",
          "type": "address"
        },
        {
          "internalType": "uint256",
          "name": "tokenId",
          "type": "uint256"
        }
      ],
      "name": "safeTransferFrom",
      "outputs": [],
      "stateMutability": "nonpayable",
      "type": "function"
    },
    {
      "inputs": [
        {
          "internalType": "address",
          "name": "from",
          "type": "address"
        },
        {
          "internalType": "address",
          "name": "to",
          "type": "address"
        },
        {
          "internalType": "uint256",
          "name": "tokenId",
          "type": "uint256"
        },
        {
          "internalType": "bytes",
          "name": "_data",
          "type": "bytes"
        }
      ],
      "name": "safeTransferFrom",
      "outputs": [],
      "stateMutability": "nonpayable",
      "type": "function"
    },
    {
      "inputs": [
        {
          "internalType": "uint256",
          "name": "itemId",
          "type": "uint256"
        }
      ],
      "name": "sellItemAndTransferOwnership",
      "outputs": [],
      "stateMutability": "payable",
      "type": "function"
    },
    {
      "inputs": [
        {
          "internalType": "address",
          "name": "operator",
          "type": "address"
        },
        {
          "internalType": "bool",
          "name": "approved",
          "type": "bool"
        }
      ],
      "name": "setApprovalForAll",
      "outputs": [],
      "stateMutability": "nonpayable",
      "type": "function"
    },
    {
      "inputs": [
        {
          "internalType": "bytes4",
          "name": "interfaceId",
          "type": "bytes4"
        }
      ],
      "name": "supportsInterface",
      "outputs": [
        {
          "internalType": "bool",
          "name": "",
          "type": "bool"
        }
      ],
      "stateMutability": "view",
      "type": "function"
    },
    {
      "inputs": [],
      "name": "symbol",
      "outputs": [
        {
          "internalType": "string",
          "name": "",
          "type": "string"
        }
      ],
      "stateMutability": "view",
      "type": "function"
    },
    {
      "inputs": [
        {
          "internalType": "uint256",
          "name": "tokenId",
          "type": "uint256"
        }
      ],
      "name": "tokenURI",
      "outputs": [
        {
          "internalType": "string",
          "name": "",
          "type": "string"
        }
      ],
      "stateMutability": "view",
      "type": "function"
    },
    {
      "inputs": [],
      "name": "totalSupply",
      "outputs": [
        {
          "components": [
            {
              "internalType": "uint256",
              "name": "_value",
              "type": "uint256"
            }
          ],
          "internalType": "struct Counters.Counter",
          "name": "",
          "type": "tuple"
        }
      ],
      "stateMutability": "view",
      "type": "function"
    },
    {
      "inputs": [
        {
          "internalType": "address",
          "name": "from",
          "type": "address"
        },
        {
          "internalType": "address",
          "name": "to",
          "type": "address"
        },
        {
          "internalType": "uint256",
          "name": "tokenId",
          "type": "uint256"
        }
      ],
      "name": "transferFrom",
      "outputs": [],
      "stateMutability": "nonpayable",
      "type": "function"
    },
    {
      "inputs": [
        {
          "internalType": "address",
          "name": "from",
          "type": "address"
        },
        {
          "internalType": "address",
          "name": "to",
          "type": "address"
        },
        {
          "internalType": "uint256",
          "name": "tokenId",
          "type": "uint256"
        }
      ],
      "name": "transferNFT",
      "outputs": [],
      "stateMutability": "nonpayable",
      "type": "function"
    },
    {
      "inputs": [
        {
          "internalType": "address",
          "name": "",
          "type": "address"
        },
        {
          "internalType": "uint256",
          "name": "",
          "type": "uint256"
        }
      ],
      "name": "userOwnedTokens",
      "outputs": [
        {
          "internalType": "uint256",
          "name": "",
          "type": "uint256"
        }
      ],
      "stateMutability": "view",
      "type": "function"
    },
    {
      "inputs": [
        {
          "internalType": "uint256",
          "name": "_amount",
          "type": "uint256"
        }
      ],
      "name": "withdraw",
      "outputs": [],
      "stateMutability": "nonpayable",
      "type": "function"
    }
  ],
  "bytecode": "0x6080604052600060085560006009556008600b553480156200002057600080fd5b506040518060400160405280600881526020017f57696c65436172640000000000000000000000000000000000000000000000008152506040518060400160405280600481526020017f57696c65000000000000000000000000000000000000000000000000000000008152508160009080519060200190620000a592919062000108565b508060019080519060200190620000be92919062000108565b50505033600a60006101000a81548173ffffffffffffffffffffffffffffffffffffffff021916908373ffffffffffffffffffffffffffffffffffffffff1602179055506200021d565b8280546200011690620001b8565b90600052602060002090601f0160209004810192826200013a576000855562000186565b82601f106200015557805160ff191683800117855562000186565b8280016001018555821562000186579182015b828111156200018557825182559160200191906001019062000168565b5b50905062000195919062000199565b5090565b5b80821115620001b45760008160009055506001016200019a565b5090565b60006002820490506001821680620001d157607f821691505b60208210811415620001e857620001e7620001ee565b5b50919050565b7f4e487b7100000000000000000000000000000000000000000000000000000000600052602260045260246000fd5b615415806200022d6000396000f3fe6080604052600436106101d85760003560e01c8063704affad11610102578063b4a99a4e11610095578063e546b9a311610064578063e546b9a3146106ee578063e985e9c514610719578063e9e883f914610756578063ece6b21f14610772576101d8565b8063b4a99a4e1461063f578063b88d4fde1461066a578063c87b56dd14610693578063d0e30db0146106d0576101d8565b80639b8bc127116100d15780639b8bc127146105715780639e4838151461059c578063a09e3367146105d9578063a22cb46514610616576101d8565b8063704affad146104c457806370a08231146104ed57806391066da81461052a57806395d89b4114610546576101d8565b806323b872dd1161017a57806353dbceb11161014957806353dbceb1146103e45780636352211e1461042157806369e9cae11461045e5780636a1db1bf14610487576101d8565b806323b872dd1461033e5780632e1a7d4d14610367578063323a5e0b1461039057806342842e0e146103bb576101d8565b8063095ea7b3116101b6578063095ea7b31461028257806312065fe0146102ab57806314b924e2146102d657806318160ddd14610313576101d8565b806301ffc9a7146101dd57806306fdde031461021a578063081812fc14610245575b600080fd5b3480156101e957600080fd5b5061020460048036038101906101ff9190613c8e565b61079d565b6040516102119190614413565b60405180910390f35b34801561022657600080fd5b5061022f61087f565b60405161023c919061442e565b60405180910390f35b34801561025157600080fd5b5061026c60048036038101906102679190613ce8565b610911565b604051610279919061434d565b60405180910390f35b34801561028e57600080fd5b506102a960048036038101906102a49190613bbc565b610996565b005b3480156102b757600080fd5b506102c0610aae565b6040516102cd9190614706565b60405180910390f35b3480156102e257600080fd5b506102fd60048036038101906102f89190613bbc565b610ab6565b60405161030a9190614706565b60405180910390f35b34801561031f57600080fd5b50610328610ae7565b60405161033591906146d0565b60405180910390f35b34801561034a57600080fd5b5061036560048036038101906103609190613aa6565b610b0b565b005b34801561037357600080fd5b5061038e60048036038101906103899190613ce8565b610b6b565b005b34801561039c57600080fd5b506103a5610c67565b6040516103b29190614706565b60405180910390f35b3480156103c757600080fd5b506103e260048036038101906103dd9190613aa6565b610c6d565b005b3480156103f057600080fd5b5061040b60048036038101906104069190613ce8565b610c8d565b60405161041891906146eb565b60405180910390f35b34801561042d57600080fd5b5061044860048036038101906104439190613ce8565b610d8a565b604051610455919061434d565b60405180910390f35b34801561046a57600080fd5b5061048560048036038101906104809190613aa6565b610e3c565b005b34801561049357600080fd5b506104ae60048036038101906104a99190613ce8565b611135565b6040516104bb9190614706565b60405180910390f35b3480156104d057600080fd5b506104eb60048036038101906104e69190613bfc565b611148565b005b3480156104f957600080fd5b50610514600480360381019061050f9190613a39565b6112ec565b6040516105219190614706565b60405180910390f35b610544600480360381019061053f9190613d15565b6113a4565b005b34801561055257600080fd5b5061055b61180e565b604051610568919061442e565b60405180910390f35b34801561057d57600080fd5b506105866118a0565b60405161059391906143cf565b60405180910390f35b3480156105a857600080fd5b506105c360048036038101906105be9190613a39565b611af9565b6040516105d091906143f1565b60405180910390f35b3480156105e557600080fd5b5061060060048036038101906105fb9190613c45565b611b90565b60405161060d91906143f1565b60405180910390f35b34801561062257600080fd5b5061063d60048036038101906106389190613b7c565b611ce8565b005b34801561064b57600080fd5b50610654611cfe565b6040516106619190614368565b60405180910390f35b34801561067657600080fd5b50610691600480360381019061068c9190613af9565b611d24565b005b34801561069f57600080fd5b506106ba60048036038101906106b59190613ce8565b611d86565b6040516106c7919061442e565b60405180910390f35b6106d8611ed8565b6040516106e59190614706565b60405180910390f35b3480156106fa57600080fd5b50610703611f3c565b60405161071091906143f1565b60405180910390f35b34801561072557600080fd5b50610740600480360381019061073b9190613a66565b611fd1565b60405161074d9190614413565b60405180910390f35b610770600480360381019061076b9190613ce8565b612065565b005b34801561077e57600080fd5b50610787612462565b6040516107949190614706565b60405180910390f35b60007f80ac58cd000000000000000000000000000000000000000000000000000000007bffffffffffffffffffffffffffffffffffffffffffffffffffffffff1916827bffffffffffffffffffffffffffffffffffffffffffffffffffffffff1916148061086857507f5b5e139f000000000000000000000000000000000000000000000000000000007bffffffffffffffffffffffffffffffffffffffffffffffffffffffff1916827bffffffffffffffffffffffffffffffffffffffffffffffffffffffff1916145b8061087857506108778261293e565b5b9050919050565b60606000805461088e90614c03565b80601f01602080910402602001604051908101604052809291908181526020018280546108ba90614c03565b80156109075780601f106108dc57610100808354040283529160200191610907565b820191906000526020600020905b8154815290600101906020018083116108ea57829003601f168201915b5050505050905090565b600061091c826129a8565b61095b576040517f08c379a0000000000000000000000000000000000000000000000000000000008152600401610952906145d0565b60405180910390fd5b6004600083815260200190815260200160002060009054906101000a900473ffffffffffffffffffffffffffffffffffffffff169050919050565b60006109a182610d8a565b90508073ffffffffffffffffffffffffffffffffffffffff168373ffffffffffffffffffffffffffffffffffffffff161415610a12576040517f08c379a0000000000000000000000000000000000000000000000000000000008152600401610a0990614630565b60405180910390fd5b8073ffffffffffffffffffffffffffffffffffffffff16610a31612a14565b73ffffffffffffffffffffffffffffffffffffffff161480610a605750610a5f81610a5a612a14565b611fd1565b5b610a9f576040517f08c379a0000000000000000000000000000000000000000000000000000000008152600401610a96906144f0565b60405180910390fd5b610aa98383612a1c565b505050565b600047905090565b600c6020528160005260406000208181548110610ad257600080fd5b90600052602060002001600091509150505481565b610aef613685565b6007604051806020016040529081600082015481525050905090565b610b1c610b16612a14565b82612ad5565b610b5b576040517f08c379a0000000000000000000000000000000000000000000000000000000008152600401610b5290614670565b60405180910390fd5b610b66838383612bb3565b505050565b600a60009054906101000a900473ffffffffffffffffffffffffffffffffffffffff1673ffffffffffffffffffffffffffffffffffffffff163373ffffffffffffffffffffffffffffffffffffffff1614610bfb576040517f08c379a0000000000000000000000000000000000000000000000000000000008152600401610bf290614650565b60405180910390fd5b600a60009054906101000a900473ffffffffffffffffffffffffffffffffffffffff1673ffffffffffffffffffffffffffffffffffffffff166108fc829081150290604051600060405180830381858888f19350505050158015610c63573d6000803e3d6000fd5b5050565b60085481565b610c8883838360405180602001604052806000815250611d24565b505050565b610c95613698565b6000600d60008481526020019081526020016000206040518060a001604052908160008201548152602001600182015481526020016002820160009054906101000a900473ffffffffffffffffffffffffffffffffffffffff1673ffffffffffffffffffffffffffffffffffffffff1673ffffffffffffffffffffffffffffffffffffffff1681526020016003820160009054906101000a900473ffffffffffffffffffffffffffffffffffffffff1673ffffffffffffffffffffffffffffffffffffffff1673ffffffffffffffffffffffffffffffffffffffff168152602001600482015481525050905080915050919050565b6000806002600084815260200190815260200160002060009054906101000a900473ffffffffffffffffffffffffffffffffffffffff169050600073ffffffffffffffffffffffffffffffffffffffff168173ffffffffffffffffffffffffffffffffffffffff161415610e33576040517f08c379a0000000000000000000000000000000000000000000000000000000008152600401610e2a90614530565b60405180910390fd5b80915050919050565b610e4d610e47612a14565b82612ad5565b610e8c576040517f08c379a0000000000000000000000000000000000000000000000000000000008152600401610e8390614670565b60405180910390fd5b600c60008373ffffffffffffffffffffffffffffffffffffffff1673ffffffffffffffffffffffffffffffffffffffff16815260200190815260200160002081908060018154018082558091505060019003906000526020600020016000909190919091505560005b600c60008573ffffffffffffffffffffffffffffffffffffffff1673ffffffffffffffffffffffffffffffffffffffff168152602001908152602001600020805490508110156111245781600c60008673ffffffffffffffffffffffffffffffffffffffff1673ffffffffffffffffffffffffffffffffffffffff1681526020019081526020016000208281548110610f9157610f90614da6565b5b9060005260206000200154141561111157600c60008573ffffffffffffffffffffffffffffffffffffffff1673ffffffffffffffffffffffffffffffffffffffff1681526020019081526020016000206001600c60008773ffffffffffffffffffffffffffffffffffffffff1673ffffffffffffffffffffffffffffffffffffffff168152602001908152602001600020805490506110309190614b07565b8154811061104157611040614da6565b5b9060005260206000200154600c60008673ffffffffffffffffffffffffffffffffffffffff1673ffffffffffffffffffffffffffffffffffffffff168152602001908152602001600020828154811061109d5761109c614da6565b5b9060005260206000200181905550600c60008573ffffffffffffffffffffffffffffffffffffffff1673ffffffffffffffffffffffffffffffffffffffff1681526020019081526020016000208054806110fa576110f9614d77565b5b600190038181906000526020600020016000905590555b808061111c90614c66565b915050610ef5565b50611130838383612bb3565b505050565b600081600b81905550600b549050919050565b600a60009054906101000a900473ffffffffffffffffffffffffffffffffffffffff1673ffffffffffffffffffffffffffffffffffffffff163373ffffffffffffffffffffffffffffffffffffffff16146111d8576040517f08c379a00000000000000000000000000000000000000000000000000000000081526004016111cf90614650565b60405180910390fd5b60005b81518110156112e8576111ee6007612e0f565b60006111fa6007612e25565b9050611228600a60009054906101000a900473ffffffffffffffffffffffffffffffffffffffff1682612e33565b61124c8184848151811061123f5761123e614da6565b5b6020026020010151612e51565b600c6000600a60009054906101000a900473ffffffffffffffffffffffffffffffffffffffff1673ffffffffffffffffffffffffffffffffffffffff1673ffffffffffffffffffffffffffffffffffffffff1681526020019081526020016000208190806001815401808255809150506001900390600052602060002001600090919091909150555080806112e090614c66565b9150506111db565b5050565b60008073ffffffffffffffffffffffffffffffffffffffff168273ffffffffffffffffffffffffffffffffffffffff16141561135d576040517f08c379a000000000000000000000000000000000000000000000000000000000815260040161135490614510565b60405180910390fd5b600360008373ffffffffffffffffffffffffffffffffffffffff1673ffffffffffffffffffffffffffffffffffffffff168152602001908152602001600020549050919050565b600081116113e7576040517f08c379a00000000000000000000000000000000000000000000000000000000081526004016113de90614690565b60405180910390fd5b6113f86113f2612a14565b83612ad5565b611437576040517f08c379a000000000000000000000000000000000000000000000000000000000815260040161142e90614670565b60405180910390fd5b611441600e612e0f565b600061144d600e612e25565b90506040518060a001604052808281526020018481526020013373ffffffffffffffffffffffffffffffffffffffff168152602001600073ffffffffffffffffffffffffffffffffffffffff16815260200183815250600d6000838152602001908152602001600020600082015181600001556020820151816001015560408201518160020160006101000a81548173ffffffffffffffffffffffffffffffffffffffff021916908373ffffffffffffffffffffffffffffffffffffffff16021790555060608201518160030160006101000a81548173ffffffffffffffffffffffffffffffffffffffff021916908373ffffffffffffffffffffffffffffffffffffffff16021790555060808201518160040155905050600c60003073ffffffffffffffffffffffffffffffffffffffff1673ffffffffffffffffffffffffffffffffffffffff16815260200190815260200160002083908060018154018082558091505060019003906000526020600020016000909190919091505560005b600c60003373ffffffffffffffffffffffffffffffffffffffff1673ffffffffffffffffffffffffffffffffffffffff168152602001908152602001600020805490508110156117fd5783600c60003373ffffffffffffffffffffffffffffffffffffffff1673ffffffffffffffffffffffffffffffffffffffff168152602001908152602001600020828154811061166a57611669614da6565b5b906000526020600020015414156117ea57600c60003373ffffffffffffffffffffffffffffffffffffffff1673ffffffffffffffffffffffffffffffffffffffff1681526020019081526020016000206001600c60003373ffffffffffffffffffffffffffffffffffffffff1673ffffffffffffffffffffffffffffffffffffffff168152602001908152602001600020805490506117099190614b07565b8154811061171a57611719614da6565b5b9060005260206000200154600c60003373ffffffffffffffffffffffffffffffffffffffff1673ffffffffffffffffffffffffffffffffffffffff168152602001908152602001600020828154811061177657611775614da6565b5b9060005260206000200181905550600c60003373ffffffffffffffffffffffffffffffffffffffff1673ffffffffffffffffffffffffffffffffffffffff1681526020019081526020016000208054806117d3576117d2614d77565b5b600190038181906000526020600020016000905590555b80806117f590614c66565b9150506115ce565b50611809333085612bb3565b505050565b60606001805461181d90614c03565b80601f016020809104026020016040519081016040528092919081815260200182805461184990614c03565b80156118965780601f1061186b57610100808354040283529160200191611896565b820191906000526020600020905b81548152906001019060200180831161187957829003601f168201915b5050505050905090565b606060006118ae600e612e25565b905060006118bc600f612e25565b6118c6600e612e25565b6118d09190614b07565b90506000808267ffffffffffffffff8111156118ef576118ee614dd5565b5b60405190808252806020026020018201604052801561192857816020015b611915613698565b81526020019060019003908161190d5790505b50905060005b84811015611aee57600073ffffffffffffffffffffffffffffffffffffffff16600d600060018461195f91906148b5565b815260200190815260200160002060030160009054906101000a900473ffffffffffffffffffffffffffffffffffffffff1673ffffffffffffffffffffffffffffffffffffffff161415611adb5760006001826119bc91906148b5565b90506000600d60008381526020019081526020016000206040518060a001604052908160008201548152602001600182015481526020016002820160009054906101000a900473ffffffffffffffffffffffffffffffffffffffff1673ffffffffffffffffffffffffffffffffffffffff1673ffffffffffffffffffffffffffffffffffffffff1681526020016003820160009054906101000a900473ffffffffffffffffffffffffffffffffffffffff1673ffffffffffffffffffffffffffffffffffffffff1673ffffffffffffffffffffffffffffffffffffffff168152602001600482015481525050905080848681518110611abe57611abd614da6565b5b6020026020010181905250600185611ad691906148b5565b945050505b8080611ae690614c66565b91505061192e565b508094505050505090565b6060600c60008373ffffffffffffffffffffffffffffffffffffffff1673ffffffffffffffffffffffffffffffffffffffff168152602001908152602001600020805480602002602001604051908101604052809291908181526020018280548015611b8457602002820191906000526020600020905b815481526020019060010190808311611b70575b50505050509050919050565b606060008251905060008351905060005b81811015611cd757600060018442888581518110611bc257611bc1614da6565b5b6020026020010151604051602001611bdb929190614321565b6040516020818303038152906040528051906020012060001c611bfe9190614cb9565b611c0891906148b5565b9050600086600183611c1a9190614b07565b81518110611c2b57611c2a614da6565b5b6020026020010151905086600186611c439190614b07565b81518110611c5457611c53614da6565b5b602002602001015187600184611c6a9190614b07565b81518110611c7b57611c7a614da6565b5b6020026020010181815250508087600187611c969190614b07565b81518110611ca757611ca6614da6565b5b602002602001018181525050600185611cc09190614b07565b945050508080611ccf90614c66565b915050611ba1565b506060849050809350505050919050565b611cfa611cf3612a14565b8383612ec5565b5050565b600a60009054906101000a900473ffffffffffffffffffffffffffffffffffffffff1681565b611d35611d2f612a14565b83612ad5565b611d74576040517f08c379a0000000000000000000000000000000000000000000000000000000008152600401611d6b90614670565b60405180910390fd5b611d8084848484613032565b50505050565b6060611d91826129a8565b611dd0576040517f08c379a0000000000000000000000000000000000000000000000000000000008152600401611dc7906145b0565b60405180910390fd5b6000600660008481526020019081526020016000208054611df090614c03565b80601f0160208091040260200160405190810160405280929190818152602001828054611e1c90614c03565b8015611e695780601f10611e3e57610100808354040283529160200191611e69565b820191906000526020600020905b815481529060010190602001808311611e4c57829003601f168201915b505050505090506000611e7a61308e565b9050600081511415611e90578192505050611ed3565b600082511115611ec5578082604051602001611ead9291906142fd565b60405160208183030381529060405292505050611ed3565b611ece846130a5565b925050505b919050565b6000600b54600a611ee9919061498f565b6001611ef59190614aad565b3414611f36576040517f08c379a0000000000000000000000000000000000000000000000000000000008152600401611f2d906146b0565b60405180910390fd5b34905090565b6060600c60003373ffffffffffffffffffffffffffffffffffffffff1673ffffffffffffffffffffffffffffffffffffffff168152602001908152602001600020805480602002602001604051908101604052809291908181526020018280548015611fc757602002820191906000526020600020905b815481526020019060010190808311611fb3575b5050505050905090565b6000600560008473ffffffffffffffffffffffffffffffffffffffff1673ffffffffffffffffffffffffffffffffffffffff16815260200190815260200160002060008373ffffffffffffffffffffffffffffffffffffffff1673ffffffffffffffffffffffffffffffffffffffff16815260200190815260200160002060009054906101000a900460ff16905092915050565b6000600d60008381526020019081526020016000206004015490506000600d60008481526020019081526020016000206001015490508134146120dd576040517f08c379a00000000000000000000000000000000000000000000000000000000081526004016120d490614570565b60405180910390fd5b600d600084815260200190815260200160002060020160009054906101000a900473ffffffffffffffffffffffffffffffffffffffff1673ffffffffffffffffffffffffffffffffffffffff166108fc349081150290604051600060405180830381858888f19350505050158015612159573d6000803e3d6000fd5b5033600d600085815260200190815260200160002060030160006101000a81548173ffffffffffffffffffffffffffffffffffffffff021916908373ffffffffffffffffffffffffffffffffffffffff1602179055506121b9600f612e0f565b600c60003373ffffffffffffffffffffffffffffffffffffffff1673ffffffffffffffffffffffffffffffffffffffff16815260200190815260200160002081908060018154018082558091505060019003906000526020600020016000909190919091505560005b600c60003073ffffffffffffffffffffffffffffffffffffffff1673ffffffffffffffffffffffffffffffffffffffff168152602001908152602001600020805490508110156124515781600c60003073ffffffffffffffffffffffffffffffffffffffff1673ffffffffffffffffffffffffffffffffffffffff16815260200190815260200160002082815481106122be576122bd614da6565b5b9060005260206000200154141561243e57600c60003073ffffffffffffffffffffffffffffffffffffffff1673ffffffffffffffffffffffffffffffffffffffff1681526020019081526020016000206001600c60003073ffffffffffffffffffffffffffffffffffffffff1673ffffffffffffffffffffffffffffffffffffffff1681526020019081526020016000208054905061235d9190614b07565b8154811061236e5761236d614da6565b5b9060005260206000200154600c60003073ffffffffffffffffffffffffffffffffffffffff1673ffffffffffffffffffffffffffffffffffffffff16815260200190815260200160002082815481106123ca576123c9614da6565b5b9060005260206000200181905550600c60003073ffffffffffffffffffffffffffffffffffffffff1673ffffffffffffffffffffffffffffffffffffffff16815260200190815260200160002080548061242757612426614d77565b5b600190038181906000526020600020016000905590555b808061244990614c66565b915050612222565b5061245d303383612bb3565b505050565b60008061251d600c6000600a60009054906101000a900473ffffffffffffffffffffffffffffffffffffffff1673ffffffffffffffffffffffffffffffffffffffff1673ffffffffffffffffffffffffffffffffffffffff16815260200190815260200160002080548060200260200160405190810160405280929190818152602001828054801561251357602002820191906000526020600020905b8154815260200190600101908083116124ff575b5050505050611b90565b6000815181106125305761252f614da6565b5b60200260200101519050612566600a60009054906101000a900473ffffffffffffffffffffffffffffffffffffffff1682612ad5565b6125a5576040517f08c379a000000000000000000000000000000000000000000000000000000000815260040161259c90614670565b60405180910390fd5b600c60003373ffffffffffffffffffffffffffffffffffffffff1673ffffffffffffffffffffffffffffffffffffffff16815260200190815260200160002081908060018154018082558091505060019003906000526020600020016000909190919091505560005b600c6000600a60009054906101000a900473ffffffffffffffffffffffffffffffffffffffff1673ffffffffffffffffffffffffffffffffffffffff1673ffffffffffffffffffffffffffffffffffffffff168152602001908152602001600020805490508110156129095781600c6000600a60009054906101000a900473ffffffffffffffffffffffffffffffffffffffff1673ffffffffffffffffffffffffffffffffffffffff1673ffffffffffffffffffffffffffffffffffffffff16815260200190815260200160002082815481106126ee576126ed614da6565b5b906000526020600020015414156128f657600c6000600a60009054906101000a900473ffffffffffffffffffffffffffffffffffffffff1673ffffffffffffffffffffffffffffffffffffffff1673ffffffffffffffffffffffffffffffffffffffff1681526020019081526020016000206001600c6000600a60009054906101000a900473ffffffffffffffffffffffffffffffffffffffff1673ffffffffffffffffffffffffffffffffffffffff1673ffffffffffffffffffffffffffffffffffffffff168152602001908152602001600020805490506127d19190614b07565b815481106127e2576127e1614da6565b5b9060005260206000200154600c6000600a60009054906101000a900473ffffffffffffffffffffffffffffffffffffffff1673ffffffffffffffffffffffffffffffffffffffff1673ffffffffffffffffffffffffffffffffffffffff16815260200190815260200160002082815481106128605761285f614da6565b5b9060005260206000200181905550600c6000600a60009054906101000a900473ffffffffffffffffffffffffffffffffffffffff1673ffffffffffffffffffffffffffffffffffffffff1673ffffffffffffffffffffffffffffffffffffffff1681526020019081526020016000208054806128df576128de614d77565b5b600190038181906000526020600020016000905590555b808061290190614c66565b91505061260e565b50612937600a60009054906101000a900473ffffffffffffffffffffffffffffffffffffffff163383612bb3565b8091505090565b60007f01ffc9a7000000000000000000000000000000000000000000000000000000007bffffffffffffffffffffffffffffffffffffffffffffffffffffffff1916827bffffffffffffffffffffffffffffffffffffffffffffffffffffffff1916149050919050565b60008073ffffffffffffffffffffffffffffffffffffffff166002600084815260200190815260200160002060009054906101000a900473ffffffffffffffffffffffffffffffffffffffff1673ffffffffffffffffffffffffffffffffffffffff1614159050919050565b600033905090565b816004600083815260200190815260200160002060006101000a81548173ffffffffffffffffffffffffffffffffffffffff021916908373ffffffffffffffffffffffffffffffffffffffff160217905550808273ffffffffffffffffffffffffffffffffffffffff16612a8f83610d8a565b73ffffffffffffffffffffffffffffffffffffffff167f8c5be1e5ebec7d5bd14f71427d1e84f3dd0314c0f7b2291e5b200ac8c7c3b92560405160405180910390a45050565b6000612ae0826129a8565b612b1f576040517f08c379a0000000000000000000000000000000000000000000000000000000008152600401612b16906144d0565b60405180910390fd5b6000612b2a83610d8a565b90508073ffffffffffffffffffffffffffffffffffffffff168473ffffffffffffffffffffffffffffffffffffffff161480612b9957508373ffffffffffffffffffffffffffffffffffffffff16612b8184610911565b73ffffffffffffffffffffffffffffffffffffffff16145b80612baa5750612ba98185611fd1565b5b91505092915050565b8273ffffffffffffffffffffffffffffffffffffffff16612bd382610d8a565b73ffffffffffffffffffffffffffffffffffffffff1614612c29576040517f08c379a0000000000000000000000000000000000000000000000000000000008152600401612c20906145f0565b60405180910390fd5b600073ffffffffffffffffffffffffffffffffffffffff168273ffffffffffffffffffffffffffffffffffffffff161415612c99576040517f08c379a0000000000000000000000000000000000000000000000000000000008152600401612c9090614490565b60405180910390fd5b612ca483838361314c565b612caf600082612a1c565b6001600360008573ffffffffffffffffffffffffffffffffffffffff1673ffffffffffffffffffffffffffffffffffffffff1681526020019081526020016000206000828254612cff9190614b07565b925050819055506001600360008473ffffffffffffffffffffffffffffffffffffffff1673ffffffffffffffffffffffffffffffffffffffff1681526020019081526020016000206000828254612d5691906148b5565b92505081905550816002600083815260200190815260200160002060006101000a81548173ffffffffffffffffffffffffffffffffffffffff021916908373ffffffffffffffffffffffffffffffffffffffff160217905550808273ffffffffffffffffffffffffffffffffffffffff168473ffffffffffffffffffffffffffffffffffffffff167fddf252ad1be2c89b69c2b068fc378daa952ba7f163c4a11628f55a4df523b3ef60405160405180910390a4505050565b6001816000016000828254019250508190555050565b600081600001549050919050565b612e4d828260405180602001604052806000815250613151565b5050565b612e5a826129a8565b612e99576040517f08c379a0000000000000000000000000000000000000000000000000000000008152600401612e9090614550565b60405180910390fd5b80600660008481526020019081526020016000209080519060200190612ec09291906136f3565b505050565b8173ffffffffffffffffffffffffffffffffffffffff168373ffffffffffffffffffffffffffffffffffffffff161415612f34576040517f08c379a0000000000000000000000000000000000000000000000000000000008152600401612f2b906144b0565b60405180910390fd5b80600560008573ffffffffffffffffffffffffffffffffffffffff1673ffffffffffffffffffffffffffffffffffffffff16815260200190815260200160002060008473ffffffffffffffffffffffffffffffffffffffff1673ffffffffffffffffffffffffffffffffffffffff16815260200190815260200160002060006101000a81548160ff0219169083151502179055508173ffffffffffffffffffffffffffffffffffffffff168373ffffffffffffffffffffffffffffffffffffffff167f17307eab39ab6107e8899845ad3d59bd9653f200f220920489ca2b5937696c31836040516130259190614413565b60405180910390a3505050565b61303d848484612bb3565b613049848484846131ac565b613088576040517f08c379a000000000000000000000000000000000000000000000000000000000815260040161307f90614450565b60405180910390fd5b50505050565b606060405180602001604052806000815250905090565b60606130b0826129a8565b6130ef576040517f08c379a00000000000000000000000000000000000000000000000000000000081526004016130e690614610565b60405180910390fd5b60006130f961308e565b905060008151116131195760405180602001604052806000815250613144565b8061312384613343565b6040516020016131349291906142fd565b6040516020818303038152906040525b915050919050565b505050565b61315b83836134a4565b61316860008484846131ac565b6131a7576040517f08c379a000000000000000000000000000000000000000000000000000000000815260040161319e90614450565b60405180910390fd5b505050565b60006131cd8473ffffffffffffffffffffffffffffffffffffffff16613672565b15613336578373ffffffffffffffffffffffffffffffffffffffff1663150b7a026131f6612a14565b8786866040518563ffffffff1660e01b81526004016132189493929190614383565b602060405180830381600087803b15801561323257600080fd5b505af192505050801561326357506040513d601f19601f820116820180604052508101906132609190613cbb565b60015b6132e6573d8060008114613293576040519150601f19603f3d011682016040523d82523d6000602084013e613298565b606091505b506000815114156132de576040517f08c379a00000000000000000000000000000000000000000000000000000000081526004016132d590614450565b60405180910390fd5b805181602001fd5b63150b7a0260e01b7bffffffffffffffffffffffffffffffffffffffffffffffffffffffff1916817bffffffffffffffffffffffffffffffffffffffffffffffffffffffff19161491505061333b565b600190505b949350505050565b6060600082141561338b576040518060400160405280600181526020017f3000000000000000000000000000000000000000000000000000000000000000815250905061349f565b600082905060005b600082146133bd5780806133a690614c66565b915050600a826133b6919061490b565b9150613393565b60008167ffffffffffffffff8111156133d9576133d8614dd5565b5b6040519080825280601f01601f19166020018201604052801561340b5781602001600182028036833780820191505090505b5090505b60008514613498576001826134249190614b07565b9150600a856134339190614cb9565b603061343f91906148b5565b60f81b81838151811061345557613454614da6565b5b60200101907effffffffffffffffffffffffffffffffffffffffffffffffffffffffffffff1916908160001a905350600a85613491919061490b565b945061340f565b8093505050505b919050565b600073ffffffffffffffffffffffffffffffffffffffff168273ffffffffffffffffffffffffffffffffffffffff161415613514576040517f08c379a000000000000000000000000000000000000000000000000000000000815260040161350b90614590565b60405180910390fd5b61351d816129a8565b1561355d576040517f08c379a000000000000000000000000000000000000000000000000000000000815260040161355490614470565b60405180910390fd5b6135696000838361314c565b6001600360008473ffffffffffffffffffffffffffffffffffffffff1673ffffffffffffffffffffffffffffffffffffffff16815260200190815260200160002060008282546135b991906148b5565b92505081905550816002600083815260200190815260200160002060006101000a81548173ffffffffffffffffffffffffffffffffffffffff021916908373ffffffffffffffffffffffffffffffffffffffff160217905550808273ffffffffffffffffffffffffffffffffffffffff16600073ffffffffffffffffffffffffffffffffffffffff167fddf252ad1be2c89b69c2b068fc378daa952ba7f163c4a11628f55a4df523b3ef60405160405180910390a45050565b600080823b905060008111915050919050565b6040518060200160405280600081525090565b6040518060a001604052806000815260200160008152602001600073ffffffffffffffffffffffffffffffffffffffff168152602001600073ffffffffffffffffffffffffffffffffffffffff168152602001600081525090565b8280546136ff90614c03565b90600052602060002090601f0160209004810192826137215760008555613768565b82601f1061373a57805160ff1916838001178555613768565b82800160010185558215613768579182015b8281111561376757825182559160200191906001019061374c565b5b5090506137759190613779565b5090565b5b8082111561379257600081600090555060010161377a565b5090565b60006137a96137a484614746565b614721565b905080838252602082019050828560208602820111156137cc576137cb614e09565b5b60005b8581101561381a57813567ffffffffffffffff8111156137f2576137f1614e04565b5b8086016137ff89826139f6565b855260208501945060208401935050506001810190506137cf565b5050509392505050565b600061383761383284614772565b614721565b9050808382526020820190508285602086028201111561385a57613859614e09565b5b60005b8581101561388a57816138708882613a24565b84526020840193506020830192505060018101905061385d565b5050509392505050565b60006138a76138a28461479e565b614721565b9050828152602081018484840111156138c3576138c2614e0e565b5b6138ce848285614bc1565b509392505050565b60006138e96138e4846147cf565b614721565b90508281526020810184848401111561390557613904614e0e565b5b613910848285614bc1565b509392505050565b60008135905061392781615383565b92915050565b600082601f83011261394257613941614e04565b5b8135613952848260208601613796565b91505092915050565b600082601f8301126139705761396f614e04565b5b8135613980848260208601613824565b91505092915050565b6000813590506139988161539a565b92915050565b6000813590506139ad816153b1565b92915050565b6000815190506139c2816153b1565b92915050565b600082601f8301126139dd576139dc614e04565b5b81356139ed848260208601613894565b91505092915050565b600082601f830112613a0b57613a0a614e04565b5b8135613a1b8482602086016138d6565b91505092915050565b600081359050613a33816153c8565b92915050565b600060208284031215613a4f57613a4e614e18565b5b6000613a5d84828501613918565b91505092915050565b60008060408385031215613a7d57613a7c614e18565b5b6000613a8b85828601613918565b9250506020613a9c85828601613918565b9150509250929050565b600080600060608486031215613abf57613abe614e18565b5b6000613acd86828701613918565b9350506020613ade86828701613918565b9250506040613aef86828701613a24565b9150509250925092565b60008060008060808587031215613b1357613b12614e18565b5b6000613b2187828801613918565b9450506020613b3287828801613918565b9350506040613b4387828801613a24565b925050606085013567ffffffffffffffff811115613b6457613b63614e13565b5b613b70878288016139c8565b91505092959194509250565b60008060408385031215613b9357613b92614e18565b5b6000613ba185828601613918565b9250506020613bb285828601613989565b9150509250929050565b60008060408385031215613bd357613bd2614e18565b5b6000613be185828601613918565b9250506020613bf285828601613a24565b9150509250929050565b600060208284031215613c1257613c11614e18565b5b600082013567ffffffffffffffff811115613c3057613c2f614e13565b5b613c3c8482850161392d565b91505092915050565b600060208284031215613c5b57613c5a614e18565b5b600082013567ffffffffffffffff811115613c7957613c78614e13565b5b613c858482850161395b565b91505092915050565b600060208284031215613ca457613ca3614e18565b5b6000613cb28482850161399e565b91505092915050565b600060208284031215613cd157613cd0614e18565b5b6000613cdf848285016139b3565b91505092915050565b600060208284031215613cfe57613cfd614e18565b5b6000613d0c84828501613a24565b91505092915050565b60008060408385031215613d2c57613d2b614e18565b5b6000613d3a85828601613a24565b9250506020613d4b85828601613a24565b9150509250929050565b6000613d6183836141f8565b60a08301905092915050565b6000613d7983836142c8565b60208301905092915050565b613d8e81614b4d565b82525050565b613d9d81614b4d565b82525050565b613dac81614b3b565b82525050565b6000613dbd82614820565b613dc78185614866565b9350613dd283614800565b8060005b83811015613e03578151613dea8882613d55565b9750613df58361484c565b925050600181019050613dd6565b5085935050505092915050565b6000613e1b8261482b565b613e258185614877565b9350613e3083614810565b8060005b83811015613e61578151613e488882613d6d565b9750613e5383614859565b925050600181019050613e34565b5085935050505092915050565b613e7781614b5f565b82525050565b6000613e8882614836565b613e928185614888565b9350613ea2818560208601614bd0565b613eab81614e1d565b840191505092915050565b6000613ec182614841565b613ecb8185614899565b9350613edb818560208601614bd0565b613ee481614e1d565b840191505092915050565b6000613efa82614841565b613f0481856148aa565b9350613f14818560208601614bd0565b80840191505092915050565b6000613f2d603283614899565b9150613f3882614e3b565b604082019050919050565b6000613f50601c83614899565b9150613f5b82614e8a565b602082019050919050565b6000613f73602483614899565b9150613f7e82614eb3565b604082019050919050565b6000613f96601983614899565b9150613fa182614f02565b602082019050919050565b6000613fb9602c83614899565b9150613fc482614f2b565b604082019050919050565b6000613fdc603883614899565b9150613fe782614f7a565b604082019050919050565b6000613fff602a83614899565b915061400a82614fc9565b604082019050919050565b6000614022602983614899565b915061402d82615018565b604082019050919050565b6000614045602e83614899565b915061405082615067565b604082019050919050565b6000614068604083614899565b9150614073826150b6565b604082019050919050565b600061408b602083614899565b915061409682615105565b602082019050919050565b60006140ae603183614899565b91506140b98261512e565b604082019050919050565b60006140d1602c83614899565b91506140dc8261517d565b604082019050919050565b60006140f4602983614899565b91506140ff826151cc565b604082019050919050565b6000614117602f83614899565b91506141228261521b565b604082019050919050565b600061413a602183614899565b91506141458261526a565b604082019050919050565b600061415d600983614899565b9150614168826152b9565b602082019050919050565b6000614180603183614899565b915061418b826152e2565b604082019050919050565b60006141a3601c83614899565b91506141ae82615331565b602082019050919050565b60006141c6600c83614899565b91506141d18261535a565b602082019050919050565b6020820160008201516141f260008501826142c8565b50505050565b60a08201600082015161420e60008501826142c8565b50602082015161422160208501826142c8565b5060408201516142346040850182613d85565b5060608201516142476060850182613d85565b50608082015161425a60808501826142c8565b50505050565b60a08201600082015161427660008501826142c8565b50602082015161428960208501826142c8565b50604082015161429c6040850182613d85565b5060608201516142af6060850182613d85565b5060808201516142c260808501826142c8565b50505050565b6142d181614bb7565b82525050565b6142e081614bb7565b82525050565b6142f76142f282614bb7565b614caf565b82525050565b60006143098285613eef565b91506143158284613eef565b91508190509392505050565b600061432d82856142e6565b60208201915061433d82846142e6565b6020820191508190509392505050565b60006020820190506143626000830184613da3565b92915050565b600060208201905061437d6000830184613d94565b92915050565b60006080820190506143986000830187613da3565b6143a56020830186613da3565b6143b260408301856142d7565b81810360608301526143c48184613e7d565b905095945050505050565b600060208201905081810360008301526143e98184613db2565b905092915050565b6000602082019050818103600083015261440b8184613e10565b905092915050565b60006020820190506144286000830184613e6e565b92915050565b600060208201905081810360008301526144488184613eb6565b905092915050565b6000602082019050818103600083015261446981613f20565b9050919050565b6000602082019050818103600083015261448981613f43565b9050919050565b600060208201905081810360008301526144a981613f66565b9050919050565b600060208201905081810360008301526144c981613f89565b9050919050565b600060208201905081810360008301526144e981613fac565b9050919050565b6000602082019050818103600083015261450981613fcf565b9050919050565b6000602082019050818103600083015261452981613ff2565b9050919050565b6000602082019050818103600083015261454981614015565b9050919050565b6000602082019050818103600083015261456981614038565b9050919050565b600060208201905081810360008301526145898161405b565b9050919050565b600060208201905081810360008301526145a98161407e565b9050919050565b600060208201905081810360008301526145c9816140a1565b9050919050565b600060208201905081810360008301526145e9816140c4565b9050919050565b60006020820190508181036000830152614609816140e7565b9050919050565b600060208201905081810360008301526146298161410a565b9050919050565b600060208201905081810360008301526146498161412d565b9050919050565b6000602082019050818103600083015261466981614150565b9050919050565b6000602082019050818103600083015261468981614173565b9050919050565b600060208201905081810360008301526146a981614196565b9050919050565b600060208201905081810360008301526146c9816141b9565b9050919050565b60006020820190506146e560008301846141dc565b92915050565b600060a0820190506147006000830184614260565b92915050565b600060208201905061471b60008301846142d7565b92915050565b600061472b61473c565b90506147378282614c35565b919050565b6000604051905090565b600067ffffffffffffffff82111561476157614760614dd5565b5b602082029050602081019050919050565b600067ffffffffffffffff82111561478d5761478c614dd5565b5b602082029050602081019050919050565b600067ffffffffffffffff8211156147b9576147b8614dd5565b5b6147c282614e1d565b9050602081019050919050565b600067ffffffffffffffff8211156147ea576147e9614dd5565b5b6147f382614e1d565b9050602081019050919050565b6000819050602082019050919050565b6000819050602082019050919050565b600081519050919050565b600081519050919050565b600081519050919050565b600081519050919050565b6000602082019050919050565b6000602082019050919050565b600082825260208201905092915050565b600082825260208201905092915050565b600082825260208201905092915050565b600082825260208201905092915050565b600081905092915050565b60006148c082614bb7565b91506148cb83614bb7565b9250827fffffffffffffffffffffffffffffffffffffffffffffffffffffffffffffffff03821115614900576148ff614cea565b5b828201905092915050565b600061491682614bb7565b915061492183614bb7565b92508261493157614930614d19565b5b828204905092915050565b6000808291508390505b60018511156149865780860481111561496257614961614cea565b5b60018516156149715780820291505b808102905061497f85614e2e565b9450614946565b94509492505050565b600061499a82614bb7565b91506149a583614bb7565b92506149d27fffffffffffffffffffffffffffffffffffffffffffffffffffffffffffffffff84846149da565b905092915050565b6000826149ea5760019050614aa6565b816149f85760009050614aa6565b8160018114614a0e5760028114614a1857614a47565b6001915050614aa6565b60ff841115614a2a57614a29614cea565b5b8360020a915084821115614a4157614a40614cea565b5b50614aa6565b5060208310610133831016604e8410600b8410161715614a7c5782820a905083811115614a7757614a76614cea565b5b614aa6565b614a89848484600161493c565b92509050818404811115614aa057614a9f614cea565b5b81810290505b9392505050565b6000614ab882614bb7565b9150614ac383614bb7565b9250817fffffffffffffffffffffffffffffffffffffffffffffffffffffffffffffffff0483118215151615614afc57614afb614cea565b5b828202905092915050565b6000614b1282614bb7565b9150614b1d83614bb7565b925082821015614b3057614b2f614cea565b5b828203905092915050565b6000614b4682614b97565b9050919050565b6000614b5882614b97565b9050919050565b60008115159050919050565b60007fffffffff0000000000000000000000000000000000000000000000000000000082169050919050565b600073ffffffffffffffffffffffffffffffffffffffff82169050919050565b6000819050919050565b82818337600083830152505050565b60005b83811015614bee578082015181840152602081019050614bd3565b83811115614bfd576000848401525b50505050565b60006002820490506001821680614c1b57607f821691505b60208210811415614c2f57614c2e614d48565b5b50919050565b614c3e82614e1d565b810181811067ffffffffffffffff82111715614c5d57614c5c614dd5565b5b80604052505050565b6000614c7182614bb7565b91507fffffffffffffffffffffffffffffffffffffffffffffffffffffffffffffffff821415614ca457614ca3614cea565b5b600182019050919050565b6000819050919050565b6000614cc482614bb7565b9150614ccf83614bb7565b925082614cdf57614cde614d19565b5b828206905092915050565b7f4e487b7100000000000000000000000000000000000000000000000000000000600052601160045260246000fd5b7f4e487b7100000000000000000000000000000000000000000000000000000000600052601260045260246000fd5b7f4e487b7100000000000000000000000000000000000000000000000000000000600052602260045260246000fd5b7f4e487b7100000000000000000000000000000000000000000000000000000000600052603160045260246000fd5b7f4e487b7100000000000000000000000000000000000000000000000000000000600052603260045260246000fd5b7f4e487b7100000000000000000000000000000000000000000000000000000000600052604160045260246000fd5b600080fd5b600080fd5b600080fd5b600080fd5b600080fd5b6000601f19601f8301169050919050565b60008160011c9050919050565b7f4552433732313a207472616e7366657220746f206e6f6e20455243373231526560008201527f63656976657220696d706c656d656e7465720000000000000000000000000000602082015250565b7f4552433732313a20746f6b656e20616c7265616479206d696e74656400000000600082015250565b7f4552433732313a207472616e7366657220746f20746865207a65726f2061646460008201527f7265737300000000000000000000000000000000000000000000000000000000602082015250565b7f4552433732313a20617070726f766520746f2063616c6c657200000000000000600082015250565b7f4552433732313a206f70657261746f7220717565727920666f72206e6f6e657860008201527f697374656e7420746f6b656e0000000000000000000000000000000000000000602082015250565b7f4552433732313a20617070726f76652063616c6c6572206973206e6f74206f7760008201527f6e6572206e6f7220617070726f76656420666f7220616c6c0000000000000000602082015250565b7f4552433732313a2062616c616e636520717565727920666f7220746865207a6560008201527f726f206164647265737300000000000000000000000000000000000000000000602082015250565b7f4552433732313a206f776e657220717565727920666f72206e6f6e657869737460008201527f656e7420746f6b656e0000000000000000000000000000000000000000000000602082015250565b7f45524337323155524953746f726167653a2055524920736574206f66206e6f6e60008201527f6578697374656e7420746f6b656e000000000000000000000000000000000000602082015250565b7f506c65617365207375626d6974207468652061736b696e67207072696365206960008201527f6e206f7264657220746f20636f6d706c65746520746865207075726368617365602082015250565b7f4552433732313a206d696e7420746f20746865207a65726f2061646472657373600082015250565b7f45524337323155524953746f726167653a2055524920717565727920666f722060008201527f6e6f6e6578697374656e7420746f6b656e000000000000000000000000000000602082015250565b7f4552433732313a20617070726f76656420717565727920666f72206e6f6e657860008201527f697374656e7420746f6b656e0000000000000000000000000000000000000000602082015250565b7f4552433732313a207472616e73666572206f6620746f6b656e2074686174206960008201527f73206e6f74206f776e0000000000000000000000000000000000000000000000602082015250565b7f4552433732314d657461646174613a2055524920717565727920666f72206e6f60008201527f6e6578697374656e7420746f6b656e0000000000000000000000000000000000602082015250565b7f4552433732313a20617070726f76616c20746f2063757272656e74206f776e6560008201527f7200000000000000000000000000000000000000000000000000000000000000602082015250565b7f4e6f74206f776e65720000000000000000000000000000000000000000000000600082015250565b7f4552433732313a207472616e736665722063616c6c6572206973206e6f74206f60008201527f776e6572206e6f7220617070726f766564000000000000000000000000000000602082015250565b7f5072696365206d757374206265206174206c6561737420312077656900000000600082015250565b7f4d4f4e45592055204b4f4e570000000000000000000000000000000000000000600082015250565b61538c81614b3b565b811461539757600080fd5b50565b6153a381614b5f565b81146153ae57600080fd5b50565b6153ba81614b6b565b81146153c557600080fd5b50565b6153d181614bb7565b81146153dc57600080fd5b5056fea264697066735822122010a1813ea6e939b34c40c61317bd95222d886a5b678128372be169722f80928c64736f6c63430008050033",
  "linkReferences": {},
  "deployedLinkReferences": {}
}