{
  "_format": "hh-sol-artifact-1",
  "contractName": "WileCard",
  "sourceName": "contracts/Card.sol",
  "abi": [
    {
      "inputs": [],
      "stateMutability": "nonpayable",
      "type": "constructor"
    },
    {
      "anonymous": false,
      "inputs": [
        {
          "indexed": true,
          "internalType": "address",
          "name": "owner",
          "type": "address"
        },
        {
          "indexed": true,
          "internalType": "address",
          "name": "approved",
          "type": "address"
        },
        {
          "indexed": true,
          "internalType": "uint256",
          "name": "tokenId",
          "type": "uint256"
        }
      ],
      "name": "Approval",
      "type": "event"
    },
    {
      "anonymous": false,
      "inputs": [
        {
          "indexed": true,
          "internalType": "address",
          "name": "owner",
          "type": "address"
        },
        {
          "indexed": true,
          "internalType": "address",
          "name": "operator",
          "type": "address"
        },
        {
          "indexed": false,
          "internalType": "bool",
          "name": "approved",
          "type": "bool"
        }
      ],
      "name": "ApprovalForAll",
      "type": "event"
    },
    {
      "anonymous": false,
      "inputs": [
        {
          "indexed": true,
          "internalType": "address",
          "name": "from",
          "type": "address"
        },
        {
          "indexed": true,
          "internalType": "address",
          "name": "to",
          "type": "address"
        },
        {
          "indexed": true,
          "internalType": "uint256",
          "name": "tokenId",
          "type": "uint256"
        }
      ],
      "name": "Transfer",
      "type": "event"
    },
    {
      "inputs": [],
      "name": "Owner",
      "outputs": [
        {
          "internalType": "address payable",
          "name": "",
          "type": "address"
        }
      ],
      "stateMutability": "view",
      "type": "function"
    },
    {
      "inputs": [
        {
          "internalType": "uint256",
          "name": "tokenId",
          "type": "uint256"
        },
        {
          "internalType": "uint256",
          "name": "price",
          "type": "uint256"
        }
      ],
      "name": "addItemToMarket",
      "outputs": [],
      "stateMutability": "payable",
      "type": "function"
    },
    {
      "inputs": [
        {
          "internalType": "address",
          "name": "to",
          "type": "address"
        },
        {
          "internalType": "uint256",
          "name": "tokenId",
          "type": "uint256"
        }
      ],
      "name": "approve",
      "outputs": [],
      "stateMutability": "nonpayable",
      "type": "function"
    },
    {
      "inputs": [
        {
          "internalType": "address",
          "name": "owner",
          "type": "address"
        }
      ],
      "name": "balanceOf",
      "outputs": [
        {
          "internalType": "uint256",
          "name": "",
          "type": "uint256"
        }
      ],
      "stateMutability": "view",
      "type": "function"
    },
    {
      "inputs": [
        {
          "internalType": "uint256",
          "name": "_fee",
          "type": "uint256"
        }
      ],
      "name": "changeFee",
      "outputs": [
        {
          "internalType": "uint256",
          "name": "",
          "type": "uint256"
        }
      ],
      "stateMutability": "nonpayable",
      "type": "function"
    },
    {
      "inputs": [],
      "name": "deposit",
      "outputs": [
        {
          "internalType": "uint256",
          "name": "",
          "type": "uint256"
        }
      ],
      "stateMutability": "payable",
      "type": "function"
    },
    {
      "inputs": [],
      "name": "deposits",
      "outputs": [
        {
          "internalType": "uint256",
          "name": "",
          "type": "uint256"
        }
      ],
      "stateMutability": "view",
      "type": "function"
    },
    {
      "inputs": [
        {
          "internalType": "uint256",
          "name": "tokenId",
          "type": "uint256"
        }
      ],
      "name": "getApproved",
      "outputs": [
        {
          "internalType": "address",
          "name": "",
          "type": "address"
        }
      ],
      "stateMutability": "view",
      "type": "function"
    },
    {
      "inputs": [],
      "name": "getBalance",
      "outputs": [
        {
          "internalType": "uint256",
          "name": "",
          "type": "uint256"
        }
      ],
      "stateMutability": "view",
      "type": "function"
    },
    {
      "inputs": [
        {
          "internalType": "uint256",
          "name": "marketItemId",
          "type": "uint256"
        }
      ],
      "name": "getMarketItemById",
      "outputs": [
        {
          "components": [
            {
              "internalType": "uint256",
              "name": "itemId",
              "type": "uint256"
            },
            {
              "internalType": "uint256",
              "name": "tokenId",
              "type": "uint256"
            },
            {
              "internalType": "string",
              "name": "tokenURI",
              "type": "string"
            },
            {
              "internalType": "address payable",
              "name": "seller",
              "type": "address"
            },
            {
              "internalType": "address payable",
              "name": "owner",
              "type": "address"
            },
            {
              "internalType": "uint256",
              "name": "price",
              "type": "uint256"
            }
          ],
          "internalType": "struct WileCard.MarketItem",
          "name": "",
          "type": "tuple"
        }
      ],
      "stateMutability": "view",
      "type": "function"
    },
    {
      "inputs": [],
      "name": "getUnsoldItems",
      "outputs": [
        {
          "components": [
            {
              "internalType": "uint256",
              "name": "itemId",
              "type": "uint256"
            },
            {
              "internalType": "uint256",
              "name": "tokenId",
              "type": "uint256"
            },
            {
              "internalType": "string",
              "name": "tokenURI",
              "type": "string"
            },
            {
              "internalType": "address payable",
              "name": "seller",
              "type": "address"
            },
            {
              "internalType": "address payable",
              "name": "owner",
              "type": "address"
            },
            {
              "internalType": "uint256",
              "name": "price",
              "type": "uint256"
            }
          ],
          "internalType": "struct WileCard.MarketItem[]",
          "name": "",
          "type": "tuple[]"
        }
      ],
      "stateMutability": "view",
      "type": "function"
    },
    {
      "inputs": [],
      "name": "getUserToken",
      "outputs": [
        {
          "internalType": "uint256[]",
          "name": "",
          "type": "uint256[]"
        }
      ],
      "stateMutability": "view",
      "type": "function"
    },
    {
      "inputs": [
        {
          "internalType": "address",
          "name": "sender",
          "type": "address"
        }
      ],
      "name": "getUserTokenWithAddress",
      "outputs": [
        {
          "internalType": "uint256[]",
          "name": "",
          "type": "uint256[]"
        }
      ],
      "stateMutability": "view",
      "type": "function"
    },
    {
      "inputs": [
        {
          "internalType": "address",
          "name": "owner",
          "type": "address"
        },
        {
          "internalType": "address",
          "name": "operator",
          "type": "address"
        }
      ],
      "name": "isApprovedForAll",
      "outputs": [
        {
          "internalType": "bool",
          "name": "",
          "type": "bool"
        }
      ],
      "stateMutability": "view",
      "type": "function"
    },
    {
      "inputs": [
        {
          "internalType": "string[]",
          "name": "tokenURI",
          "type": "string[]"
        }
      ],
      "name": "mintNFT",
      "outputs": [],
      "stateMutability": "nonpayable",
      "type": "function"
    },
    {
      "inputs": [],
      "name": "name",
      "outputs": [
        {
          "internalType": "string",
          "name": "",
          "type": "string"
        }
      ],
      "stateMutability": "view",
      "type": "function"
    },
    {
      "inputs": [
        {
          "internalType": "uint256",
          "name": "tokenId",
          "type": "uint256"
        }
      ],
      "name": "ownerOf",
      "outputs": [
        {
          "internalType": "address",
          "name": "",
          "type": "address"
        }
      ],
      "stateMutability": "view",
      "type": "function"
    },
    {
      "inputs": [
        {
          "internalType": "uint256[]",
          "name": "_myArray",
          "type": "uint256[]"
        }
      ],
      "name": "random",
      "outputs": [
        {
          "internalType": "uint256[]",
          "name": "",
          "type": "uint256[]"
        }
      ],
      "stateMutability": "view",
      "type": "function"
    },
    {
      "inputs": [],
      "name": "randomNFT",
      "outputs": [
        {
          "internalType": "uint256",
          "name": "",
          "type": "uint256"
        }
      ],
      "stateMutability": "nonpayable",
      "type": "function"
    },
    {
      "inputs": [
        {
          "internalType": "address",
          "name": "from",
          "type": "address"
        },
        {
          "internalType": "address",
          "name": "to",
          "type": "address"
        },
        {
          "internalType": "uint256",
          "name": "tokenId",
          "type": "uint256"
        }
      ],
      "name": "safeTransferFrom",
      "outputs": [],
      "stateMutability": "nonpayable",
      "type": "function"
    },
    {
      "inputs": [
        {
          "internalType": "address",
          "name": "from",
          "type": "address"
        },
        {
          "internalType": "address",
          "name": "to",
          "type": "address"
        },
        {
          "internalType": "uint256",
          "name": "tokenId",
          "type": "uint256"
        },
        {
          "internalType": "bytes",
          "name": "_data",
          "type": "bytes"
        }
      ],
      "name": "safeTransferFrom",
      "outputs": [],
      "stateMutability": "nonpayable",
      "type": "function"
    },
    {
      "inputs": [
        {
          "internalType": "uint256",
          "name": "itemId",
          "type": "uint256"
        }
      ],
      "name": "sellItemAndTransferOwnership",
      "outputs": [],
      "stateMutability": "payable",
      "type": "function"
    },
    {
      "inputs": [
        {
          "internalType": "address",
          "name": "operator",
          "type": "address"
        },
        {
          "internalType": "bool",
          "name": "approved",
          "type": "bool"
        }
      ],
      "name": "setApprovalForAll",
      "outputs": [],
      "stateMutability": "nonpayable",
      "type": "function"
    },
    {
      "inputs": [
        {
          "internalType": "bytes4",
          "name": "interfaceId",
          "type": "bytes4"
        }
      ],
      "name": "supportsInterface",
      "outputs": [
        {
          "internalType": "bool",
          "name": "",
          "type": "bool"
        }
      ],
      "stateMutability": "view",
      "type": "function"
    },
    {
      "inputs": [],
      "name": "symbol",
      "outputs": [
        {
          "internalType": "string",
          "name": "",
          "type": "string"
        }
      ],
      "stateMutability": "view",
      "type": "function"
    },
    {
      "inputs": [
        {
          "internalType": "uint256",
          "name": "tokenId",
          "type": "uint256"
        }
      ],
      "name": "tokenURI",
      "outputs": [
        {
          "internalType": "string",
          "name": "",
          "type": "string"
        }
      ],
      "stateMutability": "view",
      "type": "function"
    },
    {
      "inputs": [],
      "name": "totalSupply",
      "outputs": [
        {
          "components": [
            {
              "internalType": "uint256",
              "name": "_value",
              "type": "uint256"
            }
          ],
          "internalType": "struct Counters.Counter",
          "name": "",
          "type": "tuple"
        }
      ],
      "stateMutability": "view",
      "type": "function"
    },
    {
      "inputs": [
        {
          "internalType": "address",
          "name": "from",
          "type": "address"
        },
        {
          "internalType": "address",
          "name": "to",
          "type": "address"
        },
        {
          "internalType": "uint256",
          "name": "tokenId",
          "type": "uint256"
        }
      ],
      "name": "transferFrom",
      "outputs": [],
      "stateMutability": "nonpayable",
      "type": "function"
    },
    {
      "inputs": [
        {
          "internalType": "address",
          "name": "from",
          "type": "address"
        },
        {
          "internalType": "address",
          "name": "to",
          "type": "address"
        },
        {
          "internalType": "uint256",
          "name": "tokenId",
          "type": "uint256"
        }
      ],
      "name": "transferNFT",
      "outputs": [],
      "stateMutability": "nonpayable",
      "type": "function"
    },
    {
      "inputs": [
        {
          "internalType": "address",
          "name": "",
          "type": "address"
        },
        {
          "internalType": "uint256",
          "name": "",
          "type": "uint256"
        }
      ],
      "name": "userOwnedTokens",
      "outputs": [
        {
          "internalType": "uint256",
          "name": "",
          "type": "uint256"
        }
      ],
      "stateMutability": "view",
      "type": "function"
    },
    {
      "inputs": [
        {
          "internalType": "uint256",
          "name": "_amount",
          "type": "uint256"
        }
      ],
      "name": "withdraw",
      "outputs": [],
      "stateMutability": "nonpayable",
      "type": "function"
    }
  ],
  "bytecode": "0x6080604052600060085560006009556008600b553480156200002057600080fd5b506040518060400160405280600881526020017f57696c65436172640000000000000000000000000000000000000000000000008152506040518060400160405280600481526020017f57696c65000000000000000000000000000000000000000000000000000000008152508160009080519060200190620000a592919062000108565b508060019080519060200190620000be92919062000108565b50505033600a60006101000a81548173ffffffffffffffffffffffffffffffffffffffff021916908373ffffffffffffffffffffffffffffffffffffffff1602179055506200021d565b8280546200011690620001b8565b90600052602060002090601f0160209004810192826200013a576000855562000186565b82601f106200015557805160ff191683800117855562000186565b8280016001018555821562000186579182015b828111156200018557825182559160200191906001019062000168565b5b50905062000195919062000199565b5090565b5b80821115620001b45760008160009055506001016200019a565b5090565b60006002820490506001821680620001d157607f821691505b60208210811415620001e857620001e7620001ee565b5b50919050565b7f4e487b7100000000000000000000000000000000000000000000000000000000600052602260045260246000fd5b615611806200022d6000396000f3fe6080604052600436106101d85760003560e01c8063704affad11610102578063b4a99a4e11610095578063e546b9a311610064578063e546b9a3146106ee578063e985e9c514610719578063e9e883f914610756578063ece6b21f14610772576101d8565b8063b4a99a4e1461063f578063b88d4fde1461066a578063c87b56dd14610693578063d0e30db0146106d0576101d8565b80639b8bc127116100d15780639b8bc127146105715780639e4838151461059c578063a09e3367146105d9578063a22cb46514610616576101d8565b8063704affad146104c457806370a08231146104ed57806391066da81461052a57806395d89b4114610546576101d8565b806323b872dd1161017a57806353dbceb11161014957806353dbceb1146103e45780636352211e1461042157806369e9cae11461045e5780636a1db1bf14610487576101d8565b806323b872dd1461033e5780632e1a7d4d14610367578063323a5e0b1461039057806342842e0e146103bb576101d8565b8063095ea7b3116101b6578063095ea7b31461028257806312065fe0146102ab57806314b924e2146102d657806318160ddd14610313576101d8565b806301ffc9a7146101dd57806306fdde031461021a578063081812fc14610245575b600080fd5b3480156101e957600080fd5b5061020460048036038101906101ff9190613de4565b61079d565b60405161021191906145f7565b60405180910390f35b34801561022657600080fd5b5061022f61087f565b60405161023c9190614612565b60405180910390f35b34801561025157600080fd5b5061026c60048036038101906102679190613e3e565b610911565b6040516102799190614531565b60405180910390f35b34801561028e57600080fd5b506102a960048036038101906102a49190613d12565b610996565b005b3480156102b757600080fd5b506102c0610aae565b6040516102cd91906148f1565b60405180910390f35b3480156102e257600080fd5b506102fd60048036038101906102f89190613d12565b610ab6565b60405161030a91906148f1565b60405180910390f35b34801561031f57600080fd5b50610328610ae7565b60405161033591906148b4565b60405180910390f35b34801561034a57600080fd5b5061036560048036038101906103609190613bfc565b610b0b565b005b34801561037357600080fd5b5061038e60048036038101906103899190613e3e565b610b6b565b005b34801561039c57600080fd5b506103a5610c67565b6040516103b291906148f1565b60405180910390f35b3480156103c757600080fd5b506103e260048036038101906103dd9190613bfc565b610c6d565b005b3480156103f057600080fd5b5061040b60048036038101906104069190613e3e565b610c8d565b60405161041891906148cf565b60405180910390f35b34801561042d57600080fd5b5061044860048036038101906104439190613e3e565b610e1c565b6040516104559190614531565b60405180910390f35b34801561046a57600080fd5b5061048560048036038101906104809190613bfc565b610ece565b005b34801561049357600080fd5b506104ae60048036038101906104a99190613e3e565b6111c7565b6040516104bb91906148f1565b60405180910390f35b3480156104d057600080fd5b506104eb60048036038101906104e69190613d52565b6111da565b005b3480156104f957600080fd5b50610514600480360381019061050f9190613b8f565b61137e565b60405161052191906148f1565b60405180910390f35b610544600480360381019061053f9190613e6b565b611436565b005b34801561055257600080fd5b5061055b6118cb565b6040516105689190614612565b60405180910390f35b34801561057d57600080fd5b5061058661195d565b60405161059391906145b3565b60405180910390f35b3480156105a857600080fd5b506105c360048036038101906105be9190613b8f565b611c48565b6040516105d091906145d5565b60405180910390f35b3480156105e557600080fd5b5061060060048036038101906105fb9190613d9b565b611cdf565b60405161060d91906145d5565b60405180910390f35b34801561062257600080fd5b5061063d60048036038101906106389190613cd2565b611e37565b005b34801561064b57600080fd5b50610654611e4d565b604051610661919061454c565b60405180910390f35b34801561067657600080fd5b50610691600480360381019061068c9190613c4f565b611e73565b005b34801561069f57600080fd5b506106ba60048036038101906106b59190613e3e565b611ed5565b6040516106c79190614612565b60405180910390f35b6106d8612027565b6040516106e591906148f1565b60405180910390f35b3480156106fa57600080fd5b5061070361208b565b60405161071091906145d5565b60405180910390f35b34801561072557600080fd5b50610740600480360381019061073b9190613bbc565b612120565b60405161074d91906145f7565b60405180910390f35b610770600480360381019061076b9190613e3e565b6121b4565b005b34801561077e57600080fd5b506107876125b1565b60405161079491906148f1565b60405180910390f35b60007f80ac58cd000000000000000000000000000000000000000000000000000000007bffffffffffffffffffffffffffffffffffffffffffffffffffffffff1916827bffffffffffffffffffffffffffffffffffffffffffffffffffffffff1916148061086857507f5b5e139f000000000000000000000000000000000000000000000000000000007bffffffffffffffffffffffffffffffffffffffffffffffffffffffff1916827bffffffffffffffffffffffffffffffffffffffffffffffffffffffff1916145b80610878575061087782612a8d565b5b9050919050565b60606000805461088e90614dff565b80601f01602080910402602001604051908101604052809291908181526020018280546108ba90614dff565b80156109075780601f106108dc57610100808354040283529160200191610907565b820191906000526020600020905b8154815290600101906020018083116108ea57829003601f168201915b5050505050905090565b600061091c82612af7565b61095b576040517f08c379a0000000000000000000000000000000000000000000000000000000008152600401610952906147b4565b60405180910390fd5b6004600083815260200190815260200160002060009054906101000a900473ffffffffffffffffffffffffffffffffffffffff169050919050565b60006109a182610e1c565b90508073ffffffffffffffffffffffffffffffffffffffff168373ffffffffffffffffffffffffffffffffffffffff161415610a12576040517f08c379a0000000000000000000000000000000000000000000000000000000008152600401610a0990614814565b60405180910390fd5b8073ffffffffffffffffffffffffffffffffffffffff16610a31612b63565b73ffffffffffffffffffffffffffffffffffffffff161480610a605750610a5f81610a5a612b63565b612120565b5b610a9f576040517f08c379a0000000000000000000000000000000000000000000000000000000008152600401610a96906146d4565b60405180910390fd5b610aa98383612b6b565b505050565b600047905090565b600c6020528160005260406000208181548110610ad257600080fd5b90600052602060002001600091509150505481565b610aef6137d4565b6007604051806020016040529081600082015481525050905090565b610b1c610b16612b63565b82612c24565b610b5b576040517f08c379a0000000000000000000000000000000000000000000000000000000008152600401610b5290614854565b60405180910390fd5b610b66838383612d02565b505050565b600a60009054906101000a900473ffffffffffffffffffffffffffffffffffffffff1673ffffffffffffffffffffffffffffffffffffffff163373ffffffffffffffffffffffffffffffffffffffff1614610bfb576040517f08c379a0000000000000000000000000000000000000000000000000000000008152600401610bf290614834565b60405180910390fd5b600a60009054906101000a900473ffffffffffffffffffffffffffffffffffffffff1673ffffffffffffffffffffffffffffffffffffffff166108fc829081150290604051600060405180830381858888f19350505050158015610c63573d6000803e3d6000fd5b5050565b60085481565b610c8883838360405180602001604052806000815250611e73565b505050565b610c956137e7565b6000600d60008481526020019081526020016000206040518060c00160405290816000820154815260200160018201548152602001600282018054610cd990614dff565b80601f0160208091040260200160405190810160405280929190818152602001828054610d0590614dff565b8015610d525780601f10610d2757610100808354040283529160200191610d52565b820191906000526020600020905b815481529060010190602001808311610d3557829003601f168201915b505050505081526020016003820160009054906101000a900473ffffffffffffffffffffffffffffffffffffffff1673ffffffffffffffffffffffffffffffffffffffff1673ffffffffffffffffffffffffffffffffffffffff1681526020016004820160009054906101000a900473ffffffffffffffffffffffffffffffffffffffff1673ffffffffffffffffffffffffffffffffffffffff1673ffffffffffffffffffffffffffffffffffffffff168152602001600582015481525050905080915050919050565b6000806002600084815260200190815260200160002060009054906101000a900473ffffffffffffffffffffffffffffffffffffffff169050600073ffffffffffffffffffffffffffffffffffffffff168173ffffffffffffffffffffffffffffffffffffffff161415610ec5576040517f08c379a0000000000000000000000000000000000000000000000000000000008152600401610ebc90614714565b60405180910390fd5b80915050919050565b610edf610ed9612b63565b82612c24565b610f1e576040517f08c379a0000000000000000000000000000000000000000000000000000000008152600401610f1590614854565b60405180910390fd5b600c60008373ffffffffffffffffffffffffffffffffffffffff1673ffffffffffffffffffffffffffffffffffffffff16815260200190815260200160002081908060018154018082558091505060019003906000526020600020016000909190919091505560005b600c60008573ffffffffffffffffffffffffffffffffffffffff1673ffffffffffffffffffffffffffffffffffffffff168152602001908152602001600020805490508110156111b65781600c60008673ffffffffffffffffffffffffffffffffffffffff1673ffffffffffffffffffffffffffffffffffffffff168152602001908152602001600020828154811061102357611022614fa2565b5b906000526020600020015414156111a357600c60008573ffffffffffffffffffffffffffffffffffffffff1673ffffffffffffffffffffffffffffffffffffffff1681526020019081526020016000206001600c60008773ffffffffffffffffffffffffffffffffffffffff1673ffffffffffffffffffffffffffffffffffffffff168152602001908152602001600020805490506110c29190614d03565b815481106110d3576110d2614fa2565b5b9060005260206000200154600c60008673ffffffffffffffffffffffffffffffffffffffff1673ffffffffffffffffffffffffffffffffffffffff168152602001908152602001600020828154811061112f5761112e614fa2565b5b9060005260206000200181905550600c60008573ffffffffffffffffffffffffffffffffffffffff1673ffffffffffffffffffffffffffffffffffffffff16815260200190815260200160002080548061118c5761118b614f73565b5b600190038181906000526020600020016000905590555b80806111ae90614e62565b915050610f87565b506111c2838383612d02565b505050565b600081600b81905550600b549050919050565b600a60009054906101000a900473ffffffffffffffffffffffffffffffffffffffff1673ffffffffffffffffffffffffffffffffffffffff163373ffffffffffffffffffffffffffffffffffffffff161461126a576040517f08c379a000000000000000000000000000000000000000000000000000000000815260040161126190614834565b60405180910390fd5b60005b815181101561137a576112806007612f5e565b600061128c6007612f74565b90506112ba600a60009054906101000a900473ffffffffffffffffffffffffffffffffffffffff1682612f82565b6112de818484815181106112d1576112d0614fa2565b5b6020026020010151612fa0565b600c6000600a60009054906101000a900473ffffffffffffffffffffffffffffffffffffffff1673ffffffffffffffffffffffffffffffffffffffff1673ffffffffffffffffffffffffffffffffffffffff16815260200190815260200160002081908060018154018082558091505060019003906000526020600020016000909190919091505550808061137290614e62565b91505061126d565b5050565b60008073ffffffffffffffffffffffffffffffffffffffff168273ffffffffffffffffffffffffffffffffffffffff1614156113ef576040517f08c379a00000000000000000000000000000000000000000000000000000000081526004016113e6906146f4565b60405180910390fd5b600360008373ffffffffffffffffffffffffffffffffffffffff1673ffffffffffffffffffffffffffffffffffffffff168152602001908152602001600020549050919050565b60008111611479576040517f08c379a000000000000000000000000000000000000000000000000000000000815260040161147090614874565b60405180910390fd5b61148a611484612b63565b83612c24565b6114c9576040517f08c379a00000000000000000000000000000000000000000000000000000000081526004016114c090614854565b60405180910390fd5b6114d3600e612f5e565b60006114df600e612f74565b90506040518060c0016040528082815260200184815260200161150185611ed5565b81526020013373ffffffffffffffffffffffffffffffffffffffff168152602001600073ffffffffffffffffffffffffffffffffffffffff16815260200183815250600d600083815260200190815260200160002060008201518160000155602082015181600101556040820151816002019080519060200190611586929190613849565b5060608201518160030160006101000a81548173ffffffffffffffffffffffffffffffffffffffff021916908373ffffffffffffffffffffffffffffffffffffffff16021790555060808201518160040160006101000a81548173ffffffffffffffffffffffffffffffffffffffff021916908373ffffffffffffffffffffffffffffffffffffffff16021790555060a08201518160050155905050600c60003073ffffffffffffffffffffffffffffffffffffffff1673ffffffffffffffffffffffffffffffffffffffff16815260200190815260200160002083908060018154018082558091505060019003906000526020600020016000909190919091505560005b600c60003373ffffffffffffffffffffffffffffffffffffffff1673ffffffffffffffffffffffffffffffffffffffff168152602001908152602001600020805490508110156118ba5783600c60003373ffffffffffffffffffffffffffffffffffffffff1673ffffffffffffffffffffffffffffffffffffffff168152602001908152602001600020828154811061172757611726614fa2565b5b906000526020600020015414156118a757600c60003373ffffffffffffffffffffffffffffffffffffffff1673ffffffffffffffffffffffffffffffffffffffff1681526020019081526020016000206001600c60003373ffffffffffffffffffffffffffffffffffffffff1673ffffffffffffffffffffffffffffffffffffffff168152602001908152602001600020805490506117c69190614d03565b815481106117d7576117d6614fa2565b5b9060005260206000200154600c60003373ffffffffffffffffffffffffffffffffffffffff1673ffffffffffffffffffffffffffffffffffffffff168152602001908152602001600020828154811061183357611832614fa2565b5b9060005260206000200181905550600c60003373ffffffffffffffffffffffffffffffffffffffff1673ffffffffffffffffffffffffffffffffffffffff1681526020019081526020016000208054806118905761188f614f73565b5b600190038181906000526020600020016000905590555b80806118b290614e62565b91505061168b565b506118c6333085612d02565b505050565b6060600180546118da90614dff565b80601f016020809104026020016040519081016040528092919081815260200182805461190690614dff565b80156119535780601f1061192857610100808354040283529160200191611953565b820191906000526020600020905b81548152906001019060200180831161193657829003601f168201915b5050505050905090565b6060600061196b600e612f74565b90506000611979600f612f74565b611983600e612f74565b61198d9190614d03565b90506000808267ffffffffffffffff8111156119ac576119ab614fd1565b5b6040519080825280602002602001820160405280156119e557816020015b6119d26137e7565b8152602001906001900390816119ca5790505b50905060005b84811015611c3d57600073ffffffffffffffffffffffffffffffffffffffff16600d6000600184611a1c9190614ab1565b815260200190815260200160002060040160009054906101000a900473ffffffffffffffffffffffffffffffffffffffff1673ffffffffffffffffffffffffffffffffffffffff161415611c2a576000600182611a799190614ab1565b90506000600d60008381526020019081526020016000206040518060c00160405290816000820154815260200160018201548152602001600282018054611abf90614dff565b80601f0160208091040260200160405190810160405280929190818152602001828054611aeb90614dff565b8015611b385780601f10611b0d57610100808354040283529160200191611b38565b820191906000526020600020905b815481529060010190602001808311611b1b57829003601f168201915b505050505081526020016003820160009054906101000a900473ffffffffffffffffffffffffffffffffffffffff1673ffffffffffffffffffffffffffffffffffffffff1673ffffffffffffffffffffffffffffffffffffffff1681526020016004820160009054906101000a900473ffffffffffffffffffffffffffffffffffffffff1673ffffffffffffffffffffffffffffffffffffffff1673ffffffffffffffffffffffffffffffffffffffff168152602001600582015481525050905080848681518110611c0d57611c0c614fa2565b5b6020026020010181905250600185611c259190614ab1565b945050505b8080611c3590614e62565b9150506119eb565b508094505050505090565b6060600c60008373ffffffffffffffffffffffffffffffffffffffff1673ffffffffffffffffffffffffffffffffffffffff168152602001908152602001600020805480602002602001604051908101604052809291908181526020018280548015611cd357602002820191906000526020600020905b815481526020019060010190808311611cbf575b50505050509050919050565b606060008251905060008351905060005b81811015611e2657600060018442888581518110611d1157611d10614fa2565b5b6020026020010151604051602001611d2a929190614505565b6040516020818303038152906040528051906020012060001c611d4d9190614eb5565b611d579190614ab1565b9050600086600183611d699190614d03565b81518110611d7a57611d79614fa2565b5b6020026020010151905086600186611d929190614d03565b81518110611da357611da2614fa2565b5b602002602001015187600184611db99190614d03565b81518110611dca57611dc9614fa2565b5b6020026020010181815250508087600187611de59190614d03565b81518110611df657611df5614fa2565b5b602002602001018181525050600185611e0f9190614d03565b945050508080611e1e90614e62565b915050611cf0565b506060849050809350505050919050565b611e49611e42612b63565b8383613014565b5050565b600a60009054906101000a900473ffffffffffffffffffffffffffffffffffffffff1681565b611e84611e7e612b63565b83612c24565b611ec3576040517f08c379a0000000000000000000000000000000000000000000000000000000008152600401611eba90614854565b60405180910390fd5b611ecf84848484613181565b50505050565b6060611ee082612af7565b611f1f576040517f08c379a0000000000000000000000000000000000000000000000000000000008152600401611f1690614794565b60405180910390fd5b6000600660008481526020019081526020016000208054611f3f90614dff565b80601f0160208091040260200160405190810160405280929190818152602001828054611f6b90614dff565b8015611fb85780601f10611f8d57610100808354040283529160200191611fb8565b820191906000526020600020905b815481529060010190602001808311611f9b57829003601f168201915b505050505090506000611fc96131dd565b9050600081511415611fdf578192505050612022565b600082511115612014578082604051602001611ffc9291906144e1565b60405160208183030381529060405292505050612022565b61201d846131f4565b925050505b919050565b6000600b54600a6120389190614b8b565b60016120449190614ca9565b3414612085576040517f08c379a000000000000000000000000000000000000000000000000000000000815260040161207c90614894565b60405180910390fd5b34905090565b6060600c60003373ffffffffffffffffffffffffffffffffffffffff1673ffffffffffffffffffffffffffffffffffffffff16815260200190815260200160002080548060200260200160405190810160405280929190818152602001828054801561211657602002820191906000526020600020905b815481526020019060010190808311612102575b5050505050905090565b6000600560008473ffffffffffffffffffffffffffffffffffffffff1673ffffffffffffffffffffffffffffffffffffffff16815260200190815260200160002060008373ffffffffffffffffffffffffffffffffffffffff1673ffffffffffffffffffffffffffffffffffffffff16815260200190815260200160002060009054906101000a900460ff16905092915050565b6000600d60008381526020019081526020016000206005015490506000600d600084815260200190815260200160002060010154905081341461222c576040517f08c379a000000000000000000000000000000000000000000000000000000000815260040161222390614754565b60405180910390fd5b600d600084815260200190815260200160002060030160009054906101000a900473ffffffffffffffffffffffffffffffffffffffff1673ffffffffffffffffffffffffffffffffffffffff166108fc349081150290604051600060405180830381858888f193505050501580156122a8573d6000803e3d6000fd5b5033600d600085815260200190815260200160002060040160006101000a81548173ffffffffffffffffffffffffffffffffffffffff021916908373ffffffffffffffffffffffffffffffffffffffff160217905550612308600f612f5e565b600c60003373ffffffffffffffffffffffffffffffffffffffff1673ffffffffffffffffffffffffffffffffffffffff16815260200190815260200160002081908060018154018082558091505060019003906000526020600020016000909190919091505560005b600c60003073ffffffffffffffffffffffffffffffffffffffff1673ffffffffffffffffffffffffffffffffffffffff168152602001908152602001600020805490508110156125a05781600c60003073ffffffffffffffffffffffffffffffffffffffff1673ffffffffffffffffffffffffffffffffffffffff168152602001908152602001600020828154811061240d5761240c614fa2565b5b9060005260206000200154141561258d57600c60003073ffffffffffffffffffffffffffffffffffffffff1673ffffffffffffffffffffffffffffffffffffffff1681526020019081526020016000206001600c60003073ffffffffffffffffffffffffffffffffffffffff1673ffffffffffffffffffffffffffffffffffffffff168152602001908152602001600020805490506124ac9190614d03565b815481106124bd576124bc614fa2565b5b9060005260206000200154600c60003073ffffffffffffffffffffffffffffffffffffffff1673ffffffffffffffffffffffffffffffffffffffff168152602001908152602001600020828154811061251957612518614fa2565b5b9060005260206000200181905550600c60003073ffffffffffffffffffffffffffffffffffffffff1673ffffffffffffffffffffffffffffffffffffffff16815260200190815260200160002080548061257657612575614f73565b5b600190038181906000526020600020016000905590555b808061259890614e62565b915050612371565b506125ac303383612d02565b505050565b60008061266c600c6000600a60009054906101000a900473ffffffffffffffffffffffffffffffffffffffff1673ffffffffffffffffffffffffffffffffffffffff1673ffffffffffffffffffffffffffffffffffffffff16815260200190815260200160002080548060200260200160405190810160405280929190818152602001828054801561266257602002820191906000526020600020905b81548152602001906001019080831161264e575b5050505050611cdf565b60008151811061267f5761267e614fa2565b5b602002602001015190506126b5600a60009054906101000a900473ffffffffffffffffffffffffffffffffffffffff1682612c24565b6126f4576040517f08c379a00000000000000000000000000000000000000000000000000000000081526004016126eb90614854565b60405180910390fd5b600c60003373ffffffffffffffffffffffffffffffffffffffff1673ffffffffffffffffffffffffffffffffffffffff16815260200190815260200160002081908060018154018082558091505060019003906000526020600020016000909190919091505560005b600c6000600a60009054906101000a900473ffffffffffffffffffffffffffffffffffffffff1673ffffffffffffffffffffffffffffffffffffffff1673ffffffffffffffffffffffffffffffffffffffff16815260200190815260200160002080549050811015612a585781600c6000600a60009054906101000a900473ffffffffffffffffffffffffffffffffffffffff1673ffffffffffffffffffffffffffffffffffffffff1673ffffffffffffffffffffffffffffffffffffffff168152602001908152602001600020828154811061283d5761283c614fa2565b5b90600052602060002001541415612a4557600c6000600a60009054906101000a900473ffffffffffffffffffffffffffffffffffffffff1673ffffffffffffffffffffffffffffffffffffffff1673ffffffffffffffffffffffffffffffffffffffff1681526020019081526020016000206001600c6000600a60009054906101000a900473ffffffffffffffffffffffffffffffffffffffff1673ffffffffffffffffffffffffffffffffffffffff1673ffffffffffffffffffffffffffffffffffffffff168152602001908152602001600020805490506129209190614d03565b8154811061293157612930614fa2565b5b9060005260206000200154600c6000600a60009054906101000a900473ffffffffffffffffffffffffffffffffffffffff1673ffffffffffffffffffffffffffffffffffffffff1673ffffffffffffffffffffffffffffffffffffffff16815260200190815260200160002082815481106129af576129ae614fa2565b5b9060005260206000200181905550600c6000600a60009054906101000a900473ffffffffffffffffffffffffffffffffffffffff1673ffffffffffffffffffffffffffffffffffffffff1673ffffffffffffffffffffffffffffffffffffffff168152602001908152602001600020805480612a2e57612a2d614f73565b5b600190038181906000526020600020016000905590555b8080612a5090614e62565b91505061275d565b50612a86600a60009054906101000a900473ffffffffffffffffffffffffffffffffffffffff163383612d02565b8091505090565b60007f01ffc9a7000000000000000000000000000000000000000000000000000000007bffffffffffffffffffffffffffffffffffffffffffffffffffffffff1916827bffffffffffffffffffffffffffffffffffffffffffffffffffffffff1916149050919050565b60008073ffffffffffffffffffffffffffffffffffffffff166002600084815260200190815260200160002060009054906101000a900473ffffffffffffffffffffffffffffffffffffffff1673ffffffffffffffffffffffffffffffffffffffff1614159050919050565b600033905090565b816004600083815260200190815260200160002060006101000a81548173ffffffffffffffffffffffffffffffffffffffff021916908373ffffffffffffffffffffffffffffffffffffffff160217905550808273ffffffffffffffffffffffffffffffffffffffff16612bde83610e1c565b73ffffffffffffffffffffffffffffffffffffffff167f8c5be1e5ebec7d5bd14f71427d1e84f3dd0314c0f7b2291e5b200ac8c7c3b92560405160405180910390a45050565b6000612c2f82612af7565b612c6e576040517f08c379a0000000000000000000000000000000000000000000000000000000008152600401612c65906146b4565b60405180910390fd5b6000612c7983610e1c565b90508073ffffffffffffffffffffffffffffffffffffffff168473ffffffffffffffffffffffffffffffffffffffff161480612ce857508373ffffffffffffffffffffffffffffffffffffffff16612cd084610911565b73ffffffffffffffffffffffffffffffffffffffff16145b80612cf95750612cf88185612120565b5b91505092915050565b8273ffffffffffffffffffffffffffffffffffffffff16612d2282610e1c565b73ffffffffffffffffffffffffffffffffffffffff1614612d78576040517f08c379a0000000000000000000000000000000000000000000000000000000008152600401612d6f906147d4565b60405180910390fd5b600073ffffffffffffffffffffffffffffffffffffffff168273ffffffffffffffffffffffffffffffffffffffff161415612de8576040517f08c379a0000000000000000000000000000000000000000000000000000000008152600401612ddf90614674565b60405180910390fd5b612df383838361329b565b612dfe600082612b6b565b6001600360008573ffffffffffffffffffffffffffffffffffffffff1673ffffffffffffffffffffffffffffffffffffffff1681526020019081526020016000206000828254612e4e9190614d03565b925050819055506001600360008473ffffffffffffffffffffffffffffffffffffffff1673ffffffffffffffffffffffffffffffffffffffff1681526020019081526020016000206000828254612ea59190614ab1565b92505081905550816002600083815260200190815260200160002060006101000a81548173ffffffffffffffffffffffffffffffffffffffff021916908373ffffffffffffffffffffffffffffffffffffffff160217905550808273ffffffffffffffffffffffffffffffffffffffff168473ffffffffffffffffffffffffffffffffffffffff167fddf252ad1be2c89b69c2b068fc378daa952ba7f163c4a11628f55a4df523b3ef60405160405180910390a4505050565b6001816000016000828254019250508190555050565b600081600001549050919050565b612f9c8282604051806020016040528060008152506132a0565b5050565b612fa982612af7565b612fe8576040517f08c379a0000000000000000000000000000000000000000000000000000000008152600401612fdf90614734565b60405180910390fd5b8060066000848152602001908152602001600020908051906020019061300f929190613849565b505050565b8173ffffffffffffffffffffffffffffffffffffffff168373ffffffffffffffffffffffffffffffffffffffff161415613083576040517f08c379a000000000000000000000000000000000000000000000000000000000815260040161307a90614694565b60405180910390fd5b80600560008573ffffffffffffffffffffffffffffffffffffffff1673ffffffffffffffffffffffffffffffffffffffff16815260200190815260200160002060008473ffffffffffffffffffffffffffffffffffffffff1673ffffffffffffffffffffffffffffffffffffffff16815260200190815260200160002060006101000a81548160ff0219169083151502179055508173ffffffffffffffffffffffffffffffffffffffff168373ffffffffffffffffffffffffffffffffffffffff167f17307eab39ab6107e8899845ad3d59bd9653f200f220920489ca2b5937696c318360405161317491906145f7565b60405180910390a3505050565b61318c848484612d02565b613198848484846132fb565b6131d7576040517f08c379a00000000000000000000000000000000000000000000000000000000081526004016131ce90614634565b60405180910390fd5b50505050565b606060405180602001604052806000815250905090565b60606131ff82612af7565b61323e576040517f08c379a0000000000000000000000000000000000000000000000000000000008152600401613235906147f4565b60405180910390fd5b60006132486131dd565b905060008151116132685760405180602001604052806000815250613293565b8061327284613492565b6040516020016132839291906144e1565b6040516020818303038152906040525b915050919050565b505050565b6132aa83836135f3565b6132b760008484846132fb565b6132f6576040517f08c379a00000000000000000000000000000000000000000000000000000000081526004016132ed90614634565b60405180910390fd5b505050565b600061331c8473ffffffffffffffffffffffffffffffffffffffff166137c1565b15613485578373ffffffffffffffffffffffffffffffffffffffff1663150b7a02613345612b63565b8786866040518563ffffffff1660e01b81526004016133679493929190614567565b602060405180830381600087803b15801561338157600080fd5b505af19250505080156133b257506040513d601f19601f820116820180604052508101906133af9190613e11565b60015b613435573d80600081146133e2576040519150601f19603f3d011682016040523d82523d6000602084013e6133e7565b606091505b5060008151141561342d576040517f08c379a000000000000000000000000000000000000000000000000000000000815260040161342490614634565b60405180910390fd5b805181602001fd5b63150b7a0260e01b7bffffffffffffffffffffffffffffffffffffffffffffffffffffffff1916817bffffffffffffffffffffffffffffffffffffffffffffffffffffffff19161491505061348a565b600190505b949350505050565b606060008214156134da576040518060400160405280600181526020017f300000000000000000000000000000000000000000000000000000000000000081525090506135ee565b600082905060005b6000821461350c5780806134f590614e62565b915050600a826135059190614b07565b91506134e2565b60008167ffffffffffffffff81111561352857613527614fd1565b5b6040519080825280601f01601f19166020018201604052801561355a5781602001600182028036833780820191505090505b5090505b600085146135e7576001826135739190614d03565b9150600a856135829190614eb5565b603061358e9190614ab1565b60f81b8183815181106135a4576135a3614fa2565b5b60200101907effffffffffffffffffffffffffffffffffffffffffffffffffffffffffffff1916908160001a905350600a856135e09190614b07565b945061355e565b8093505050505b919050565b600073ffffffffffffffffffffffffffffffffffffffff168273ffffffffffffffffffffffffffffffffffffffff161415613663576040517f08c379a000000000000000000000000000000000000000000000000000000000815260040161365a90614774565b60405180910390fd5b61366c81612af7565b156136ac576040517f08c379a00000000000000000000000000000000000000000000000000000000081526004016136a390614654565b60405180910390fd5b6136b86000838361329b565b6001600360008473ffffffffffffffffffffffffffffffffffffffff1673ffffffffffffffffffffffffffffffffffffffff16815260200190815260200160002060008282546137089190614ab1565b92505081905550816002600083815260200190815260200160002060006101000a81548173ffffffffffffffffffffffffffffffffffffffff021916908373ffffffffffffffffffffffffffffffffffffffff160217905550808273ffffffffffffffffffffffffffffffffffffffff16600073ffffffffffffffffffffffffffffffffffffffff167fddf252ad1be2c89b69c2b068fc378daa952ba7f163c4a11628f55a4df523b3ef60405160405180910390a45050565b600080823b905060008111915050919050565b6040518060200160405280600081525090565b6040518060c00160405280600081526020016000815260200160608152602001600073ffffffffffffffffffffffffffffffffffffffff168152602001600073ffffffffffffffffffffffffffffffffffffffff168152602001600081525090565b82805461385590614dff565b90600052602060002090601f01602090048101928261387757600085556138be565b82601f1061389057805160ff19168380011785556138be565b828001600101855582156138be579182015b828111156138bd5782518255916020019190600101906138a2565b5b5090506138cb91906138cf565b5090565b5b808211156138e85760008160009055506001016138d0565b5090565b60006138ff6138fa84614931565b61490c565b9050808382526020820190508285602086028201111561392257613921615005565b5b60005b8581101561397057813567ffffffffffffffff81111561394857613947615000565b5b8086016139558982613b4c565b85526020850194506020840193505050600181019050613925565b5050509392505050565b600061398d6139888461495d565b61490c565b905080838252602082019050828560208602820111156139b0576139af615005565b5b60005b858110156139e057816139c68882613b7a565b8452602084019350602083019250506001810190506139b3565b5050509392505050565b60006139fd6139f884614989565b61490c565b905082815260208101848484011115613a1957613a1861500a565b5b613a24848285614dbd565b509392505050565b6000613a3f613a3a846149ba565b61490c565b905082815260208101848484011115613a5b57613a5a61500a565b5b613a66848285614dbd565b509392505050565b600081359050613a7d8161557f565b92915050565b600082601f830112613a9857613a97615000565b5b8135613aa88482602086016138ec565b91505092915050565b600082601f830112613ac657613ac5615000565b5b8135613ad684826020860161397a565b91505092915050565b600081359050613aee81615596565b92915050565b600081359050613b03816155ad565b92915050565b600081519050613b18816155ad565b92915050565b600082601f830112613b3357613b32615000565b5b8135613b438482602086016139ea565b91505092915050565b600082601f830112613b6157613b60615000565b5b8135613b71848260208601613a2c565b91505092915050565b600081359050613b89816155c4565b92915050565b600060208284031215613ba557613ba4615014565b5b6000613bb384828501613a6e565b91505092915050565b60008060408385031215613bd357613bd2615014565b5b6000613be185828601613a6e565b9250506020613bf285828601613a6e565b9150509250929050565b600080600060608486031215613c1557613c14615014565b5b6000613c2386828701613a6e565b9350506020613c3486828701613a6e565b9250506040613c4586828701613b7a565b9150509250925092565b60008060008060808587031215613c6957613c68615014565b5b6000613c7787828801613a6e565b9450506020613c8887828801613a6e565b9350506040613c9987828801613b7a565b925050606085013567ffffffffffffffff811115613cba57613cb961500f565b5b613cc687828801613b1e565b91505092959194509250565b60008060408385031215613ce957613ce8615014565b5b6000613cf785828601613a6e565b9250506020613d0885828601613adf565b9150509250929050565b60008060408385031215613d2957613d28615014565b5b6000613d3785828601613a6e565b9250506020613d4885828601613b7a565b9150509250929050565b600060208284031215613d6857613d67615014565b5b600082013567ffffffffffffffff811115613d8657613d8561500f565b5b613d9284828501613a83565b91505092915050565b600060208284031215613db157613db0615014565b5b600082013567ffffffffffffffff811115613dcf57613dce61500f565b5b613ddb84828501613ab1565b91505092915050565b600060208284031215613dfa57613df9615014565b5b6000613e0884828501613af4565b91505092915050565b600060208284031215613e2757613e26615014565b5b6000613e3584828501613b09565b91505092915050565b600060208284031215613e5457613e53615014565b5b6000613e6284828501613b7a565b91505092915050565b60008060408385031215613e8257613e81615014565b5b6000613e9085828601613b7a565b9250506020613ea185828601613b7a565b9150509250929050565b6000613eb7838361439a565b905092915050565b6000613ecb83836144ac565b60208301905092915050565b613ee081614d49565b82525050565b613eef81614d49565b82525050565b613efe81614d37565b82525050565b6000613f0f82614a0b565b613f198185614a51565b935083602082028501613f2b856149eb565b8060005b85811015613f675784840389528151613f488582613eab565b9450613f5383614a37565b925060208a01995050600181019050613f2f565b50829750879550505050505092915050565b6000613f8482614a16565b613f8e8185614a62565b9350613f99836149fb565b8060005b83811015613fca578151613fb18882613ebf565b9750613fbc83614a44565b925050600181019050613f9d565b5085935050505092915050565b613fe081614d5b565b82525050565b6000613ff182614a21565b613ffb8185614a73565b935061400b818560208601614dcc565b61401481615019565b840191505092915050565b600061402a82614a2c565b6140348185614a84565b9350614044818560208601614dcc565b61404d81615019565b840191505092915050565b600061406382614a2c565b61406d8185614a95565b935061407d818560208601614dcc565b61408681615019565b840191505092915050565b600061409c82614a2c565b6140a68185614aa6565b93506140b6818560208601614dcc565b80840191505092915050565b60006140cf603283614a95565b91506140da82615037565b604082019050919050565b60006140f2601c83614a95565b91506140fd82615086565b602082019050919050565b6000614115602483614a95565b9150614120826150af565b604082019050919050565b6000614138601983614a95565b9150614143826150fe565b602082019050919050565b600061415b602c83614a95565b915061416682615127565b604082019050919050565b600061417e603883614a95565b915061418982615176565b604082019050919050565b60006141a1602a83614a95565b91506141ac826151c5565b604082019050919050565b60006141c4602983614a95565b91506141cf82615214565b604082019050919050565b60006141e7602e83614a95565b91506141f282615263565b604082019050919050565b600061420a604083614a95565b9150614215826152b2565b604082019050919050565b600061422d602083614a95565b915061423882615301565b602082019050919050565b6000614250603183614a95565b915061425b8261532a565b604082019050919050565b6000614273602c83614a95565b915061427e82615379565b604082019050919050565b6000614296602983614a95565b91506142a1826153c8565b604082019050919050565b60006142b9602f83614a95565b91506142c482615417565b604082019050919050565b60006142dc602183614a95565b91506142e782615466565b604082019050919050565b60006142ff600983614a95565b915061430a826154b5565b602082019050919050565b6000614322603183614a95565b915061432d826154de565b604082019050919050565b6000614345601c83614a95565b91506143508261552d565b602082019050919050565b6000614368600c83614a95565b915061437382615556565b602082019050919050565b60208201600082015161439460008501826144ac565b50505050565b600060c0830160008301516143b260008601826144ac565b5060208301516143c560208601826144ac565b50604083015184820360408601526143dd828261401f565b91505060608301516143f26060860182613ed7565b5060808301516144056080860182613ed7565b5060a083015161441860a08601826144ac565b508091505092915050565b600060c08301600083015161443b60008601826144ac565b50602083015161444e60208601826144ac565b5060408301518482036040860152614466828261401f565b915050606083015161447b6060860182613ed7565b50608083015161448e6080860182613ed7565b5060a08301516144a160a08601826144ac565b508091505092915050565b6144b581614db3565b82525050565b6144c481614db3565b82525050565b6144db6144d682614db3565b614eab565b82525050565b60006144ed8285614091565b91506144f98284614091565b91508190509392505050565b600061451182856144ca565b60208201915061452182846144ca565b6020820191508190509392505050565b60006020820190506145466000830184613ef5565b92915050565b60006020820190506145616000830184613ee6565b92915050565b600060808201905061457c6000830187613ef5565b6145896020830186613ef5565b61459660408301856144bb565b81810360608301526145a88184613fe6565b905095945050505050565b600060208201905081810360008301526145cd8184613f04565b905092915050565b600060208201905081810360008301526145ef8184613f79565b905092915050565b600060208201905061460c6000830184613fd7565b92915050565b6000602082019050818103600083015261462c8184614058565b905092915050565b6000602082019050818103600083015261464d816140c2565b9050919050565b6000602082019050818103600083015261466d816140e5565b9050919050565b6000602082019050818103600083015261468d81614108565b9050919050565b600060208201905081810360008301526146ad8161412b565b9050919050565b600060208201905081810360008301526146cd8161414e565b9050919050565b600060208201905081810360008301526146ed81614171565b9050919050565b6000602082019050818103600083015261470d81614194565b9050919050565b6000602082019050818103600083015261472d816141b7565b9050919050565b6000602082019050818103600083015261474d816141da565b9050919050565b6000602082019050818103600083015261476d816141fd565b9050919050565b6000602082019050818103600083015261478d81614220565b9050919050565b600060208201905081810360008301526147ad81614243565b9050919050565b600060208201905081810360008301526147cd81614266565b9050919050565b600060208201905081810360008301526147ed81614289565b9050919050565b6000602082019050818103600083015261480d816142ac565b9050919050565b6000602082019050818103600083015261482d816142cf565b9050919050565b6000602082019050818103600083015261484d816142f2565b9050919050565b6000602082019050818103600083015261486d81614315565b9050919050565b6000602082019050818103600083015261488d81614338565b9050919050565b600060208201905081810360008301526148ad8161435b565b9050919050565b60006020820190506148c9600083018461437e565b92915050565b600060208201905081810360008301526148e98184614423565b905092915050565b600060208201905061490660008301846144bb565b92915050565b6000614916614927565b90506149228282614e31565b919050565b6000604051905090565b600067ffffffffffffffff82111561494c5761494b614fd1565b5b602082029050602081019050919050565b600067ffffffffffffffff82111561497857614977614fd1565b5b602082029050602081019050919050565b600067ffffffffffffffff8211156149a4576149a3614fd1565b5b6149ad82615019565b9050602081019050919050565b600067ffffffffffffffff8211156149d5576149d4614fd1565b5b6149de82615019565b9050602081019050919050565b6000819050602082019050919050565b6000819050602082019050919050565b600081519050919050565b600081519050919050565b600081519050919050565b600081519050919050565b6000602082019050919050565b6000602082019050919050565b600082825260208201905092915050565b600082825260208201905092915050565b600082825260208201905092915050565b600082825260208201905092915050565b600082825260208201905092915050565b600081905092915050565b6000614abc82614db3565b9150614ac783614db3565b9250827fffffffffffffffffffffffffffffffffffffffffffffffffffffffffffffffff03821115614afc57614afb614ee6565b5b828201905092915050565b6000614b1282614db3565b9150614b1d83614db3565b925082614b2d57614b2c614f15565b5b828204905092915050565b6000808291508390505b6001851115614b8257808604811115614b5e57614b5d614ee6565b5b6001851615614b6d5780820291505b8081029050614b7b8561502a565b9450614b42565b94509492505050565b6000614b9682614db3565b9150614ba183614db3565b9250614bce7fffffffffffffffffffffffffffffffffffffffffffffffffffffffffffffffff8484614bd6565b905092915050565b600082614be65760019050614ca2565b81614bf45760009050614ca2565b8160018114614c0a5760028114614c1457614c43565b6001915050614ca2565b60ff841115614c2657614c25614ee6565b5b8360020a915084821115614c3d57614c3c614ee6565b5b50614ca2565b5060208310610133831016604e8410600b8410161715614c785782820a905083811115614c7357614c72614ee6565b5b614ca2565b614c858484846001614b38565b92509050818404811115614c9c57614c9b614ee6565b5b81810290505b9392505050565b6000614cb482614db3565b9150614cbf83614db3565b9250817fffffffffffffffffffffffffffffffffffffffffffffffffffffffffffffffff0483118215151615614cf857614cf7614ee6565b5b828202905092915050565b6000614d0e82614db3565b9150614d1983614db3565b925082821015614d2c57614d2b614ee6565b5b828203905092915050565b6000614d4282614d93565b9050919050565b6000614d5482614d93565b9050919050565b60008115159050919050565b60007fffffffff0000000000000000000000000000000000000000000000000000000082169050919050565b600073ffffffffffffffffffffffffffffffffffffffff82169050919050565b6000819050919050565b82818337600083830152505050565b60005b83811015614dea578082015181840152602081019050614dcf565b83811115614df9576000848401525b50505050565b60006002820490506001821680614e1757607f821691505b60208210811415614e2b57614e2a614f44565b5b50919050565b614e3a82615019565b810181811067ffffffffffffffff82111715614e5957614e58614fd1565b5b80604052505050565b6000614e6d82614db3565b91507fffffffffffffffffffffffffffffffffffffffffffffffffffffffffffffffff821415614ea057614e9f614ee6565b5b600182019050919050565b6000819050919050565b6000614ec082614db3565b9150614ecb83614db3565b925082614edb57614eda614f15565b5b828206905092915050565b7f4e487b7100000000000000000000000000000000000000000000000000000000600052601160045260246000fd5b7f4e487b7100000000000000000000000000000000000000000000000000000000600052601260045260246000fd5b7f4e487b7100000000000000000000000000000000000000000000000000000000600052602260045260246000fd5b7f4e487b7100000000000000000000000000000000000000000000000000000000600052603160045260246000fd5b7f4e487b7100000000000000000000000000000000000000000000000000000000600052603260045260246000fd5b7f4e487b7100000000000000000000000000000000000000000000000000000000600052604160045260246000fd5b600080fd5b600080fd5b600080fd5b600080fd5b600080fd5b6000601f19601f8301169050919050565b60008160011c9050919050565b7f4552433732313a207472616e7366657220746f206e6f6e20455243373231526560008201527f63656976657220696d706c656d656e7465720000000000000000000000000000602082015250565b7f4552433732313a20746f6b656e20616c7265616479206d696e74656400000000600082015250565b7f4552433732313a207472616e7366657220746f20746865207a65726f2061646460008201527f7265737300000000000000000000000000000000000000000000000000000000602082015250565b7f4552433732313a20617070726f766520746f2063616c6c657200000000000000600082015250565b7f4552433732313a206f70657261746f7220717565727920666f72206e6f6e657860008201527f697374656e7420746f6b656e0000000000000000000000000000000000000000602082015250565b7f4552433732313a20617070726f76652063616c6c6572206973206e6f74206f7760008201527f6e6572206e6f7220617070726f76656420666f7220616c6c0000000000000000602082015250565b7f4552433732313a2062616c616e636520717565727920666f7220746865207a6560008201527f726f206164647265737300000000000000000000000000000000000000000000602082015250565b7f4552433732313a206f776e657220717565727920666f72206e6f6e657869737460008201527f656e7420746f6b656e0000000000000000000000000000000000000000000000602082015250565b7f45524337323155524953746f726167653a2055524920736574206f66206e6f6e60008201527f6578697374656e7420746f6b656e000000000000000000000000000000000000602082015250565b7f506c65617365207375626d6974207468652061736b696e67207072696365206960008201527f6e206f7264657220746f20636f6d706c65746520746865207075726368617365602082015250565b7f4552433732313a206d696e7420746f20746865207a65726f2061646472657373600082015250565b7f45524337323155524953746f726167653a2055524920717565727920666f722060008201527f6e6f6e6578697374656e7420746f6b656e000000000000000000000000000000602082015250565b7f4552433732313a20617070726f76656420717565727920666f72206e6f6e657860008201527f697374656e7420746f6b656e0000000000000000000000000000000000000000602082015250565b7f4552433732313a207472616e73666572206f6620746f6b656e2074686174206960008201527f73206e6f74206f776e0000000000000000000000000000000000000000000000602082015250565b7f4552433732314d657461646174613a2055524920717565727920666f72206e6f60008201527f6e6578697374656e7420746f6b656e0000000000000000000000000000000000602082015250565b7f4552433732313a20617070726f76616c20746f2063757272656e74206f776e6560008201527f7200000000000000000000000000000000000000000000000000000000000000602082015250565b7f4e6f74206f776e65720000000000000000000000000000000000000000000000600082015250565b7f4552433732313a207472616e736665722063616c6c6572206973206e6f74206f60008201527f776e6572206e6f7220617070726f766564000000000000000000000000000000602082015250565b7f5072696365206d757374206265206174206c6561737420312077656900000000600082015250565b7f4d4f4e45592055204b4f4e570000000000000000000000000000000000000000600082015250565b61558881614d37565b811461559357600080fd5b50565b61559f81614d5b565b81146155aa57600080fd5b50565b6155b681614d67565b81146155c157600080fd5b50565b6155cd81614db3565b81146155d857600080fd5b5056fea2646970667358221220169b4a644d2d0971d1af901d3ae969f8b9cb0b8e4225f5b7510d9eda60d308ce64736f6c63430008050033",
  "linkReferences": {},
  "deployedLinkReferences": {}
}