{
  "_format": "hh-sol-artifact-1",
  "contractName": "WileCard",
  "sourceName": "contracts/Card.sol",
  "abi": [
    {
      "inputs": [],
      "stateMutability": "nonpayable",
      "type": "constructor"
    },
    {
      "anonymous": false,
      "inputs": [
        {
          "indexed": true,
          "internalType": "address",
          "name": "owner",
          "type": "address"
        },
        {
          "indexed": true,
          "internalType": "address",
          "name": "approved",
          "type": "address"
        },
        {
          "indexed": true,
          "internalType": "uint256",
          "name": "tokenId",
          "type": "uint256"
        }
      ],
      "name": "Approval",
      "type": "event"
    },
    {
      "anonymous": false,
      "inputs": [
        {
          "indexed": true,
          "internalType": "address",
          "name": "owner",
          "type": "address"
        },
        {
          "indexed": true,
          "internalType": "address",
          "name": "operator",
          "type": "address"
        },
        {
          "indexed": false,
          "internalType": "bool",
          "name": "approved",
          "type": "bool"
        }
      ],
      "name": "ApprovalForAll",
      "type": "event"
    },
    {
      "anonymous": false,
      "inputs": [
        {
          "indexed": true,
          "internalType": "address",
          "name": "from",
          "type": "address"
        },
        {
          "indexed": true,
          "internalType": "address",
          "name": "to",
          "type": "address"
        },
        {
          "indexed": true,
          "internalType": "uint256",
          "name": "tokenId",
          "type": "uint256"
        }
      ],
      "name": "Transfer",
      "type": "event"
    },
    {
      "inputs": [],
      "name": "Owner",
      "outputs": [
        {
          "internalType": "address payable",
          "name": "",
          "type": "address"
        }
      ],
      "stateMutability": "view",
      "type": "function"
    },
    {
      "inputs": [
        {
          "internalType": "address",
          "name": "to",
          "type": "address"
        },
        {
          "internalType": "uint256",
          "name": "tokenId",
          "type": "uint256"
        }
      ],
      "name": "approve",
      "outputs": [],
      "stateMutability": "nonpayable",
      "type": "function"
    },
    {
      "inputs": [
        {
          "internalType": "address",
          "name": "owner",
          "type": "address"
        }
      ],
      "name": "balanceOf",
      "outputs": [
        {
          "internalType": "uint256",
          "name": "",
          "type": "uint256"
        }
      ],
      "stateMutability": "view",
      "type": "function"
    },
    {
      "inputs": [
        {
          "internalType": "uint256",
          "name": "_fee",
          "type": "uint256"
        }
      ],
      "name": "changeFee",
      "outputs": [
        {
          "internalType": "uint256",
          "name": "",
          "type": "uint256"
        }
      ],
      "stateMutability": "nonpayable",
      "type": "function"
    },
    {
      "inputs": [],
      "name": "deposit",
      "outputs": [
        {
          "internalType": "uint256",
          "name": "",
          "type": "uint256"
        }
      ],
      "stateMutability": "payable",
      "type": "function"
    },
    {
      "inputs": [],
      "name": "deposits",
      "outputs": [
        {
          "internalType": "uint256",
          "name": "",
          "type": "uint256"
        }
      ],
      "stateMutability": "view",
      "type": "function"
    },
    {
      "inputs": [
        {
          "internalType": "uint256",
          "name": "tokenId",
          "type": "uint256"
        }
      ],
      "name": "getApproved",
      "outputs": [
        {
          "internalType": "address",
          "name": "",
          "type": "address"
        }
      ],
      "stateMutability": "view",
      "type": "function"
    },
    {
      "inputs": [],
      "name": "getBalance",
      "outputs": [
        {
          "internalType": "uint256",
          "name": "",
          "type": "uint256"
        }
      ],
      "stateMutability": "view",
      "type": "function"
    },
    {
      "inputs": [],
      "name": "getUserToken",
      "outputs": [
        {
          "internalType": "uint256[]",
          "name": "",
          "type": "uint256[]"
        }
      ],
      "stateMutability": "view",
      "type": "function"
    },
    {
      "inputs": [
        {
          "internalType": "address",
          "name": "sender",
          "type": "address"
        }
      ],
      "name": "getUserTokenWithAddress",
      "outputs": [
        {
          "internalType": "uint256[]",
          "name": "",
          "type": "uint256[]"
        }
      ],
      "stateMutability": "view",
      "type": "function"
    },
    {
      "inputs": [
        {
          "internalType": "address",
          "name": "owner",
          "type": "address"
        },
        {
          "internalType": "address",
          "name": "operator",
          "type": "address"
        }
      ],
      "name": "isApprovedForAll",
      "outputs": [
        {
          "internalType": "bool",
          "name": "",
          "type": "bool"
        }
      ],
      "stateMutability": "view",
      "type": "function"
    },
    {
      "inputs": [
        {
          "internalType": "string",
          "name": "tokenURI",
          "type": "string"
        }
      ],
      "name": "mintNFT",
      "outputs": [
        {
          "internalType": "uint256",
          "name": "",
          "type": "uint256"
        }
      ],
      "stateMutability": "nonpayable",
      "type": "function"
    },
    {
      "inputs": [],
      "name": "name",
      "outputs": [
        {
          "internalType": "string",
          "name": "",
          "type": "string"
        }
      ],
      "stateMutability": "view",
      "type": "function"
    },
    {
      "inputs": [
        {
          "internalType": "uint256",
          "name": "tokenId",
          "type": "uint256"
        }
      ],
      "name": "ownerOf",
      "outputs": [
        {
          "internalType": "address",
          "name": "",
          "type": "address"
        }
      ],
      "stateMutability": "view",
      "type": "function"
    },
    {
      "inputs": [
        {
          "internalType": "uint256[]",
          "name": "_myArray",
          "type": "uint256[]"
        }
      ],
      "name": "random",
      "outputs": [
        {
          "internalType": "uint256[]",
          "name": "",
          "type": "uint256[]"
        }
      ],
      "stateMutability": "view",
      "type": "function"
    },
    {
      "inputs": [],
      "name": "randomNFT",
      "outputs": [
        {
          "internalType": "uint256",
          "name": "",
          "type": "uint256"
        }
      ],
      "stateMutability": "nonpayable",
      "type": "function"
    },
    {
      "inputs": [
        {
          "internalType": "address",
          "name": "from",
          "type": "address"
        },
        {
          "internalType": "address",
          "name": "to",
          "type": "address"
        },
        {
          "internalType": "uint256",
          "name": "tokenId",
          "type": "uint256"
        }
      ],
      "name": "safeTransferFrom",
      "outputs": [],
      "stateMutability": "nonpayable",
      "type": "function"
    },
    {
      "inputs": [
        {
          "internalType": "address",
          "name": "from",
          "type": "address"
        },
        {
          "internalType": "address",
          "name": "to",
          "type": "address"
        },
        {
          "internalType": "uint256",
          "name": "tokenId",
          "type": "uint256"
        },
        {
          "internalType": "bytes",
          "name": "_data",
          "type": "bytes"
        }
      ],
      "name": "safeTransferFrom",
      "outputs": [],
      "stateMutability": "nonpayable",
      "type": "function"
    },
    {
      "inputs": [
        {
          "internalType": "address",
          "name": "operator",
          "type": "address"
        },
        {
          "internalType": "bool",
          "name": "approved",
          "type": "bool"
        }
      ],
      "name": "setApprovalForAll",
      "outputs": [],
      "stateMutability": "nonpayable",
      "type": "function"
    },
    {
      "inputs": [
        {
          "internalType": "bytes4",
          "name": "interfaceId",
          "type": "bytes4"
        }
      ],
      "name": "supportsInterface",
      "outputs": [
        {
          "internalType": "bool",
          "name": "",
          "type": "bool"
        }
      ],
      "stateMutability": "view",
      "type": "function"
    },
    {
      "inputs": [],
      "name": "symbol",
      "outputs": [
        {
          "internalType": "string",
          "name": "",
          "type": "string"
        }
      ],
      "stateMutability": "view",
      "type": "function"
    },
    {
      "inputs": [
        {
          "internalType": "uint256",
          "name": "tokenId",
          "type": "uint256"
        }
      ],
      "name": "tokenURI",
      "outputs": [
        {
          "internalType": "string",
          "name": "",
          "type": "string"
        }
      ],
      "stateMutability": "view",
      "type": "function"
    },
    {
      "inputs": [],
      "name": "totalSupply",
      "outputs": [
        {
          "components": [
            {
              "internalType": "uint256",
              "name": "_value",
              "type": "uint256"
            }
          ],
          "internalType": "struct Counters.Counter",
          "name": "",
          "type": "tuple"
        }
      ],
      "stateMutability": "view",
      "type": "function"
    },
    {
      "inputs": [
        {
          "internalType": "address",
          "name": "from",
          "type": "address"
        },
        {
          "internalType": "address",
          "name": "to",
          "type": "address"
        },
        {
          "internalType": "uint256",
          "name": "tokenId",
          "type": "uint256"
        }
      ],
      "name": "transferFrom",
      "outputs": [],
      "stateMutability": "nonpayable",
      "type": "function"
    },
    {
      "inputs": [
        {
          "internalType": "address",
          "name": "from",
          "type": "address"
        },
        {
          "internalType": "address",
          "name": "to",
          "type": "address"
        },
        {
          "internalType": "uint256",
          "name": "tokenId",
          "type": "uint256"
        }
      ],
      "name": "transferNFT",
      "outputs": [],
      "stateMutability": "nonpayable",
      "type": "function"
    },
    {
      "inputs": [
        {
          "internalType": "address",
          "name": "",
          "type": "address"
        },
        {
          "internalType": "uint256",
          "name": "",
          "type": "uint256"
        }
      ],
      "name": "userOwnedTokens",
      "outputs": [
        {
          "internalType": "uint256",
          "name": "",
          "type": "uint256"
        }
      ],
      "stateMutability": "view",
      "type": "function"
    },
    {
      "inputs": [
        {
          "internalType": "uint256",
          "name": "_amount",
          "type": "uint256"
        }
      ],
      "name": "withdraw",
      "outputs": [],
      "stateMutability": "nonpayable",
      "type": "function"
    }
  ],
  "bytecode": "0x6080604052600060085560006009556008600b553480156200002057600080fd5b506040518060400160405280600881526020017f57696c65436172640000000000000000000000000000000000000000000000008152506040518060400160405280600481526020017f57696c65000000000000000000000000000000000000000000000000000000008152508160009080519060200190620000a592919062000108565b508060019080519060200190620000be92919062000108565b50505033600a60006101000a81548173ffffffffffffffffffffffffffffffffffffffff021916908373ffffffffffffffffffffffffffffffffffffffff1602179055506200021d565b8280546200011690620001b8565b90600052602060002090601f0160209004810192826200013a576000855562000186565b82601f106200015557805160ff191683800117855562000186565b8280016001018555821562000186579182015b828111156200018557825182559160200191906001019062000168565b5b50905062000195919062000199565b5090565b5b80821115620001b45760008160009055506001016200019a565b5090565b60006002820490506001821680620001d157607f821691505b60208210811415620001e857620001e7620001ee565b5b50919050565b7f4e487b7100000000000000000000000000000000000000000000000000000000600052602260045260246000fd5b6142cd806200022d6000396000f3fe60806040526004361061019c5760003560e01c80636a1db1bf116100ec578063b88d4fde1161008a578063e546b9a311610064578063e546b9a314610605578063e985e9c514610630578063ece6b21f1461066d578063fb37e883146106985761019c565b8063b88d4fde14610581578063c87b56dd146105aa578063d0e30db0146105e75761019c565b80639e483815116100c65780639e483815146104b3578063a09e3367146104f0578063a22cb4651461052d578063b4a99a4e146105565761019c565b80636a1db1bf1461040e57806370a082311461044b57806395d89b41146104885761019c565b806318160ddd11610159578063323a5e0b11610133578063323a5e0b1461035457806342842e0e1461037f5780636352211e146103a857806369e9cae1146103e55761019c565b806318160ddd146102d757806323b872dd146103025780632e1a7d4d1461032b5761019c565b806301ffc9a7146101a157806306fdde03146101de578063081812fc14610209578063095ea7b31461024657806312065fe01461026f57806314b924e21461029a575b600080fd5b3480156101ad57600080fd5b506101c860048036038101906101c39190612e32565b6106d5565b6040516101d59190613403565b60405180910390f35b3480156101ea57600080fd5b506101f36107b7565b604051610200919061341e565b60405180910390f35b34801561021557600080fd5b50610230600480360381019061022b9190612ed5565b610849565b60405161023d919061335f565b60405180910390f35b34801561025257600080fd5b5061026d60048036038101906102689190612da9565b6108ce565b005b34801561027b57600080fd5b506102846109e6565b604051610291919061369b565b60405180910390f35b3480156102a657600080fd5b506102c160048036038101906102bc9190612da9565b6109ee565b6040516102ce919061369b565b60405180910390f35b3480156102e357600080fd5b506102ec610a1f565b6040516102f99190613680565b60405180910390f35b34801561030e57600080fd5b5061032960048036038101906103249190612c93565b610a43565b005b34801561033757600080fd5b50610352600480360381019061034d9190612ed5565b610aa3565b005b34801561036057600080fd5b50610369610b9f565b604051610376919061369b565b60405180910390f35b34801561038b57600080fd5b506103a660048036038101906103a19190612c93565b610ba5565b005b3480156103b457600080fd5b506103cf60048036038101906103ca9190612ed5565b610bc5565b6040516103dc919061335f565b60405180910390f35b3480156103f157600080fd5b5061040c60048036038101906104079190612c93565b610c77565b005b34801561041a57600080fd5b5061043560048036038101906104309190612ed5565b610f70565b604051610442919061369b565b60405180910390f35b34801561045757600080fd5b50610472600480360381019061046d9190612c26565b610f83565b60405161047f919061369b565b60405180910390f35b34801561049457600080fd5b5061049d61103b565b6040516104aa919061341e565b60405180910390f35b3480156104bf57600080fd5b506104da60048036038101906104d59190612c26565b6110cd565b6040516104e791906133e1565b60405180910390f35b3480156104fc57600080fd5b5061051760048036038101906105129190612de9565b611164565b60405161052491906133e1565b60405180910390f35b34801561053957600080fd5b50610554600480360381019061054f9190612d69565b6112bc565b005b34801561056257600080fd5b5061056b6112d2565b604051610578919061337a565b60405180910390f35b34801561058d57600080fd5b506105a860048036038101906105a39190612ce6565b6112f8565b005b3480156105b657600080fd5b506105d160048036038101906105cc9190612ed5565b61135a565b6040516105de919061341e565b60405180910390f35b6105ef6114ac565b6040516105fc919061369b565b60405180910390f35b34801561061157600080fd5b5061061a611510565b60405161062791906133e1565b60405180910390f35b34801561063c57600080fd5b5061065760048036038101906106529190612c53565b6115a5565b6040516106649190613403565b60405180910390f35b34801561067957600080fd5b50610682611639565b60405161068f919061369b565b60405180910390f35b3480156106a457600080fd5b506106bf60048036038101906106ba9190612e8c565b611b15565b6040516106cc919061369b565b60405180910390f35b60007f80ac58cd000000000000000000000000000000000000000000000000000000007bffffffffffffffffffffffffffffffffffffffffffffffffffffffff1916827bffffffffffffffffffffffffffffffffffffffffffffffffffffffff191614806107a057507f5b5e139f000000000000000000000000000000000000000000000000000000007bffffffffffffffffffffffffffffffffffffffffffffffffffffffff1916827bffffffffffffffffffffffffffffffffffffffffffffffffffffffff1916145b806107b057506107af82611c42565b5b9050919050565b6060600080546107c690613b33565b80601f01602080910402602001604051908101604052809291908181526020018280546107f290613b33565b801561083f5780601f106108145761010080835404028352916020019161083f565b820191906000526020600020905b81548152906001019060200180831161082257829003601f168201915b5050505050905090565b600061085482611cac565b610893576040517f08c379a000000000000000000000000000000000000000000000000000000000815260040161088a906135a0565b60405180910390fd5b6004600083815260200190815260200160002060009054906101000a900473ffffffffffffffffffffffffffffffffffffffff169050919050565b60006108d982610bc5565b90508073ffffffffffffffffffffffffffffffffffffffff168373ffffffffffffffffffffffffffffffffffffffff16141561094a576040517f08c379a000000000000000000000000000000000000000000000000000000000815260040161094190613600565b60405180910390fd5b8073ffffffffffffffffffffffffffffffffffffffff16610969611d18565b73ffffffffffffffffffffffffffffffffffffffff161480610998575061099781610992611d18565b6115a5565b5b6109d7576040517f08c379a00000000000000000000000000000000000000000000000000000000081526004016109ce906134e0565b60405180910390fd5b6109e18383611d20565b505050565b600047905090565b600c6020528160005260406000208181548110610a0a57600080fd5b90600052602060002001600091509150505481565b610a27612989565b6007604051806020016040529081600082015481525050905090565b610a54610a4e611d18565b82611dd9565b610a93576040517f08c379a0000000000000000000000000000000000000000000000000000000008152600401610a8a90613640565b60405180910390fd5b610a9e838383611eb7565b505050565b600a60009054906101000a900473ffffffffffffffffffffffffffffffffffffffff1673ffffffffffffffffffffffffffffffffffffffff163373ffffffffffffffffffffffffffffffffffffffff1614610b33576040517f08c379a0000000000000000000000000000000000000000000000000000000008152600401610b2a90613620565b60405180910390fd5b600a60009054906101000a900473ffffffffffffffffffffffffffffffffffffffff1673ffffffffffffffffffffffffffffffffffffffff166108fc829081150290604051600060405180830381858888f19350505050158015610b9b573d6000803e3d6000fd5b5050565b60085481565b610bc0838383604051806020016040528060008152506112f8565b505050565b6000806002600084815260200190815260200160002060009054906101000a900473ffffffffffffffffffffffffffffffffffffffff169050600073ffffffffffffffffffffffffffffffffffffffff168173ffffffffffffffffffffffffffffffffffffffff161415610c6e576040517f08c379a0000000000000000000000000000000000000000000000000000000008152600401610c6590613520565b60405180910390fd5b80915050919050565b610c88610c82611d18565b82611dd9565b610cc7576040517f08c379a0000000000000000000000000000000000000000000000000000000008152600401610cbe90613640565b60405180910390fd5b600c60008373ffffffffffffffffffffffffffffffffffffffff1673ffffffffffffffffffffffffffffffffffffffff16815260200190815260200160002081908060018154018082558091505060019003906000526020600020016000909190919091505560005b600c60008573ffffffffffffffffffffffffffffffffffffffff1673ffffffffffffffffffffffffffffffffffffffff16815260200190815260200160002080549050811015610f5f5781600c60008673ffffffffffffffffffffffffffffffffffffffff1673ffffffffffffffffffffffffffffffffffffffff1681526020019081526020016000208281548110610dcc57610dcb613cd6565b5b90600052602060002001541415610f4c57600c60008573ffffffffffffffffffffffffffffffffffffffff1673ffffffffffffffffffffffffffffffffffffffff1681526020019081526020016000206001600c60008773ffffffffffffffffffffffffffffffffffffffff1673ffffffffffffffffffffffffffffffffffffffff16815260200190815260200160002080549050610e6b9190613a37565b81548110610e7c57610e7b613cd6565b5b9060005260206000200154600c60008673ffffffffffffffffffffffffffffffffffffffff1673ffffffffffffffffffffffffffffffffffffffff1681526020019081526020016000208281548110610ed857610ed7613cd6565b5b9060005260206000200181905550600c60008573ffffffffffffffffffffffffffffffffffffffff1673ffffffffffffffffffffffffffffffffffffffff168152602001908152602001600020805480610f3557610f34613ca7565b5b600190038181906000526020600020016000905590555b8080610f5790613b96565b915050610d30565b50610f6b838383611eb7565b505050565b600081600b81905550600b549050919050565b60008073ffffffffffffffffffffffffffffffffffffffff168273ffffffffffffffffffffffffffffffffffffffff161415610ff4576040517f08c379a0000000000000000000000000000000000000000000000000000000008152600401610feb90613500565b60405180910390fd5b600360008373ffffffffffffffffffffffffffffffffffffffff1673ffffffffffffffffffffffffffffffffffffffff168152602001908152602001600020549050919050565b60606001805461104a90613b33565b80601f016020809104026020016040519081016040528092919081815260200182805461107690613b33565b80156110c35780601f10611098576101008083540402835291602001916110c3565b820191906000526020600020905b8154815290600101906020018083116110a657829003601f168201915b5050505050905090565b6060600c60008373ffffffffffffffffffffffffffffffffffffffff1673ffffffffffffffffffffffffffffffffffffffff16815260200190815260200160002080548060200260200160405190810160405280929190818152602001828054801561115857602002820191906000526020600020905b815481526020019060010190808311611144575b50505050509050919050565b606060008251905060008351905060005b818110156112ab5760006001844288858151811061119657611195613cd6565b5b60200260200101516040516020016111af929190613333565b6040516020818303038152906040528051906020012060001c6111d29190613be9565b6111dc91906137e5565b90506000866001836111ee9190613a37565b815181106111ff576111fe613cd6565b5b60200260200101519050866001866112179190613a37565b8151811061122857611227613cd6565b5b60200260200101518760018461123e9190613a37565b8151811061124f5761124e613cd6565b5b602002602001018181525050808760018761126a9190613a37565b8151811061127b5761127a613cd6565b5b6020026020010181815250506001856112949190613a37565b9450505080806112a390613b96565b915050611175565b506060849050809350505050919050565b6112ce6112c7611d18565b8383612113565b5050565b600a60009054906101000a900473ffffffffffffffffffffffffffffffffffffffff1681565b611309611303611d18565b83611dd9565b611348576040517f08c379a000000000000000000000000000000000000000000000000000000000815260040161133f90613640565b60405180910390fd5b61135484848484612280565b50505050565b606061136582611cac565b6113a4576040517f08c379a000000000000000000000000000000000000000000000000000000000815260040161139b90613580565b60405180910390fd5b60006006600084815260200190815260200160002080546113c490613b33565b80601f01602080910402602001604051908101604052809291908181526020018280546113f090613b33565b801561143d5780601f106114125761010080835404028352916020019161143d565b820191906000526020600020905b81548152906001019060200180831161142057829003601f168201915b50505050509050600061144e6122dc565b90506000815114156114645781925050506114a7565b60008251111561149957808260405160200161148192919061330f565b604051602081830303815290604052925050506114a7565b6114a2846122f3565b925050505b919050565b6000600b54600a6114bd91906138bf565b60016114c991906139dd565b341461150a576040517f08c379a000000000000000000000000000000000000000000000000000000000815260040161150190613660565b60405180910390fd5b34905090565b6060600c60003373ffffffffffffffffffffffffffffffffffffffff1673ffffffffffffffffffffffffffffffffffffffff16815260200190815260200160002080548060200260200160405190810160405280929190818152602001828054801561159b57602002820191906000526020600020905b815481526020019060010190808311611587575b5050505050905090565b6000600560008473ffffffffffffffffffffffffffffffffffffffff1673ffffffffffffffffffffffffffffffffffffffff16815260200190815260200160002060008373ffffffffffffffffffffffffffffffffffffffff1673ffffffffffffffffffffffffffffffffffffffff16815260200190815260200160002060009054906101000a900460ff16905092915050565b6000806116f4600c6000600a60009054906101000a900473ffffffffffffffffffffffffffffffffffffffff1673ffffffffffffffffffffffffffffffffffffffff1673ffffffffffffffffffffffffffffffffffffffff1681526020019081526020016000208054806020026020016040519081016040528092919081815260200182805480156116ea57602002820191906000526020600020905b8154815260200190600101908083116116d6575b5050505050611164565b60008151811061170757611706613cd6565b5b6020026020010151905061173d600a60009054906101000a900473ffffffffffffffffffffffffffffffffffffffff1682611dd9565b61177c576040517f08c379a000000000000000000000000000000000000000000000000000000000815260040161177390613640565b60405180910390fd5b600c60003373ffffffffffffffffffffffffffffffffffffffff1673ffffffffffffffffffffffffffffffffffffffff16815260200190815260200160002081908060018154018082558091505060019003906000526020600020016000909190919091505560005b600c6000600a60009054906101000a900473ffffffffffffffffffffffffffffffffffffffff1673ffffffffffffffffffffffffffffffffffffffff1673ffffffffffffffffffffffffffffffffffffffff16815260200190815260200160002080549050811015611ae05781600c6000600a60009054906101000a900473ffffffffffffffffffffffffffffffffffffffff1673ffffffffffffffffffffffffffffffffffffffff1673ffffffffffffffffffffffffffffffffffffffff16815260200190815260200160002082815481106118c5576118c4613cd6565b5b90600052602060002001541415611acd57600c6000600a60009054906101000a900473ffffffffffffffffffffffffffffffffffffffff1673ffffffffffffffffffffffffffffffffffffffff1673ffffffffffffffffffffffffffffffffffffffff1681526020019081526020016000206001600c6000600a60009054906101000a900473ffffffffffffffffffffffffffffffffffffffff1673ffffffffffffffffffffffffffffffffffffffff1673ffffffffffffffffffffffffffffffffffffffff168152602001908152602001600020805490506119a89190613a37565b815481106119b9576119b8613cd6565b5b9060005260206000200154600c6000600a60009054906101000a900473ffffffffffffffffffffffffffffffffffffffff1673ffffffffffffffffffffffffffffffffffffffff1673ffffffffffffffffffffffffffffffffffffffff1681526020019081526020016000208281548110611a3757611a36613cd6565b5b9060005260206000200181905550600c6000600a60009054906101000a900473ffffffffffffffffffffffffffffffffffffffff1673ffffffffffffffffffffffffffffffffffffffff1673ffffffffffffffffffffffffffffffffffffffff168152602001908152602001600020805480611ab657611ab5613ca7565b5b600190038181906000526020600020016000905590555b8080611ad890613b96565b9150506117e5565b50611b0e600a60009054906101000a900473ffffffffffffffffffffffffffffffffffffffff163383611eb7565b8091505090565b6000600a60009054906101000a900473ffffffffffffffffffffffffffffffffffffffff1673ffffffffffffffffffffffffffffffffffffffff163373ffffffffffffffffffffffffffffffffffffffff1614611ba7576040517f08c379a0000000000000000000000000000000000000000000000000000000008152600401611b9e90613620565b60405180910390fd5b611bb1600761239a565b6000611bbd60076123b0565b9050611bc933826123be565b611bd381846123dc565b600c60003373ffffffffffffffffffffffffffffffffffffffff1673ffffffffffffffffffffffffffffffffffffffff16815260200190815260200160002081908060018154018082558091505060019003906000526020600020016000909190919091505580915050919050565b60007f01ffc9a7000000000000000000000000000000000000000000000000000000007bffffffffffffffffffffffffffffffffffffffffffffffffffffffff1916827bffffffffffffffffffffffffffffffffffffffffffffffffffffffff1916149050919050565b60008073ffffffffffffffffffffffffffffffffffffffff166002600084815260200190815260200160002060009054906101000a900473ffffffffffffffffffffffffffffffffffffffff1673ffffffffffffffffffffffffffffffffffffffff1614159050919050565b600033905090565b816004600083815260200190815260200160002060006101000a81548173ffffffffffffffffffffffffffffffffffffffff021916908373ffffffffffffffffffffffffffffffffffffffff160217905550808273ffffffffffffffffffffffffffffffffffffffff16611d9383610bc5565b73ffffffffffffffffffffffffffffffffffffffff167f8c5be1e5ebec7d5bd14f71427d1e84f3dd0314c0f7b2291e5b200ac8c7c3b92560405160405180910390a45050565b6000611de482611cac565b611e23576040517f08c379a0000000000000000000000000000000000000000000000000000000008152600401611e1a906134c0565b60405180910390fd5b6000611e2e83610bc5565b90508073ffffffffffffffffffffffffffffffffffffffff168473ffffffffffffffffffffffffffffffffffffffff161480611e9d57508373ffffffffffffffffffffffffffffffffffffffff16611e8584610849565b73ffffffffffffffffffffffffffffffffffffffff16145b80611eae5750611ead81856115a5565b5b91505092915050565b8273ffffffffffffffffffffffffffffffffffffffff16611ed782610bc5565b73ffffffffffffffffffffffffffffffffffffffff1614611f2d576040517f08c379a0000000000000000000000000000000000000000000000000000000008152600401611f24906135c0565b60405180910390fd5b600073ffffffffffffffffffffffffffffffffffffffff168273ffffffffffffffffffffffffffffffffffffffff161415611f9d576040517f08c379a0000000000000000000000000000000000000000000000000000000008152600401611f9490613480565b60405180910390fd5b611fa8838383612450565b611fb3600082611d20565b6001600360008573ffffffffffffffffffffffffffffffffffffffff1673ffffffffffffffffffffffffffffffffffffffff16815260200190815260200160002060008282546120039190613a37565b925050819055506001600360008473ffffffffffffffffffffffffffffffffffffffff1673ffffffffffffffffffffffffffffffffffffffff168152602001908152602001600020600082825461205a91906137e5565b92505081905550816002600083815260200190815260200160002060006101000a81548173ffffffffffffffffffffffffffffffffffffffff021916908373ffffffffffffffffffffffffffffffffffffffff160217905550808273ffffffffffffffffffffffffffffffffffffffff168473ffffffffffffffffffffffffffffffffffffffff167fddf252ad1be2c89b69c2b068fc378daa952ba7f163c4a11628f55a4df523b3ef60405160405180910390a4505050565b8173ffffffffffffffffffffffffffffffffffffffff168373ffffffffffffffffffffffffffffffffffffffff161415612182576040517f08c379a0000000000000000000000000000000000000000000000000000000008152600401612179906134a0565b60405180910390fd5b80600560008573ffffffffffffffffffffffffffffffffffffffff1673ffffffffffffffffffffffffffffffffffffffff16815260200190815260200160002060008473ffffffffffffffffffffffffffffffffffffffff1673ffffffffffffffffffffffffffffffffffffffff16815260200190815260200160002060006101000a81548160ff0219169083151502179055508173ffffffffffffffffffffffffffffffffffffffff168373ffffffffffffffffffffffffffffffffffffffff167f17307eab39ab6107e8899845ad3d59bd9653f200f220920489ca2b5937696c31836040516122739190613403565b60405180910390a3505050565b61228b848484611eb7565b61229784848484612455565b6122d6576040517f08c379a00000000000000000000000000000000000000000000000000000000081526004016122cd90613440565b60405180910390fd5b50505050565b606060405180602001604052806000815250905090565b60606122fe82611cac565b61233d576040517f08c379a0000000000000000000000000000000000000000000000000000000008152600401612334906135e0565b60405180910390fd5b60006123476122dc565b905060008151116123675760405180602001604052806000815250612392565b80612371846125ec565b60405160200161238292919061330f565b6040516020818303038152906040525b915050919050565b6001816000016000828254019250508190555050565b600081600001549050919050565b6123d882826040518060200160405280600081525061274d565b5050565b6123e582611cac565b612424576040517f08c379a000000000000000000000000000000000000000000000000000000000815260040161241b90613540565b60405180910390fd5b8060066000848152602001908152602001600020908051906020019061244b92919061299c565b505050565b505050565b60006124768473ffffffffffffffffffffffffffffffffffffffff166127a8565b156125df578373ffffffffffffffffffffffffffffffffffffffff1663150b7a0261249f611d18565b8786866040518563ffffffff1660e01b81526004016124c19493929190613395565b602060405180830381600087803b1580156124db57600080fd5b505af192505050801561250c57506040513d601f19601f820116820180604052508101906125099190612e5f565b60015b61258f573d806000811461253c576040519150601f19603f3d011682016040523d82523d6000602084013e612541565b606091505b50600081511415612587576040517f08c379a000000000000000000000000000000000000000000000000000000000815260040161257e90613440565b60405180910390fd5b805181602001fd5b63150b7a0260e01b7bffffffffffffffffffffffffffffffffffffffffffffffffffffffff1916817bffffffffffffffffffffffffffffffffffffffffffffffffffffffff1916149150506125e4565b600190505b949350505050565b60606000821415612634576040518060400160405280600181526020017f30000000000000000000000000000000000000000000000000000000000000008152509050612748565b600082905060005b6000821461266657808061264f90613b96565b915050600a8261265f919061383b565b915061263c565b60008167ffffffffffffffff81111561268257612681613d05565b5b6040519080825280601f01601f1916602001820160405280156126b45781602001600182028036833780820191505090505b5090505b60008514612741576001826126cd9190613a37565b9150600a856126dc9190613be9565b60306126e891906137e5565b60f81b8183815181106126fe576126fd613cd6565b5b60200101907effffffffffffffffffffffffffffffffffffffffffffffffffffffffffffff1916908160001a905350600a8561273a919061383b565b94506126b8565b8093505050505b919050565b61275783836127bb565b6127646000848484612455565b6127a3576040517f08c379a000000000000000000000000000000000000000000000000000000000815260040161279a90613440565b60405180910390fd5b505050565b600080823b905060008111915050919050565b600073ffffffffffffffffffffffffffffffffffffffff168273ffffffffffffffffffffffffffffffffffffffff16141561282b576040517f08c379a000000000000000000000000000000000000000000000000000000000815260040161282290613560565b60405180910390fd5b61283481611cac565b15612874576040517f08c379a000000000000000000000000000000000000000000000000000000000815260040161286b90613460565b60405180910390fd5b61288060008383612450565b6001600360008473ffffffffffffffffffffffffffffffffffffffff1673ffffffffffffffffffffffffffffffffffffffff16815260200190815260200160002060008282546128d091906137e5565b92505081905550816002600083815260200190815260200160002060006101000a81548173ffffffffffffffffffffffffffffffffffffffff021916908373ffffffffffffffffffffffffffffffffffffffff160217905550808273ffffffffffffffffffffffffffffffffffffffff16600073ffffffffffffffffffffffffffffffffffffffff167fddf252ad1be2c89b69c2b068fc378daa952ba7f163c4a11628f55a4df523b3ef60405160405180910390a45050565b6040518060200160405280600081525090565b8280546129a890613b33565b90600052602060002090601f0160209004810192826129ca5760008555612a11565b82601f106129e357805160ff1916838001178555612a11565b82800160010185558215612a11579182015b82811115612a105782518255916020019190600101906129f5565b5b509050612a1e9190612a22565b5090565b5b80821115612a3b576000816000905550600101612a23565b5090565b6000612a52612a4d846136db565b6136b6565b90508083825260208201905082856020860282011115612a7557612a74613d39565b5b60005b85811015612aa55781612a8b8882612c11565b845260208401935060208301925050600181019050612a78565b5050509392505050565b6000612ac2612abd84613707565b6136b6565b905082815260208101848484011115612ade57612add613d3e565b5b612ae9848285613af1565b509392505050565b6000612b04612aff84613738565b6136b6565b905082815260208101848484011115612b2057612b1f613d3e565b5b612b2b848285613af1565b509392505050565b600081359050612b428161423b565b92915050565b600082601f830112612b5d57612b5c613d34565b5b8135612b6d848260208601612a3f565b91505092915050565b600081359050612b8581614252565b92915050565b600081359050612b9a81614269565b92915050565b600081519050612baf81614269565b92915050565b600082601f830112612bca57612bc9613d34565b5b8135612bda848260208601612aaf565b91505092915050565b600082601f830112612bf857612bf7613d34565b5b8135612c08848260208601612af1565b91505092915050565b600081359050612c2081614280565b92915050565b600060208284031215612c3c57612c3b613d48565b5b6000612c4a84828501612b33565b91505092915050565b60008060408385031215612c6a57612c69613d48565b5b6000612c7885828601612b33565b9250506020612c8985828601612b33565b9150509250929050565b600080600060608486031215612cac57612cab613d48565b5b6000612cba86828701612b33565b9350506020612ccb86828701612b33565b9250506040612cdc86828701612c11565b9150509250925092565b60008060008060808587031215612d0057612cff613d48565b5b6000612d0e87828801612b33565b9450506020612d1f87828801612b33565b9350506040612d3087828801612c11565b925050606085013567ffffffffffffffff811115612d5157612d50613d43565b5b612d5d87828801612bb5565b91505092959194509250565b60008060408385031215612d8057612d7f613d48565b5b6000612d8e85828601612b33565b9250506020612d9f85828601612b76565b9150509250929050565b60008060408385031215612dc057612dbf613d48565b5b6000612dce85828601612b33565b9250506020612ddf85828601612c11565b9150509250929050565b600060208284031215612dff57612dfe613d48565b5b600082013567ffffffffffffffff811115612e1d57612e1c613d43565b5b612e2984828501612b48565b91505092915050565b600060208284031215612e4857612e47613d48565b5b6000612e5684828501612b8b565b91505092915050565b600060208284031215612e7557612e74613d48565b5b6000612e8384828501612ba0565b91505092915050565b600060208284031215612ea257612ea1613d48565b5b600082013567ffffffffffffffff811115612ec057612ebf613d43565b5b612ecc84828501612be3565b91505092915050565b600060208284031215612eeb57612eea613d48565b5b6000612ef984828501612c11565b91505092915050565b6000612f0e83836132da565b60208301905092915050565b612f2381613a7d565b82525050565b612f3281613a6b565b82525050565b6000612f4382613779565b612f4d81856137a7565b9350612f5883613769565b8060005b83811015612f89578151612f708882612f02565b9750612f7b8361379a565b925050600181019050612f5c565b5085935050505092915050565b612f9f81613a8f565b82525050565b6000612fb082613784565b612fba81856137b8565b9350612fca818560208601613b00565b612fd381613d4d565b840191505092915050565b6000612fe98261378f565b612ff381856137c9565b9350613003818560208601613b00565b61300c81613d4d565b840191505092915050565b60006130228261378f565b61302c81856137da565b935061303c818560208601613b00565b80840191505092915050565b60006130556032836137c9565b915061306082613d6b565b604082019050919050565b6000613078601c836137c9565b915061308382613dba565b602082019050919050565b600061309b6024836137c9565b91506130a682613de3565b604082019050919050565b60006130be6019836137c9565b91506130c982613e32565b602082019050919050565b60006130e1602c836137c9565b91506130ec82613e5b565b604082019050919050565b60006131046038836137c9565b915061310f82613eaa565b604082019050919050565b6000613127602a836137c9565b915061313282613ef9565b604082019050919050565b600061314a6029836137c9565b915061315582613f48565b604082019050919050565b600061316d602e836137c9565b915061317882613f97565b604082019050919050565b60006131906020836137c9565b915061319b82613fe6565b602082019050919050565b60006131b36031836137c9565b91506131be8261400f565b604082019050919050565b60006131d6602c836137c9565b91506131e18261405e565b604082019050919050565b60006131f96029836137c9565b9150613204826140ad565b604082019050919050565b600061321c602f836137c9565b9150613227826140fc565b604082019050919050565b600061323f6021836137c9565b915061324a8261414b565b604082019050919050565b60006132626009836137c9565b915061326d8261419a565b602082019050919050565b60006132856031836137c9565b9150613290826141c3565b604082019050919050565b60006132a8600c836137c9565b91506132b382614212565b602082019050919050565b6020820160008201516132d460008501826132da565b50505050565b6132e381613ae7565b82525050565b6132f281613ae7565b82525050565b61330961330482613ae7565b613bdf565b82525050565b600061331b8285613017565b91506133278284613017565b91508190509392505050565b600061333f82856132f8565b60208201915061334f82846132f8565b6020820191508190509392505050565b60006020820190506133746000830184612f29565b92915050565b600060208201905061338f6000830184612f1a565b92915050565b60006080820190506133aa6000830187612f29565b6133b76020830186612f29565b6133c460408301856132e9565b81810360608301526133d68184612fa5565b905095945050505050565b600060208201905081810360008301526133fb8184612f38565b905092915050565b60006020820190506134186000830184612f96565b92915050565b600060208201905081810360008301526134388184612fde565b905092915050565b6000602082019050818103600083015261345981613048565b9050919050565b600060208201905081810360008301526134798161306b565b9050919050565b600060208201905081810360008301526134998161308e565b9050919050565b600060208201905081810360008301526134b9816130b1565b9050919050565b600060208201905081810360008301526134d9816130d4565b9050919050565b600060208201905081810360008301526134f9816130f7565b9050919050565b600060208201905081810360008301526135198161311a565b9050919050565b600060208201905081810360008301526135398161313d565b9050919050565b6000602082019050818103600083015261355981613160565b9050919050565b6000602082019050818103600083015261357981613183565b9050919050565b60006020820190508181036000830152613599816131a6565b9050919050565b600060208201905081810360008301526135b9816131c9565b9050919050565b600060208201905081810360008301526135d9816131ec565b9050919050565b600060208201905081810360008301526135f98161320f565b9050919050565b6000602082019050818103600083015261361981613232565b9050919050565b6000602082019050818103600083015261363981613255565b9050919050565b6000602082019050818103600083015261365981613278565b9050919050565b600060208201905081810360008301526136798161329b565b9050919050565b600060208201905061369560008301846132be565b92915050565b60006020820190506136b060008301846132e9565b92915050565b60006136c06136d1565b90506136cc8282613b65565b919050565b6000604051905090565b600067ffffffffffffffff8211156136f6576136f5613d05565b5b602082029050602081019050919050565b600067ffffffffffffffff82111561372257613721613d05565b5b61372b82613d4d565b9050602081019050919050565b600067ffffffffffffffff82111561375357613752613d05565b5b61375c82613d4d565b9050602081019050919050565b6000819050602082019050919050565b600081519050919050565b600081519050919050565b600081519050919050565b6000602082019050919050565b600082825260208201905092915050565b600082825260208201905092915050565b600082825260208201905092915050565b600081905092915050565b60006137f082613ae7565b91506137fb83613ae7565b9250827fffffffffffffffffffffffffffffffffffffffffffffffffffffffffffffffff038211156138305761382f613c1a565b5b828201905092915050565b600061384682613ae7565b915061385183613ae7565b92508261386157613860613c49565b5b828204905092915050565b6000808291508390505b60018511156138b65780860481111561389257613891613c1a565b5b60018516156138a15780820291505b80810290506138af85613d5e565b9450613876565b94509492505050565b60006138ca82613ae7565b91506138d583613ae7565b92506139027fffffffffffffffffffffffffffffffffffffffffffffffffffffffffffffffff848461390a565b905092915050565b60008261391a57600190506139d6565b8161392857600090506139d6565b816001811461393e576002811461394857613977565b60019150506139d6565b60ff84111561395a57613959613c1a565b5b8360020a91508482111561397157613970613c1a565b5b506139d6565b5060208310610133831016604e8410600b84101617156139ac5782820a9050838111156139a7576139a6613c1a565b5b6139d6565b6139b9848484600161386c565b925090508184048111156139d0576139cf613c1a565b5b81810290505b9392505050565b60006139e882613ae7565b91506139f383613ae7565b9250817fffffffffffffffffffffffffffffffffffffffffffffffffffffffffffffffff0483118215151615613a2c57613a2b613c1a565b5b828202905092915050565b6000613a4282613ae7565b9150613a4d83613ae7565b925082821015613a6057613a5f613c1a565b5b828203905092915050565b6000613a7682613ac7565b9050919050565b6000613a8882613ac7565b9050919050565b60008115159050919050565b60007fffffffff0000000000000000000000000000000000000000000000000000000082169050919050565b600073ffffffffffffffffffffffffffffffffffffffff82169050919050565b6000819050919050565b82818337600083830152505050565b60005b83811015613b1e578082015181840152602081019050613b03565b83811115613b2d576000848401525b50505050565b60006002820490506001821680613b4b57607f821691505b60208210811415613b5f57613b5e613c78565b5b50919050565b613b6e82613d4d565b810181811067ffffffffffffffff82111715613b8d57613b8c613d05565b5b80604052505050565b6000613ba182613ae7565b91507fffffffffffffffffffffffffffffffffffffffffffffffffffffffffffffffff821415613bd457613bd3613c1a565b5b600182019050919050565b6000819050919050565b6000613bf482613ae7565b9150613bff83613ae7565b925082613c0f57613c0e613c49565b5b828206905092915050565b7f4e487b7100000000000000000000000000000000000000000000000000000000600052601160045260246000fd5b7f4e487b7100000000000000000000000000000000000000000000000000000000600052601260045260246000fd5b7f4e487b7100000000000000000000000000000000000000000000000000000000600052602260045260246000fd5b7f4e487b7100000000000000000000000000000000000000000000000000000000600052603160045260246000fd5b7f4e487b7100000000000000000000000000000000000000000000000000000000600052603260045260246000fd5b7f4e487b7100000000000000000000000000000000000000000000000000000000600052604160045260246000fd5b600080fd5b600080fd5b600080fd5b600080fd5b600080fd5b6000601f19601f8301169050919050565b60008160011c9050919050565b7f4552433732313a207472616e7366657220746f206e6f6e20455243373231526560008201527f63656976657220696d706c656d656e7465720000000000000000000000000000602082015250565b7f4552433732313a20746f6b656e20616c7265616479206d696e74656400000000600082015250565b7f4552433732313a207472616e7366657220746f20746865207a65726f2061646460008201527f7265737300000000000000000000000000000000000000000000000000000000602082015250565b7f4552433732313a20617070726f766520746f2063616c6c657200000000000000600082015250565b7f4552433732313a206f70657261746f7220717565727920666f72206e6f6e657860008201527f697374656e7420746f6b656e0000000000000000000000000000000000000000602082015250565b7f4552433732313a20617070726f76652063616c6c6572206973206e6f74206f7760008201527f6e6572206e6f7220617070726f76656420666f7220616c6c0000000000000000602082015250565b7f4552433732313a2062616c616e636520717565727920666f7220746865207a6560008201527f726f206164647265737300000000000000000000000000000000000000000000602082015250565b7f4552433732313a206f776e657220717565727920666f72206e6f6e657869737460008201527f656e7420746f6b656e0000000000000000000000000000000000000000000000602082015250565b7f45524337323155524953746f726167653a2055524920736574206f66206e6f6e60008201527f6578697374656e7420746f6b656e000000000000000000000000000000000000602082015250565b7f4552433732313a206d696e7420746f20746865207a65726f2061646472657373600082015250565b7f45524337323155524953746f726167653a2055524920717565727920666f722060008201527f6e6f6e6578697374656e7420746f6b656e000000000000000000000000000000602082015250565b7f4552433732313a20617070726f76656420717565727920666f72206e6f6e657860008201527f697374656e7420746f6b656e0000000000000000000000000000000000000000602082015250565b7f4552433732313a207472616e73666572206f6620746f6b656e2074686174206960008201527f73206e6f74206f776e0000000000000000000000000000000000000000000000602082015250565b7f4552433732314d657461646174613a2055524920717565727920666f72206e6f60008201527f6e6578697374656e7420746f6b656e0000000000000000000000000000000000602082015250565b7f4552433732313a20617070726f76616c20746f2063757272656e74206f776e6560008201527f7200000000000000000000000000000000000000000000000000000000000000602082015250565b7f4e6f74206f776e65720000000000000000000000000000000000000000000000600082015250565b7f4552433732313a207472616e736665722063616c6c6572206973206e6f74206f60008201527f776e6572206e6f7220617070726f766564000000000000000000000000000000602082015250565b7f4d4f4e45592055204b4f4e570000000000000000000000000000000000000000600082015250565b61424481613a6b565b811461424f57600080fd5b50565b61425b81613a8f565b811461426657600080fd5b50565b61427281613a9b565b811461427d57600080fd5b50565b61428981613ae7565b811461429457600080fd5b5056fea2646970667358221220db8b6c2b92c42c62c6f50b3c978e775f0b05efeff92bb24d1088dbd1c30ae87364736f6c63430008050033",
  "linkReferences": {},
  "deployedLinkReferences": {}
}