{
  "_format": "hh-sol-artifact-1",
  "contractName": "WileCard",
  "sourceName": "contracts/Card.sol",
  "abi": [
    {
      "inputs": [],
      "stateMutability": "nonpayable",
      "type": "constructor"
    },
    {
      "anonymous": false,
      "inputs": [
        {
          "indexed": true,
          "internalType": "address",
          "name": "owner",
          "type": "address"
        },
        {
          "indexed": true,
          "internalType": "address",
          "name": "approved",
          "type": "address"
        },
        {
          "indexed": true,
          "internalType": "uint256",
          "name": "tokenId",
          "type": "uint256"
        }
      ],
      "name": "Approval",
      "type": "event"
    },
    {
      "anonymous": false,
      "inputs": [
        {
          "indexed": true,
          "internalType": "address",
          "name": "owner",
          "type": "address"
        },
        {
          "indexed": true,
          "internalType": "address",
          "name": "operator",
          "type": "address"
        },
        {
          "indexed": false,
          "internalType": "bool",
          "name": "approved",
          "type": "bool"
        }
      ],
      "name": "ApprovalForAll",
      "type": "event"
    },
    {
      "anonymous": false,
      "inputs": [
        {
          "indexed": true,
          "internalType": "address",
          "name": "from",
          "type": "address"
        },
        {
          "indexed": true,
          "internalType": "address",
          "name": "to",
          "type": "address"
        },
        {
          "indexed": true,
          "internalType": "uint256",
          "name": "tokenId",
          "type": "uint256"
        }
      ],
      "name": "Transfer",
      "type": "event"
    },
    {
      "inputs": [],
      "name": "Owner",
      "outputs": [
        {
          "internalType": "address payable",
          "name": "",
          "type": "address"
        }
      ],
      "stateMutability": "view",
      "type": "function"
    },
    {
      "inputs": [
        {
          "internalType": "address",
          "name": "to",
          "type": "address"
        },
        {
          "internalType": "uint256",
          "name": "tokenId",
          "type": "uint256"
        }
      ],
      "name": "approve",
      "outputs": [],
      "stateMutability": "nonpayable",
      "type": "function"
    },
    {
      "inputs": [
        {
          "internalType": "address",
          "name": "owner",
          "type": "address"
        }
      ],
      "name": "balanceOf",
      "outputs": [
        {
          "internalType": "uint256",
          "name": "",
          "type": "uint256"
        }
      ],
      "stateMutability": "view",
      "type": "function"
    },
    {
      "inputs": [
        {
          "internalType": "uint256",
          "name": "_fee",
          "type": "uint256"
        }
      ],
      "name": "changeFee",
      "outputs": [
        {
          "internalType": "uint256",
          "name": "",
          "type": "uint256"
        }
      ],
      "stateMutability": "nonpayable",
      "type": "function"
    },
    {
      "inputs": [],
      "name": "deposit",
      "outputs": [
        {
          "internalType": "uint256",
          "name": "",
          "type": "uint256"
        }
      ],
      "stateMutability": "payable",
      "type": "function"
    },
    {
      "inputs": [],
      "name": "deposits",
      "outputs": [
        {
          "internalType": "uint256",
          "name": "",
          "type": "uint256"
        }
      ],
      "stateMutability": "view",
      "type": "function"
    },
    {
      "inputs": [
        {
          "internalType": "uint256",
          "name": "tokenId",
          "type": "uint256"
        }
      ],
      "name": "getApproved",
      "outputs": [
        {
          "internalType": "address",
          "name": "",
          "type": "address"
        }
      ],
      "stateMutability": "view",
      "type": "function"
    },
    {
      "inputs": [],
      "name": "getBalance",
      "outputs": [
        {
          "internalType": "uint256",
          "name": "",
          "type": "uint256"
        }
      ],
      "stateMutability": "view",
      "type": "function"
    },
    {
      "inputs": [],
      "name": "getUserToken",
      "outputs": [
        {
          "internalType": "uint256[]",
          "name": "",
          "type": "uint256[]"
        }
      ],
      "stateMutability": "view",
      "type": "function"
    },
    {
      "inputs": [
        {
          "internalType": "address",
          "name": "sender",
          "type": "address"
        }
      ],
      "name": "getUserTokenWithAddress",
      "outputs": [
        {
          "internalType": "uint256[]",
          "name": "",
          "type": "uint256[]"
        }
      ],
      "stateMutability": "view",
      "type": "function"
    },
    {
      "inputs": [
        {
          "internalType": "address",
          "name": "owner",
          "type": "address"
        },
        {
          "internalType": "address",
          "name": "operator",
          "type": "address"
        }
      ],
      "name": "isApprovedForAll",
      "outputs": [
        {
          "internalType": "bool",
          "name": "",
          "type": "bool"
        }
      ],
      "stateMutability": "view",
      "type": "function"
    },
    {
      "inputs": [
        {
          "internalType": "string[]",
          "name": "tokenURI",
          "type": "string[]"
        }
      ],
      "name": "mintNFT",
      "outputs": [],
      "stateMutability": "nonpayable",
      "type": "function"
    },
    {
      "inputs": [],
      "name": "name",
      "outputs": [
        {
          "internalType": "string",
          "name": "",
          "type": "string"
        }
      ],
      "stateMutability": "view",
      "type": "function"
    },
    {
      "inputs": [
        {
          "internalType": "uint256",
          "name": "tokenId",
          "type": "uint256"
        }
      ],
      "name": "ownerOf",
      "outputs": [
        {
          "internalType": "address",
          "name": "",
          "type": "address"
        }
      ],
      "stateMutability": "view",
      "type": "function"
    },
    {
      "inputs": [
        {
          "internalType": "uint256[]",
          "name": "_myArray",
          "type": "uint256[]"
        }
      ],
      "name": "random",
      "outputs": [
        {
          "internalType": "uint256[]",
          "name": "",
          "type": "uint256[]"
        }
      ],
      "stateMutability": "view",
      "type": "function"
    },
    {
      "inputs": [],
      "name": "randomNFT",
      "outputs": [
        {
          "internalType": "uint256",
          "name": "",
          "type": "uint256"
        }
      ],
      "stateMutability": "nonpayable",
      "type": "function"
    },
    {
      "inputs": [
        {
          "internalType": "address",
          "name": "from",
          "type": "address"
        },
        {
          "internalType": "address",
          "name": "to",
          "type": "address"
        },
        {
          "internalType": "uint256",
          "name": "tokenId",
          "type": "uint256"
        }
      ],
      "name": "safeTransferFrom",
      "outputs": [],
      "stateMutability": "nonpayable",
      "type": "function"
    },
    {
      "inputs": [
        {
          "internalType": "address",
          "name": "from",
          "type": "address"
        },
        {
          "internalType": "address",
          "name": "to",
          "type": "address"
        },
        {
          "internalType": "uint256",
          "name": "tokenId",
          "type": "uint256"
        },
        {
          "internalType": "bytes",
          "name": "_data",
          "type": "bytes"
        }
      ],
      "name": "safeTransferFrom",
      "outputs": [],
      "stateMutability": "nonpayable",
      "type": "function"
    },
    {
      "inputs": [
        {
          "internalType": "address",
          "name": "operator",
          "type": "address"
        },
        {
          "internalType": "bool",
          "name": "approved",
          "type": "bool"
        }
      ],
      "name": "setApprovalForAll",
      "outputs": [],
      "stateMutability": "nonpayable",
      "type": "function"
    },
    {
      "inputs": [
        {
          "internalType": "bytes4",
          "name": "interfaceId",
          "type": "bytes4"
        }
      ],
      "name": "supportsInterface",
      "outputs": [
        {
          "internalType": "bool",
          "name": "",
          "type": "bool"
        }
      ],
      "stateMutability": "view",
      "type": "function"
    },
    {
      "inputs": [],
      "name": "symbol",
      "outputs": [
        {
          "internalType": "string",
          "name": "",
          "type": "string"
        }
      ],
      "stateMutability": "view",
      "type": "function"
    },
    {
      "inputs": [
        {
          "internalType": "uint256",
          "name": "tokenId",
          "type": "uint256"
        }
      ],
      "name": "tokenURI",
      "outputs": [
        {
          "internalType": "string",
          "name": "",
          "type": "string"
        }
      ],
      "stateMutability": "view",
      "type": "function"
    },
    {
      "inputs": [],
      "name": "totalSupply",
      "outputs": [
        {
          "components": [
            {
              "internalType": "uint256",
              "name": "_value",
              "type": "uint256"
            }
          ],
          "internalType": "struct Counters.Counter",
          "name": "",
          "type": "tuple"
        }
      ],
      "stateMutability": "view",
      "type": "function"
    },
    {
      "inputs": [
        {
          "internalType": "address",
          "name": "from",
          "type": "address"
        },
        {
          "internalType": "address",
          "name": "to",
          "type": "address"
        },
        {
          "internalType": "uint256",
          "name": "tokenId",
          "type": "uint256"
        }
      ],
      "name": "transferFrom",
      "outputs": [],
      "stateMutability": "nonpayable",
      "type": "function"
    },
    {
      "inputs": [
        {
          "internalType": "address",
          "name": "from",
          "type": "address"
        },
        {
          "internalType": "address",
          "name": "to",
          "type": "address"
        },
        {
          "internalType": "uint256",
          "name": "tokenId",
          "type": "uint256"
        }
      ],
      "name": "transferNFT",
      "outputs": [],
      "stateMutability": "nonpayable",
      "type": "function"
    },
    {
      "inputs": [
        {
          "internalType": "address",
          "name": "",
          "type": "address"
        },
        {
          "internalType": "uint256",
          "name": "",
          "type": "uint256"
        }
      ],
      "name": "userOwnedTokens",
      "outputs": [
        {
          "internalType": "uint256",
          "name": "",
          "type": "uint256"
        }
      ],
      "stateMutability": "view",
      "type": "function"
    },
    {
      "inputs": [
        {
          "internalType": "uint256",
          "name": "_amount",
          "type": "uint256"
        }
      ],
      "name": "withdraw",
      "outputs": [],
      "stateMutability": "nonpayable",
      "type": "function"
    }
  ],
  "bytecode": "0x6080604052600060085560006009556008600b553480156200002057600080fd5b506040518060400160405280600881526020017f57696c65436172640000000000000000000000000000000000000000000000008152506040518060400160405280600481526020017f57696c65000000000000000000000000000000000000000000000000000000008152508160009080519060200190620000a592919062000108565b508060019080519060200190620000be92919062000108565b50505033600a60006101000a81548173ffffffffffffffffffffffffffffffffffffffff021916908373ffffffffffffffffffffffffffffffffffffffff1602179055506200021d565b8280546200011690620001b8565b90600052602060002090601f0160209004810192826200013a576000855562000186565b82601f106200015557805160ff191683800117855562000186565b8280016001018555821562000186579182015b828111156200018557825182559160200191906001019062000168565b5b50905062000195919062000199565b5090565b5b80821115620001b45760008160009055506001016200019a565b5090565b60006002820490506001821680620001d157607f821691505b60208210811415620001e857620001e7620001ee565b5b50919050565b7f4e487b7100000000000000000000000000000000000000000000000000000000600052602260045260246000fd5b6143d4806200022d6000396000f3fe60806040526004361061019c5760003560e01c80636a1db1bf116100ec578063b4a99a4e1161008a578063d0e30db011610064578063d0e30db014610610578063e546b9a31461062e578063e985e9c514610659578063ece6b21f146106965761019c565b8063b4a99a4e1461057f578063b88d4fde146105aa578063c87b56dd146105d35761019c565b806395d89b41116100c657806395d89b41146104b15780639e483815146104dc578063a09e336714610519578063a22cb465146105565761019c565b80636a1db1bf1461040e578063704affad1461044b57806370a08231146104745761019c565b806318160ddd11610159578063323a5e0b11610133578063323a5e0b1461035457806342842e0e1461037f5780636352211e146103a857806369e9cae1146103e55761019c565b806318160ddd146102d757806323b872dd146103025780632e1a7d4d1461032b5761019c565b806301ffc9a7146101a157806306fdde03146101de578063081812fc14610209578063095ea7b31461024657806312065fe01461026f57806314b924e21461029a575b600080fd5b3480156101ad57600080fd5b506101c860048036038101906101c39190612f56565b6106c1565b6040516101d591906134de565b60405180910390f35b3480156101ea57600080fd5b506101f36107a3565b60405161020091906134f9565b60405180910390f35b34801561021557600080fd5b50610230600480360381019061022b9190612fb0565b610835565b60405161023d919061343a565b60405180910390f35b34801561025257600080fd5b5061026d60048036038101906102689190612e84565b6108ba565b005b34801561027b57600080fd5b506102846109d2565b6040516102919190613776565b60405180910390f35b3480156102a657600080fd5b506102c160048036038101906102bc9190612e84565b6109da565b6040516102ce9190613776565b60405180910390f35b3480156102e357600080fd5b506102ec610a0b565b6040516102f9919061375b565b60405180910390f35b34801561030e57600080fd5b5061032960048036038101906103249190612d6e565b610a2f565b005b34801561033757600080fd5b50610352600480360381019061034d9190612fb0565b610a8f565b005b34801561036057600080fd5b50610369610b8b565b6040516103769190613776565b60405180910390f35b34801561038b57600080fd5b506103a660048036038101906103a19190612d6e565b610b91565b005b3480156103b457600080fd5b506103cf60048036038101906103ca9190612fb0565b610bb1565b6040516103dc919061343a565b60405180910390f35b3480156103f157600080fd5b5061040c60048036038101906104079190612d6e565b610c63565b005b34801561041a57600080fd5b5061043560048036038101906104309190612fb0565b610f5c565b6040516104429190613776565b60405180910390f35b34801561045757600080fd5b50610472600480360381019061046d9190612ec4565b610f6f565b005b34801561048057600080fd5b5061049b60048036038101906104969190612d01565b6110cf565b6040516104a89190613776565b60405180910390f35b3480156104bd57600080fd5b506104c6611187565b6040516104d391906134f9565b60405180910390f35b3480156104e857600080fd5b5061050360048036038101906104fe9190612d01565b611219565b60405161051091906134bc565b60405180910390f35b34801561052557600080fd5b50610540600480360381019061053b9190612f0d565b6112b0565b60405161054d91906134bc565b60405180910390f35b34801561056257600080fd5b5061057d60048036038101906105789190612e44565b611408565b005b34801561058b57600080fd5b5061059461141e565b6040516105a19190613455565b60405180910390f35b3480156105b657600080fd5b506105d160048036038101906105cc9190612dc1565b611444565b005b3480156105df57600080fd5b506105fa60048036038101906105f59190612fb0565b6114a6565b60405161060791906134f9565b60405180910390f35b6106186115f8565b6040516106259190613776565b60405180910390f35b34801561063a57600080fd5b5061064361165c565b60405161065091906134bc565b60405180910390f35b34801561066557600080fd5b50610680600480360381019061067b9190612d2e565b6116f1565b60405161068d91906134de565b60405180910390f35b3480156106a257600080fd5b506106ab611785565b6040516106b89190613776565b60405180910390f35b60007f80ac58cd000000000000000000000000000000000000000000000000000000007bffffffffffffffffffffffffffffffffffffffffffffffffffffffff1916827bffffffffffffffffffffffffffffffffffffffffffffffffffffffff1916148061078c57507f5b5e139f000000000000000000000000000000000000000000000000000000007bffffffffffffffffffffffffffffffffffffffffffffffffffffffff1916827bffffffffffffffffffffffffffffffffffffffffffffffffffffffff1916145b8061079c575061079b82611c61565b5b9050919050565b6060600080546107b290613c3a565b80601f01602080910402602001604051908101604052809291908181526020018280546107de90613c3a565b801561082b5780601f106108005761010080835404028352916020019161082b565b820191906000526020600020905b81548152906001019060200180831161080e57829003601f168201915b5050505050905090565b600061084082611ccb565b61087f576040517f08c379a00000000000000000000000000000000000000000000000000000000081526004016108769061367b565b60405180910390fd5b6004600083815260200190815260200160002060009054906101000a900473ffffffffffffffffffffffffffffffffffffffff169050919050565b60006108c582610bb1565b90508073ffffffffffffffffffffffffffffffffffffffff168373ffffffffffffffffffffffffffffffffffffffff161415610936576040517f08c379a000000000000000000000000000000000000000000000000000000000815260040161092d906136db565b60405180910390fd5b8073ffffffffffffffffffffffffffffffffffffffff16610955611d37565b73ffffffffffffffffffffffffffffffffffffffff16148061098457506109838161097e611d37565b6116f1565b5b6109c3576040517f08c379a00000000000000000000000000000000000000000000000000000000081526004016109ba906135bb565b60405180910390fd5b6109cd8383611d3f565b505050565b600047905090565b600c60205281600052604060002081815481106109f657600080fd5b90600052602060002001600091509150505481565b610a136129a8565b6007604051806020016040529081600082015481525050905090565b610a40610a3a611d37565b82611df8565b610a7f576040517f08c379a0000000000000000000000000000000000000000000000000000000008152600401610a769061371b565b60405180910390fd5b610a8a838383611ed6565b505050565b600a60009054906101000a900473ffffffffffffffffffffffffffffffffffffffff1673ffffffffffffffffffffffffffffffffffffffff163373ffffffffffffffffffffffffffffffffffffffff1614610b1f576040517f08c379a0000000000000000000000000000000000000000000000000000000008152600401610b16906136fb565b60405180910390fd5b600a60009054906101000a900473ffffffffffffffffffffffffffffffffffffffff1673ffffffffffffffffffffffffffffffffffffffff166108fc829081150290604051600060405180830381858888f19350505050158015610b87573d6000803e3d6000fd5b5050565b60085481565b610bac83838360405180602001604052806000815250611444565b505050565b6000806002600084815260200190815260200160002060009054906101000a900473ffffffffffffffffffffffffffffffffffffffff169050600073ffffffffffffffffffffffffffffffffffffffff168173ffffffffffffffffffffffffffffffffffffffff161415610c5a576040517f08c379a0000000000000000000000000000000000000000000000000000000008152600401610c51906135fb565b60405180910390fd5b80915050919050565b610c74610c6e611d37565b82611df8565b610cb3576040517f08c379a0000000000000000000000000000000000000000000000000000000008152600401610caa9061371b565b60405180910390fd5b600c60008373ffffffffffffffffffffffffffffffffffffffff1673ffffffffffffffffffffffffffffffffffffffff16815260200190815260200160002081908060018154018082558091505060019003906000526020600020016000909190919091505560005b600c60008573ffffffffffffffffffffffffffffffffffffffff1673ffffffffffffffffffffffffffffffffffffffff16815260200190815260200160002080549050811015610f4b5781600c60008673ffffffffffffffffffffffffffffffffffffffff1673ffffffffffffffffffffffffffffffffffffffff1681526020019081526020016000208281548110610db857610db7613ddd565b5b90600052602060002001541415610f3857600c60008573ffffffffffffffffffffffffffffffffffffffff1673ffffffffffffffffffffffffffffffffffffffff1681526020019081526020016000206001600c60008773ffffffffffffffffffffffffffffffffffffffff1673ffffffffffffffffffffffffffffffffffffffff16815260200190815260200160002080549050610e579190613b3e565b81548110610e6857610e67613ddd565b5b9060005260206000200154600c60008673ffffffffffffffffffffffffffffffffffffffff1673ffffffffffffffffffffffffffffffffffffffff1681526020019081526020016000208281548110610ec457610ec3613ddd565b5b9060005260206000200181905550600c60008573ffffffffffffffffffffffffffffffffffffffff1673ffffffffffffffffffffffffffffffffffffffff168152602001908152602001600020805480610f2157610f20613dae565b5b600190038181906000526020600020016000905590555b8080610f4390613c9d565b915050610d1c565b50610f57838383611ed6565b505050565b600081600b81905550600b549050919050565b600a60009054906101000a900473ffffffffffffffffffffffffffffffffffffffff1673ffffffffffffffffffffffffffffffffffffffff163373ffffffffffffffffffffffffffffffffffffffff1614610fff576040517f08c379a0000000000000000000000000000000000000000000000000000000008152600401610ff6906136fb565b60405180910390fd5b60005b81518110156110cb576110156007612132565b60006110216007612148565b905061102d3382612156565b6110518184848151811061104457611043613ddd565b5b6020026020010151612174565b600c60003373ffffffffffffffffffffffffffffffffffffffff1673ffffffffffffffffffffffffffffffffffffffff1681526020019081526020016000208190806001815401808255809150506001900390600052602060002001600090919091909150555080806110c390613c9d565b915050611002565b5050565b60008073ffffffffffffffffffffffffffffffffffffffff168273ffffffffffffffffffffffffffffffffffffffff161415611140576040517f08c379a0000000000000000000000000000000000000000000000000000000008152600401611137906135db565b60405180910390fd5b600360008373ffffffffffffffffffffffffffffffffffffffff1673ffffffffffffffffffffffffffffffffffffffff168152602001908152602001600020549050919050565b60606001805461119690613c3a565b80601f01602080910402602001604051908101604052809291908181526020018280546111c290613c3a565b801561120f5780601f106111e45761010080835404028352916020019161120f565b820191906000526020600020905b8154815290600101906020018083116111f257829003601f168201915b5050505050905090565b6060600c60008373ffffffffffffffffffffffffffffffffffffffff1673ffffffffffffffffffffffffffffffffffffffff1681526020019081526020016000208054806020026020016040519081016040528092919081815260200182805480156112a457602002820191906000526020600020905b815481526020019060010190808311611290575b50505050509050919050565b606060008251905060008351905060005b818110156113f7576000600184428885815181106112e2576112e1613ddd565b5b60200260200101516040516020016112fb92919061340e565b6040516020818303038152906040528051906020012060001c61131e9190613cf0565b61132891906138ec565b905060008660018361133a9190613b3e565b8151811061134b5761134a613ddd565b5b60200260200101519050866001866113639190613b3e565b8151811061137457611373613ddd565b5b60200260200101518760018461138a9190613b3e565b8151811061139b5761139a613ddd565b5b60200260200101818152505080876001876113b69190613b3e565b815181106113c7576113c6613ddd565b5b6020026020010181815250506001856113e09190613b3e565b9450505080806113ef90613c9d565b9150506112c1565b506060849050809350505050919050565b61141a611413611d37565b83836121e8565b5050565b600a60009054906101000a900473ffffffffffffffffffffffffffffffffffffffff1681565b61145561144f611d37565b83611df8565b611494576040517f08c379a000000000000000000000000000000000000000000000000000000000815260040161148b9061371b565b60405180910390fd5b6114a084848484612355565b50505050565b60606114b182611ccb565b6114f0576040517f08c379a00000000000000000000000000000000000000000000000000000000081526004016114e79061365b565b60405180910390fd5b600060066000848152602001908152602001600020805461151090613c3a565b80601f016020809104026020016040519081016040528092919081815260200182805461153c90613c3a565b80156115895780601f1061155e57610100808354040283529160200191611589565b820191906000526020600020905b81548152906001019060200180831161156c57829003601f168201915b50505050509050600061159a6123b1565b90506000815114156115b05781925050506115f3565b6000825111156115e55780826040516020016115cd9291906133ea565b604051602081830303815290604052925050506115f3565b6115ee846123c8565b925050505b919050565b6000600b54600a61160991906139c6565b60016116159190613ae4565b3414611656576040517f08c379a000000000000000000000000000000000000000000000000000000000815260040161164d9061373b565b60405180910390fd5b34905090565b6060600c60003373ffffffffffffffffffffffffffffffffffffffff1673ffffffffffffffffffffffffffffffffffffffff1681526020019081526020016000208054806020026020016040519081016040528092919081815260200182805480156116e757602002820191906000526020600020905b8154815260200190600101908083116116d3575b5050505050905090565b6000600560008473ffffffffffffffffffffffffffffffffffffffff1673ffffffffffffffffffffffffffffffffffffffff16815260200190815260200160002060008373ffffffffffffffffffffffffffffffffffffffff1673ffffffffffffffffffffffffffffffffffffffff16815260200190815260200160002060009054906101000a900460ff16905092915050565b600080611840600c6000600a60009054906101000a900473ffffffffffffffffffffffffffffffffffffffff1673ffffffffffffffffffffffffffffffffffffffff1673ffffffffffffffffffffffffffffffffffffffff16815260200190815260200160002080548060200260200160405190810160405280929190818152602001828054801561183657602002820191906000526020600020905b815481526020019060010190808311611822575b50505050506112b0565b60008151811061185357611852613ddd565b5b60200260200101519050611889600a60009054906101000a900473ffffffffffffffffffffffffffffffffffffffff1682611df8565b6118c8576040517f08c379a00000000000000000000000000000000000000000000000000000000081526004016118bf9061371b565b60405180910390fd5b600c60003373ffffffffffffffffffffffffffffffffffffffff1673ffffffffffffffffffffffffffffffffffffffff16815260200190815260200160002081908060018154018082558091505060019003906000526020600020016000909190919091505560005b600c6000600a60009054906101000a900473ffffffffffffffffffffffffffffffffffffffff1673ffffffffffffffffffffffffffffffffffffffff1673ffffffffffffffffffffffffffffffffffffffff16815260200190815260200160002080549050811015611c2c5781600c6000600a60009054906101000a900473ffffffffffffffffffffffffffffffffffffffff1673ffffffffffffffffffffffffffffffffffffffff1673ffffffffffffffffffffffffffffffffffffffff1681526020019081526020016000208281548110611a1157611a10613ddd565b5b90600052602060002001541415611c1957600c6000600a60009054906101000a900473ffffffffffffffffffffffffffffffffffffffff1673ffffffffffffffffffffffffffffffffffffffff1673ffffffffffffffffffffffffffffffffffffffff1681526020019081526020016000206001600c6000600a60009054906101000a900473ffffffffffffffffffffffffffffffffffffffff1673ffffffffffffffffffffffffffffffffffffffff1673ffffffffffffffffffffffffffffffffffffffff16815260200190815260200160002080549050611af49190613b3e565b81548110611b0557611b04613ddd565b5b9060005260206000200154600c6000600a60009054906101000a900473ffffffffffffffffffffffffffffffffffffffff1673ffffffffffffffffffffffffffffffffffffffff1673ffffffffffffffffffffffffffffffffffffffff1681526020019081526020016000208281548110611b8357611b82613ddd565b5b9060005260206000200181905550600c6000600a60009054906101000a900473ffffffffffffffffffffffffffffffffffffffff1673ffffffffffffffffffffffffffffffffffffffff1673ffffffffffffffffffffffffffffffffffffffff168152602001908152602001600020805480611c0257611c01613dae565b5b600190038181906000526020600020016000905590555b8080611c2490613c9d565b915050611931565b50611c5a600a60009054906101000a900473ffffffffffffffffffffffffffffffffffffffff163383611ed6565b8091505090565b60007f01ffc9a7000000000000000000000000000000000000000000000000000000007bffffffffffffffffffffffffffffffffffffffffffffffffffffffff1916827bffffffffffffffffffffffffffffffffffffffffffffffffffffffff1916149050919050565b60008073ffffffffffffffffffffffffffffffffffffffff166002600084815260200190815260200160002060009054906101000a900473ffffffffffffffffffffffffffffffffffffffff1673ffffffffffffffffffffffffffffffffffffffff1614159050919050565b600033905090565b816004600083815260200190815260200160002060006101000a81548173ffffffffffffffffffffffffffffffffffffffff021916908373ffffffffffffffffffffffffffffffffffffffff160217905550808273ffffffffffffffffffffffffffffffffffffffff16611db283610bb1565b73ffffffffffffffffffffffffffffffffffffffff167f8c5be1e5ebec7d5bd14f71427d1e84f3dd0314c0f7b2291e5b200ac8c7c3b92560405160405180910390a45050565b6000611e0382611ccb565b611e42576040517f08c379a0000000000000000000000000000000000000000000000000000000008152600401611e399061359b565b60405180910390fd5b6000611e4d83610bb1565b90508073ffffffffffffffffffffffffffffffffffffffff168473ffffffffffffffffffffffffffffffffffffffff161480611ebc57508373ffffffffffffffffffffffffffffffffffffffff16611ea484610835565b73ffffffffffffffffffffffffffffffffffffffff16145b80611ecd5750611ecc81856116f1565b5b91505092915050565b8273ffffffffffffffffffffffffffffffffffffffff16611ef682610bb1565b73ffffffffffffffffffffffffffffffffffffffff1614611f4c576040517f08c379a0000000000000000000000000000000000000000000000000000000008152600401611f439061369b565b60405180910390fd5b600073ffffffffffffffffffffffffffffffffffffffff168273ffffffffffffffffffffffffffffffffffffffff161415611fbc576040517f08c379a0000000000000000000000000000000000000000000000000000000008152600401611fb39061355b565b60405180910390fd5b611fc783838361246f565b611fd2600082611d3f565b6001600360008573ffffffffffffffffffffffffffffffffffffffff1673ffffffffffffffffffffffffffffffffffffffff16815260200190815260200160002060008282546120229190613b3e565b925050819055506001600360008473ffffffffffffffffffffffffffffffffffffffff1673ffffffffffffffffffffffffffffffffffffffff168152602001908152602001600020600082825461207991906138ec565b92505081905550816002600083815260200190815260200160002060006101000a81548173ffffffffffffffffffffffffffffffffffffffff021916908373ffffffffffffffffffffffffffffffffffffffff160217905550808273ffffffffffffffffffffffffffffffffffffffff168473ffffffffffffffffffffffffffffffffffffffff167fddf252ad1be2c89b69c2b068fc378daa952ba7f163c4a11628f55a4df523b3ef60405160405180910390a4505050565b6001816000016000828254019250508190555050565b600081600001549050919050565b612170828260405180602001604052806000815250612474565b5050565b61217d82611ccb565b6121bc576040517f08c379a00000000000000000000000000000000000000000000000000000000081526004016121b39061361b565b60405180910390fd5b806006600084815260200190815260200160002090805190602001906121e39291906129bb565b505050565b8173ffffffffffffffffffffffffffffffffffffffff168373ffffffffffffffffffffffffffffffffffffffff161415612257576040517f08c379a000000000000000000000000000000000000000000000000000000000815260040161224e9061357b565b60405180910390fd5b80600560008573ffffffffffffffffffffffffffffffffffffffff1673ffffffffffffffffffffffffffffffffffffffff16815260200190815260200160002060008473ffffffffffffffffffffffffffffffffffffffff1673ffffffffffffffffffffffffffffffffffffffff16815260200190815260200160002060006101000a81548160ff0219169083151502179055508173ffffffffffffffffffffffffffffffffffffffff168373ffffffffffffffffffffffffffffffffffffffff167f17307eab39ab6107e8899845ad3d59bd9653f200f220920489ca2b5937696c318360405161234891906134de565b60405180910390a3505050565b612360848484611ed6565b61236c848484846124cf565b6123ab576040517f08c379a00000000000000000000000000000000000000000000000000000000081526004016123a29061351b565b60405180910390fd5b50505050565b606060405180602001604052806000815250905090565b60606123d382611ccb565b612412576040517f08c379a0000000000000000000000000000000000000000000000000000000008152600401612409906136bb565b60405180910390fd5b600061241c6123b1565b9050600081511161243c5760405180602001604052806000815250612467565b8061244684612666565b6040516020016124579291906133ea565b6040516020818303038152906040525b915050919050565b505050565b61247e83836127c7565b61248b60008484846124cf565b6124ca576040517f08c379a00000000000000000000000000000000000000000000000000000000081526004016124c19061351b565b60405180910390fd5b505050565b60006124f08473ffffffffffffffffffffffffffffffffffffffff16612995565b15612659578373ffffffffffffffffffffffffffffffffffffffff1663150b7a02612519611d37565b8786866040518563ffffffff1660e01b815260040161253b9493929190613470565b602060405180830381600087803b15801561255557600080fd5b505af192505050801561258657506040513d601f19601f820116820180604052508101906125839190612f83565b60015b612609573d80600081146125b6576040519150601f19603f3d011682016040523d82523d6000602084013e6125bb565b606091505b50600081511415612601576040517f08c379a00000000000000000000000000000000000000000000000000000000081526004016125f89061351b565b60405180910390fd5b805181602001fd5b63150b7a0260e01b7bffffffffffffffffffffffffffffffffffffffffffffffffffffffff1916817bffffffffffffffffffffffffffffffffffffffffffffffffffffffff19161491505061265e565b600190505b949350505050565b606060008214156126ae576040518060400160405280600181526020017f300000000000000000000000000000000000000000000000000000000000000081525090506127c2565b600082905060005b600082146126e05780806126c990613c9d565b915050600a826126d99190613942565b91506126b6565b60008167ffffffffffffffff8111156126fc576126fb613e0c565b5b6040519080825280601f01601f19166020018201604052801561272e5781602001600182028036833780820191505090505b5090505b600085146127bb576001826127479190613b3e565b9150600a856127569190613cf0565b603061276291906138ec565b60f81b81838151811061277857612777613ddd565b5b60200101907effffffffffffffffffffffffffffffffffffffffffffffffffffffffffffff1916908160001a905350600a856127b49190613942565b9450612732565b8093505050505b919050565b600073ffffffffffffffffffffffffffffffffffffffff168273ffffffffffffffffffffffffffffffffffffffff161415612837576040517f08c379a000000000000000000000000000000000000000000000000000000000815260040161282e9061363b565b60405180910390fd5b61284081611ccb565b15612880576040517f08c379a00000000000000000000000000000000000000000000000000000000081526004016128779061353b565b60405180910390fd5b61288c6000838361246f565b6001600360008473ffffffffffffffffffffffffffffffffffffffff1673ffffffffffffffffffffffffffffffffffffffff16815260200190815260200160002060008282546128dc91906138ec565b92505081905550816002600083815260200190815260200160002060006101000a81548173ffffffffffffffffffffffffffffffffffffffff021916908373ffffffffffffffffffffffffffffffffffffffff160217905550808273ffffffffffffffffffffffffffffffffffffffff16600073ffffffffffffffffffffffffffffffffffffffff167fddf252ad1be2c89b69c2b068fc378daa952ba7f163c4a11628f55a4df523b3ef60405160405180910390a45050565b600080823b905060008111915050919050565b6040518060200160405280600081525090565b8280546129c790613c3a565b90600052602060002090601f0160209004810192826129e95760008555612a30565b82601f10612a0257805160ff1916838001178555612a30565b82800160010185558215612a30579182015b82811115612a2f578251825591602001919060010190612a14565b5b509050612a3d9190612a41565b5090565b5b80821115612a5a576000816000905550600101612a42565b5090565b6000612a71612a6c846137b6565b613791565b90508083825260208201905082856020860282011115612a9457612a93613e40565b5b60005b85811015612ae257813567ffffffffffffffff811115612aba57612ab9613e3b565b5b808601612ac78982612cbe565b85526020850194506020840193505050600181019050612a97565b5050509392505050565b6000612aff612afa846137e2565b613791565b90508083825260208201905082856020860282011115612b2257612b21613e40565b5b60005b85811015612b525781612b388882612cec565b845260208401935060208301925050600181019050612b25565b5050509392505050565b6000612b6f612b6a8461380e565b613791565b905082815260208101848484011115612b8b57612b8a613e45565b5b612b96848285613bf8565b509392505050565b6000612bb1612bac8461383f565b613791565b905082815260208101848484011115612bcd57612bcc613e45565b5b612bd8848285613bf8565b509392505050565b600081359050612bef81614342565b92915050565b600082601f830112612c0a57612c09613e3b565b5b8135612c1a848260208601612a5e565b91505092915050565b600082601f830112612c3857612c37613e3b565b5b8135612c48848260208601612aec565b91505092915050565b600081359050612c6081614359565b92915050565b600081359050612c7581614370565b92915050565b600081519050612c8a81614370565b92915050565b600082601f830112612ca557612ca4613e3b565b5b8135612cb5848260208601612b5c565b91505092915050565b600082601f830112612cd357612cd2613e3b565b5b8135612ce3848260208601612b9e565b91505092915050565b600081359050612cfb81614387565b92915050565b600060208284031215612d1757612d16613e4f565b5b6000612d2584828501612be0565b91505092915050565b60008060408385031215612d4557612d44613e4f565b5b6000612d5385828601612be0565b9250506020612d6485828601612be0565b9150509250929050565b600080600060608486031215612d8757612d86613e4f565b5b6000612d9586828701612be0565b9350506020612da686828701612be0565b9250506040612db786828701612cec565b9150509250925092565b60008060008060808587031215612ddb57612dda613e4f565b5b6000612de987828801612be0565b9450506020612dfa87828801612be0565b9350506040612e0b87828801612cec565b925050606085013567ffffffffffffffff811115612e2c57612e2b613e4a565b5b612e3887828801612c90565b91505092959194509250565b60008060408385031215612e5b57612e5a613e4f565b5b6000612e6985828601612be0565b9250506020612e7a85828601612c51565b9150509250929050565b60008060408385031215612e9b57612e9a613e4f565b5b6000612ea985828601612be0565b9250506020612eba85828601612cec565b9150509250929050565b600060208284031215612eda57612ed9613e4f565b5b600082013567ffffffffffffffff811115612ef857612ef7613e4a565b5b612f0484828501612bf5565b91505092915050565b600060208284031215612f2357612f22613e4f565b5b600082013567ffffffffffffffff811115612f4157612f40613e4a565b5b612f4d84828501612c23565b91505092915050565b600060208284031215612f6c57612f6b613e4f565b5b6000612f7a84828501612c66565b91505092915050565b600060208284031215612f9957612f98613e4f565b5b6000612fa784828501612c7b565b91505092915050565b600060208284031215612fc657612fc5613e4f565b5b6000612fd484828501612cec565b91505092915050565b6000612fe983836133b5565b60208301905092915050565b612ffe81613b84565b82525050565b61300d81613b72565b82525050565b600061301e82613880565b61302881856138ae565b935061303383613870565b8060005b8381101561306457815161304b8882612fdd565b9750613056836138a1565b925050600181019050613037565b5085935050505092915050565b61307a81613b96565b82525050565b600061308b8261388b565b61309581856138bf565b93506130a5818560208601613c07565b6130ae81613e54565b840191505092915050565b60006130c482613896565b6130ce81856138d0565b93506130de818560208601613c07565b6130e781613e54565b840191505092915050565b60006130fd82613896565b61310781856138e1565b9350613117818560208601613c07565b80840191505092915050565b60006131306032836138d0565b915061313b82613e72565b604082019050919050565b6000613153601c836138d0565b915061315e82613ec1565b602082019050919050565b60006131766024836138d0565b915061318182613eea565b604082019050919050565b60006131996019836138d0565b91506131a482613f39565b602082019050919050565b60006131bc602c836138d0565b91506131c782613f62565b604082019050919050565b60006131df6038836138d0565b91506131ea82613fb1565b604082019050919050565b6000613202602a836138d0565b915061320d82614000565b604082019050919050565b60006132256029836138d0565b91506132308261404f565b604082019050919050565b6000613248602e836138d0565b91506132538261409e565b604082019050919050565b600061326b6020836138d0565b9150613276826140ed565b602082019050919050565b600061328e6031836138d0565b915061329982614116565b604082019050919050565b60006132b1602c836138d0565b91506132bc82614165565b604082019050919050565b60006132d46029836138d0565b91506132df826141b4565b604082019050919050565b60006132f7602f836138d0565b915061330282614203565b604082019050919050565b600061331a6021836138d0565b915061332582614252565b604082019050919050565b600061333d6009836138d0565b9150613348826142a1565b602082019050919050565b60006133606031836138d0565b915061336b826142ca565b604082019050919050565b6000613383600c836138d0565b915061338e82614319565b602082019050919050565b6020820160008201516133af60008501826133b5565b50505050565b6133be81613bee565b82525050565b6133cd81613bee565b82525050565b6133e46133df82613bee565b613ce6565b82525050565b60006133f682856130f2565b915061340282846130f2565b91508190509392505050565b600061341a82856133d3565b60208201915061342a82846133d3565b6020820191508190509392505050565b600060208201905061344f6000830184613004565b92915050565b600060208201905061346a6000830184612ff5565b92915050565b60006080820190506134856000830187613004565b6134926020830186613004565b61349f60408301856133c4565b81810360608301526134b18184613080565b905095945050505050565b600060208201905081810360008301526134d68184613013565b905092915050565b60006020820190506134f36000830184613071565b92915050565b6000602082019050818103600083015261351381846130b9565b905092915050565b6000602082019050818103600083015261353481613123565b9050919050565b6000602082019050818103600083015261355481613146565b9050919050565b6000602082019050818103600083015261357481613169565b9050919050565b600060208201905081810360008301526135948161318c565b9050919050565b600060208201905081810360008301526135b4816131af565b9050919050565b600060208201905081810360008301526135d4816131d2565b9050919050565b600060208201905081810360008301526135f4816131f5565b9050919050565b6000602082019050818103600083015261361481613218565b9050919050565b600060208201905081810360008301526136348161323b565b9050919050565b600060208201905081810360008301526136548161325e565b9050919050565b6000602082019050818103600083015261367481613281565b9050919050565b60006020820190508181036000830152613694816132a4565b9050919050565b600060208201905081810360008301526136b4816132c7565b9050919050565b600060208201905081810360008301526136d4816132ea565b9050919050565b600060208201905081810360008301526136f48161330d565b9050919050565b6000602082019050818103600083015261371481613330565b9050919050565b6000602082019050818103600083015261373481613353565b9050919050565b6000602082019050818103600083015261375481613376565b9050919050565b60006020820190506137706000830184613399565b92915050565b600060208201905061378b60008301846133c4565b92915050565b600061379b6137ac565b90506137a78282613c6c565b919050565b6000604051905090565b600067ffffffffffffffff8211156137d1576137d0613e0c565b5b602082029050602081019050919050565b600067ffffffffffffffff8211156137fd576137fc613e0c565b5b602082029050602081019050919050565b600067ffffffffffffffff82111561382957613828613e0c565b5b61383282613e54565b9050602081019050919050565b600067ffffffffffffffff82111561385a57613859613e0c565b5b61386382613e54565b9050602081019050919050565b6000819050602082019050919050565b600081519050919050565b600081519050919050565b600081519050919050565b6000602082019050919050565b600082825260208201905092915050565b600082825260208201905092915050565b600082825260208201905092915050565b600081905092915050565b60006138f782613bee565b915061390283613bee565b9250827fffffffffffffffffffffffffffffffffffffffffffffffffffffffffffffffff0382111561393757613936613d21565b5b828201905092915050565b600061394d82613bee565b915061395883613bee565b92508261396857613967613d50565b5b828204905092915050565b6000808291508390505b60018511156139bd5780860481111561399957613998613d21565b5b60018516156139a85780820291505b80810290506139b685613e65565b945061397d565b94509492505050565b60006139d182613bee565b91506139dc83613bee565b9250613a097fffffffffffffffffffffffffffffffffffffffffffffffffffffffffffffffff8484613a11565b905092915050565b600082613a215760019050613add565b81613a2f5760009050613add565b8160018114613a455760028114613a4f57613a7e565b6001915050613add565b60ff841115613a6157613a60613d21565b5b8360020a915084821115613a7857613a77613d21565b5b50613add565b5060208310610133831016604e8410600b8410161715613ab35782820a905083811115613aae57613aad613d21565b5b613add565b613ac08484846001613973565b92509050818404811115613ad757613ad6613d21565b5b81810290505b9392505050565b6000613aef82613bee565b9150613afa83613bee565b9250817fffffffffffffffffffffffffffffffffffffffffffffffffffffffffffffffff0483118215151615613b3357613b32613d21565b5b828202905092915050565b6000613b4982613bee565b9150613b5483613bee565b925082821015613b6757613b66613d21565b5b828203905092915050565b6000613b7d82613bce565b9050919050565b6000613b8f82613bce565b9050919050565b60008115159050919050565b60007fffffffff0000000000000000000000000000000000000000000000000000000082169050919050565b600073ffffffffffffffffffffffffffffffffffffffff82169050919050565b6000819050919050565b82818337600083830152505050565b60005b83811015613c25578082015181840152602081019050613c0a565b83811115613c34576000848401525b50505050565b60006002820490506001821680613c5257607f821691505b60208210811415613c6657613c65613d7f565b5b50919050565b613c7582613e54565b810181811067ffffffffffffffff82111715613c9457613c93613e0c565b5b80604052505050565b6000613ca882613bee565b91507fffffffffffffffffffffffffffffffffffffffffffffffffffffffffffffffff821415613cdb57613cda613d21565b5b600182019050919050565b6000819050919050565b6000613cfb82613bee565b9150613d0683613bee565b925082613d1657613d15613d50565b5b828206905092915050565b7f4e487b7100000000000000000000000000000000000000000000000000000000600052601160045260246000fd5b7f4e487b7100000000000000000000000000000000000000000000000000000000600052601260045260246000fd5b7f4e487b7100000000000000000000000000000000000000000000000000000000600052602260045260246000fd5b7f4e487b7100000000000000000000000000000000000000000000000000000000600052603160045260246000fd5b7f4e487b7100000000000000000000000000000000000000000000000000000000600052603260045260246000fd5b7f4e487b7100000000000000000000000000000000000000000000000000000000600052604160045260246000fd5b600080fd5b600080fd5b600080fd5b600080fd5b600080fd5b6000601f19601f8301169050919050565b60008160011c9050919050565b7f4552433732313a207472616e7366657220746f206e6f6e20455243373231526560008201527f63656976657220696d706c656d656e7465720000000000000000000000000000602082015250565b7f4552433732313a20746f6b656e20616c7265616479206d696e74656400000000600082015250565b7f4552433732313a207472616e7366657220746f20746865207a65726f2061646460008201527f7265737300000000000000000000000000000000000000000000000000000000602082015250565b7f4552433732313a20617070726f766520746f2063616c6c657200000000000000600082015250565b7f4552433732313a206f70657261746f7220717565727920666f72206e6f6e657860008201527f697374656e7420746f6b656e0000000000000000000000000000000000000000602082015250565b7f4552433732313a20617070726f76652063616c6c6572206973206e6f74206f7760008201527f6e6572206e6f7220617070726f76656420666f7220616c6c0000000000000000602082015250565b7f4552433732313a2062616c616e636520717565727920666f7220746865207a6560008201527f726f206164647265737300000000000000000000000000000000000000000000602082015250565b7f4552433732313a206f776e657220717565727920666f72206e6f6e657869737460008201527f656e7420746f6b656e0000000000000000000000000000000000000000000000602082015250565b7f45524337323155524953746f726167653a2055524920736574206f66206e6f6e60008201527f6578697374656e7420746f6b656e000000000000000000000000000000000000602082015250565b7f4552433732313a206d696e7420746f20746865207a65726f2061646472657373600082015250565b7f45524337323155524953746f726167653a2055524920717565727920666f722060008201527f6e6f6e6578697374656e7420746f6b656e000000000000000000000000000000602082015250565b7f4552433732313a20617070726f76656420717565727920666f72206e6f6e657860008201527f697374656e7420746f6b656e0000000000000000000000000000000000000000602082015250565b7f4552433732313a207472616e73666572206f6620746f6b656e2074686174206960008201527f73206e6f74206f776e0000000000000000000000000000000000000000000000602082015250565b7f4552433732314d657461646174613a2055524920717565727920666f72206e6f60008201527f6e6578697374656e7420746f6b656e0000000000000000000000000000000000602082015250565b7f4552433732313a20617070726f76616c20746f2063757272656e74206f776e6560008201527f7200000000000000000000000000000000000000000000000000000000000000602082015250565b7f4e6f74206f776e65720000000000000000000000000000000000000000000000600082015250565b7f4552433732313a207472616e736665722063616c6c6572206973206e6f74206f60008201527f776e6572206e6f7220617070726f766564000000000000000000000000000000602082015250565b7f4d4f4e45592055204b4f4e570000000000000000000000000000000000000000600082015250565b61434b81613b72565b811461435657600080fd5b50565b61436281613b96565b811461436d57600080fd5b50565b61437981613ba2565b811461438457600080fd5b50565b61439081613bee565b811461439b57600080fd5b5056fea264697066735822122083c02c044a5c1a9d7e615eda109abdb25d814a786e909e3d941255b0630df6a264736f6c63430008050033",
  "linkReferences": {},
  "deployedLinkReferences": {}
}