{
  "_format": "hh-sol-artifact-1",
  "contractName": "WileCard",
  "sourceName": "contracts/Card.sol",
  "abi": [
    {
      "inputs": [],
      "stateMutability": "nonpayable",
      "type": "constructor"
    },
    {
      "anonymous": false,
      "inputs": [
        {
          "indexed": true,
          "internalType": "address",
          "name": "owner",
          "type": "address"
        },
        {
          "indexed": true,
          "internalType": "address",
          "name": "approved",
          "type": "address"
        },
        {
          "indexed": true,
          "internalType": "uint256",
          "name": "tokenId",
          "type": "uint256"
        }
      ],
      "name": "Approval",
      "type": "event"
    },
    {
      "anonymous": false,
      "inputs": [
        {
          "indexed": true,
          "internalType": "address",
          "name": "owner",
          "type": "address"
        },
        {
          "indexed": true,
          "internalType": "address",
          "name": "operator",
          "type": "address"
        },
        {
          "indexed": false,
          "internalType": "bool",
          "name": "approved",
          "type": "bool"
        }
      ],
      "name": "ApprovalForAll",
      "type": "event"
    },
    {
      "anonymous": false,
      "inputs": [
        {
          "indexed": true,
          "internalType": "address",
          "name": "from",
          "type": "address"
        },
        {
          "indexed": true,
          "internalType": "address",
          "name": "to",
          "type": "address"
        },
        {
          "indexed": true,
          "internalType": "uint256",
          "name": "tokenId",
          "type": "uint256"
        }
      ],
      "name": "Transfer",
      "type": "event"
    },
    {
      "inputs": [],
      "name": "Owner",
      "outputs": [
        {
          "internalType": "address payable",
          "name": "",
          "type": "address"
        }
      ],
      "stateMutability": "view",
      "type": "function"
    },
    {
      "inputs": [
        {
          "internalType": "address",
          "name": "to",
          "type": "address"
        },
        {
          "internalType": "uint256",
          "name": "tokenId",
          "type": "uint256"
        }
      ],
      "name": "approve",
      "outputs": [],
      "stateMutability": "nonpayable",
      "type": "function"
    },
    {
      "inputs": [
        {
          "internalType": "address",
          "name": "owner",
          "type": "address"
        }
      ],
      "name": "balanceOf",
      "outputs": [
        {
          "internalType": "uint256",
          "name": "",
          "type": "uint256"
        }
      ],
      "stateMutability": "view",
      "type": "function"
    },
    {
      "inputs": [
        {
          "internalType": "uint256",
          "name": "_fee",
          "type": "uint256"
        }
      ],
      "name": "changeFee",
      "outputs": [
        {
          "internalType": "uint256",
          "name": "",
          "type": "uint256"
        }
      ],
      "stateMutability": "nonpayable",
      "type": "function"
    },
    {
      "inputs": [],
      "name": "deposit",
      "outputs": [
        {
          "internalType": "uint256",
          "name": "",
          "type": "uint256"
        }
      ],
      "stateMutability": "payable",
      "type": "function"
    },
    {
      "inputs": [],
      "name": "deposits",
      "outputs": [
        {
          "internalType": "uint256",
          "name": "",
          "type": "uint256"
        }
      ],
      "stateMutability": "view",
      "type": "function"
    },
    {
      "inputs": [
        {
          "internalType": "uint256",
          "name": "tokenId",
          "type": "uint256"
        }
      ],
      "name": "getApproved",
      "outputs": [
        {
          "internalType": "address",
          "name": "",
          "type": "address"
        }
      ],
      "stateMutability": "view",
      "type": "function"
    },
    {
      "inputs": [],
      "name": "getBalance",
      "outputs": [
        {
          "internalType": "uint256",
          "name": "",
          "type": "uint256"
        }
      ],
      "stateMutability": "view",
      "type": "function"
    },
    {
      "inputs": [],
      "name": "getUserToken",
      "outputs": [
        {
          "internalType": "uint256[]",
          "name": "",
          "type": "uint256[]"
        }
      ],
      "stateMutability": "view",
      "type": "function"
    },
    {
      "inputs": [
        {
          "internalType": "address",
          "name": "sender",
          "type": "address"
        }
      ],
      "name": "getUserTokenWithAddress",
      "outputs": [
        {
          "internalType": "uint256[]",
          "name": "",
          "type": "uint256[]"
        }
      ],
      "stateMutability": "view",
      "type": "function"
    },
    {
      "inputs": [
        {
          "internalType": "address",
          "name": "owner",
          "type": "address"
        },
        {
          "internalType": "address",
          "name": "operator",
          "type": "address"
        }
      ],
      "name": "isApprovedForAll",
      "outputs": [
        {
          "internalType": "bool",
          "name": "",
          "type": "bool"
        }
      ],
      "stateMutability": "view",
      "type": "function"
    },
    {
      "inputs": [
        {
          "internalType": "string",
          "name": "tokenURI",
          "type": "string"
        }
      ],
      "name": "mintNFT",
      "outputs": [
        {
          "internalType": "uint256",
          "name": "",
          "type": "uint256"
        }
      ],
      "stateMutability": "nonpayable",
      "type": "function"
    },
    {
      "inputs": [],
      "name": "name",
      "outputs": [
        {
          "internalType": "string",
          "name": "",
          "type": "string"
        }
      ],
      "stateMutability": "view",
      "type": "function"
    },
    {
      "inputs": [
        {
          "internalType": "uint256",
          "name": "tokenId",
          "type": "uint256"
        }
      ],
      "name": "ownerOf",
      "outputs": [
        {
          "internalType": "address",
          "name": "",
          "type": "address"
        }
      ],
      "stateMutability": "view",
      "type": "function"
    },
    {
      "inputs": [
        {
          "internalType": "address",
          "name": "from",
          "type": "address"
        },
        {
          "internalType": "address",
          "name": "to",
          "type": "address"
        },
        {
          "internalType": "uint256",
          "name": "tokenId",
          "type": "uint256"
        }
      ],
      "name": "safeTransferFrom",
      "outputs": [],
      "stateMutability": "nonpayable",
      "type": "function"
    },
    {
      "inputs": [
        {
          "internalType": "address",
          "name": "from",
          "type": "address"
        },
        {
          "internalType": "address",
          "name": "to",
          "type": "address"
        },
        {
          "internalType": "uint256",
          "name": "tokenId",
          "type": "uint256"
        },
        {
          "internalType": "bytes",
          "name": "_data",
          "type": "bytes"
        }
      ],
      "name": "safeTransferFrom",
      "outputs": [],
      "stateMutability": "nonpayable",
      "type": "function"
    },
    {
      "inputs": [
        {
          "internalType": "address",
          "name": "operator",
          "type": "address"
        },
        {
          "internalType": "bool",
          "name": "approved",
          "type": "bool"
        }
      ],
      "name": "setApprovalForAll",
      "outputs": [],
      "stateMutability": "nonpayable",
      "type": "function"
    },
    {
      "inputs": [
        {
          "internalType": "bytes4",
          "name": "interfaceId",
          "type": "bytes4"
        }
      ],
      "name": "supportsInterface",
      "outputs": [
        {
          "internalType": "bool",
          "name": "",
          "type": "bool"
        }
      ],
      "stateMutability": "view",
      "type": "function"
    },
    {
      "inputs": [],
      "name": "symbol",
      "outputs": [
        {
          "internalType": "string",
          "name": "",
          "type": "string"
        }
      ],
      "stateMutability": "view",
      "type": "function"
    },
    {
      "inputs": [
        {
          "internalType": "uint256",
          "name": "tokenId",
          "type": "uint256"
        }
      ],
      "name": "tokenURI",
      "outputs": [
        {
          "internalType": "string",
          "name": "",
          "type": "string"
        }
      ],
      "stateMutability": "view",
      "type": "function"
    },
    {
      "inputs": [],
      "name": "totalSupply",
      "outputs": [
        {
          "components": [
            {
              "internalType": "uint256",
              "name": "_value",
              "type": "uint256"
            }
          ],
          "internalType": "struct Counters.Counter",
          "name": "",
          "type": "tuple"
        }
      ],
      "stateMutability": "view",
      "type": "function"
    },
    {
      "inputs": [
        {
          "internalType": "address",
          "name": "from",
          "type": "address"
        },
        {
          "internalType": "address",
          "name": "to",
          "type": "address"
        },
        {
          "internalType": "uint256",
          "name": "tokenId",
          "type": "uint256"
        }
      ],
      "name": "transferFrom",
      "outputs": [],
      "stateMutability": "nonpayable",
      "type": "function"
    },
    {
      "inputs": [
        {
          "internalType": "address",
          "name": "from",
          "type": "address"
        },
        {
          "internalType": "address",
          "name": "to",
          "type": "address"
        },
        {
          "internalType": "uint256",
          "name": "tokenId",
          "type": "uint256"
        }
      ],
      "name": "transferNFT",
      "outputs": [],
      "stateMutability": "nonpayable",
      "type": "function"
    },
    {
      "inputs": [
        {
          "internalType": "address",
          "name": "",
          "type": "address"
        },
        {
          "internalType": "uint256",
          "name": "",
          "type": "uint256"
        }
      ],
      "name": "userOwnedTokens",
      "outputs": [
        {
          "internalType": "uint256",
          "name": "",
          "type": "uint256"
        }
      ],
      "stateMutability": "view",
      "type": "function"
    },
    {
      "inputs": [
        {
          "internalType": "uint256",
          "name": "_amount",
          "type": "uint256"
        }
      ],
      "name": "withdraw",
      "outputs": [],
      "stateMutability": "nonpayable",
      "type": "function"
    }
  ],
  "bytecode": "0x6080604052600060085560006009556008600b553480156200002057600080fd5b506040518060400160405280600881526020017f57696c65436172640000000000000000000000000000000000000000000000008152506040518060400160405280600481526020017f57696c65000000000000000000000000000000000000000000000000000000008152508160009080519060200190620000a592919062000108565b508060019080519060200190620000be92919062000108565b50505033600a60006101000a81548173ffffffffffffffffffffffffffffffffffffffff021916908373ffffffffffffffffffffffffffffffffffffffff1602179055506200021d565b8280546200011690620001b8565b90600052602060002090601f0160209004810192826200013a576000855562000186565b82601f106200015557805160ff191683800117855562000186565b8280016001018555821562000186579182015b828111156200018557825182559160200191906001019062000168565b5b50905062000195919062000199565b5090565b5b80821115620001b45760008160009055506001016200019a565b5090565b60006002820490506001821680620001d157607f821691505b60208210811415620001e857620001e7620001ee565b5b50919050565b7f4e487b7100000000000000000000000000000000000000000000000000000000600052602260045260246000fd5b61395e806200022d6000396000f3fe6080604052600436106101665760003560e01c806369e9cae1116100d1578063b4a99a4e1161008a578063d0e30db011610064578063d0e30db014610574578063e546b9a314610592578063e985e9c5146105bd578063fb37e883146105fa57610166565b8063b4a99a4e146104e3578063b88d4fde1461050e578063c87b56dd1461053757610166565b806369e9cae1146103af5780636a1db1bf146103d857806370a082311461041557806395d89b41146104525780639e4838151461047d578063a22cb465146104ba57610166565b806318160ddd1161012357806318160ddd146102a157806323b872dd146102cc5780632e1a7d4d146102f5578063323a5e0b1461031e57806342842e0e146103495780636352211e1461037257610166565b806301ffc9a71461016b57806306fdde03146101a8578063081812fc146101d3578063095ea7b31461021057806312065fe01461023957806314b924e214610264575b600080fd5b34801561017757600080fd5b50610192600480360381019061018d9190612570565b610637565b60405161019f9190612afe565b60405180910390f35b3480156101b457600080fd5b506101bd610719565b6040516101ca9190612b19565b60405180910390f35b3480156101df57600080fd5b506101fa60048036038101906101f59190612613565b6107ab565b6040516102079190612a5a565b60405180910390f35b34801561021c57600080fd5b5061023760048036038101906102329190612530565b610830565b005b34801561024557600080fd5b5061024e610948565b60405161025b9190612d96565b60405180910390f35b34801561027057600080fd5b5061028b60048036038101906102869190612530565b610950565b6040516102989190612d96565b60405180910390f35b3480156102ad57600080fd5b506102b6610981565b6040516102c39190612d7b565b60405180910390f35b3480156102d857600080fd5b506102f360048036038101906102ee919061241a565b6109a5565b005b34801561030157600080fd5b5061031c60048036038101906103179190612613565b610a05565b005b34801561032a57600080fd5b50610333610b01565b6040516103409190612d96565b60405180910390f35b34801561035557600080fd5b50610370600480360381019061036b919061241a565b610b07565b005b34801561037e57600080fd5b5061039960048036038101906103949190612613565b610b27565b6040516103a69190612a5a565b60405180910390f35b3480156103bb57600080fd5b506103d660048036038101906103d1919061241a565b610bd9565b005b3480156103e457600080fd5b506103ff60048036038101906103fa9190612613565b610dc9565b60405161040c9190612d96565b60405180910390f35b34801561042157600080fd5b5061043c600480360381019061043791906123ad565b610ddc565b6040516104499190612d96565b60405180910390f35b34801561045e57600080fd5b50610467610e94565b6040516104749190612b19565b60405180910390f35b34801561048957600080fd5b506104a4600480360381019061049f91906123ad565b610f26565b6040516104b19190612adc565b60405180910390f35b3480156104c657600080fd5b506104e160048036038101906104dc91906124f0565b610fbd565b005b3480156104ef57600080fd5b506104f8610fd3565b6040516105059190612a75565b60405180910390f35b34801561051a57600080fd5b506105356004803603810190610530919061246d565b610ff9565b005b34801561054357600080fd5b5061055e60048036038101906105599190612613565b61105b565b60405161056b9190612b19565b60405180910390f35b61057c6111ad565b6040516105899190612d96565b60405180910390f35b34801561059e57600080fd5b506105a7611211565b6040516105b49190612adc565b60405180910390f35b3480156105c957600080fd5b506105e460048036038101906105df91906123da565b6112a6565b6040516105f19190612afe565b60405180910390f35b34801561060657600080fd5b50610621600480360381019061061c91906125ca565b61133a565b60405161062e9190612d96565b60405180910390f35b60007f80ac58cd000000000000000000000000000000000000000000000000000000007bffffffffffffffffffffffffffffffffffffffffffffffffffffffff1916827bffffffffffffffffffffffffffffffffffffffffffffffffffffffff1916148061070257507f5b5e139f000000000000000000000000000000000000000000000000000000007bffffffffffffffffffffffffffffffffffffffffffffffffffffffff1916827bffffffffffffffffffffffffffffffffffffffffffffffffffffffff1916145b80610712575061071182611467565b5b9050919050565b60606000805461072890613202565b80601f016020809104026020016040519081016040528092919081815260200182805461075490613202565b80156107a15780601f10610776576101008083540402835291602001916107a1565b820191906000526020600020905b81548152906001019060200180831161078457829003601f168201915b5050505050905090565b60006107b6826114d1565b6107f5576040517f08c379a00000000000000000000000000000000000000000000000000000000081526004016107ec90612c9b565b60405180910390fd5b6004600083815260200190815260200160002060009054906101000a900473ffffffffffffffffffffffffffffffffffffffff169050919050565b600061083b82610b27565b90508073ffffffffffffffffffffffffffffffffffffffff168373ffffffffffffffffffffffffffffffffffffffff1614156108ac576040517f08c379a00000000000000000000000000000000000000000000000000000000081526004016108a390612cfb565b60405180910390fd5b8073ffffffffffffffffffffffffffffffffffffffff166108cb61153d565b73ffffffffffffffffffffffffffffffffffffffff1614806108fa57506108f9816108f461153d565b6112a6565b5b610939576040517f08c379a000000000000000000000000000000000000000000000000000000000815260040161093090612bdb565b60405180910390fd5b6109438383611545565b505050565b600047905090565b600c602052816000526040600020818154811061096c57600080fd5b90600052602060002001600091509150505481565b6109896121ae565b6007604051806020016040529081600082015481525050905090565b6109b66109b061153d565b826115fe565b6109f5576040517f08c379a00000000000000000000000000000000000000000000000000000000081526004016109ec90612d3b565b60405180910390fd5b610a008383836116dc565b505050565b600a60009054906101000a900473ffffffffffffffffffffffffffffffffffffffff1673ffffffffffffffffffffffffffffffffffffffff163373ffffffffffffffffffffffffffffffffffffffff1614610a95576040517f08c379a0000000000000000000000000000000000000000000000000000000008152600401610a8c90612d1b565b60405180910390fd5b600a60009054906101000a900473ffffffffffffffffffffffffffffffffffffffff1673ffffffffffffffffffffffffffffffffffffffff166108fc829081150290604051600060405180830381858888f19350505050158015610afd573d6000803e3d6000fd5b5050565b60085481565b610b2283838360405180602001604052806000815250610ff9565b505050565b6000806002600084815260200190815260200160002060009054906101000a900473ffffffffffffffffffffffffffffffffffffffff169050600073ffffffffffffffffffffffffffffffffffffffff168173ffffffffffffffffffffffffffffffffffffffff161415610bd0576040517f08c379a0000000000000000000000000000000000000000000000000000000008152600401610bc790612c1b565b60405180910390fd5b80915050919050565b610bea610be461153d565b826115fe565b610c29576040517f08c379a0000000000000000000000000000000000000000000000000000000008152600401610c2090612d3b565b60405180910390fd5b600c60008373ffffffffffffffffffffffffffffffffffffffff1673ffffffffffffffffffffffffffffffffffffffff16815260200190815260200160002081908060018154018082558091505060019003906000526020600020016000909190919091505560005b600c60008573ffffffffffffffffffffffffffffffffffffffff1673ffffffffffffffffffffffffffffffffffffffff16815260200190815260200160002080549050811015610db85781600c60008673ffffffffffffffffffffffffffffffffffffffff1673ffffffffffffffffffffffffffffffffffffffff1681526020019081526020016000208281548110610d2e57610d2d61336c565b5b90600052602060002001541415610da5576000600c60008673ffffffffffffffffffffffffffffffffffffffff1673ffffffffffffffffffffffffffffffffffffffff1681526020019081526020016000208281548110610d9257610d9161336c565b5b9060005260206000200181905550610db8565b8080610db090613265565b915050610c92565b50610dc48383836116dc565b505050565b600081600b81905550600b549050919050565b60008073ffffffffffffffffffffffffffffffffffffffff168273ffffffffffffffffffffffffffffffffffffffff161415610e4d576040517f08c379a0000000000000000000000000000000000000000000000000000000008152600401610e4490612bfb565b60405180910390fd5b600360008373ffffffffffffffffffffffffffffffffffffffff1673ffffffffffffffffffffffffffffffffffffffff168152602001908152602001600020549050919050565b606060018054610ea390613202565b80601f0160208091040260200160405190810160405280929190818152602001828054610ecf90613202565b8015610f1c5780601f10610ef157610100808354040283529160200191610f1c565b820191906000526020600020905b815481529060010190602001808311610eff57829003601f168201915b5050505050905090565b6060600c60008373ffffffffffffffffffffffffffffffffffffffff1673ffffffffffffffffffffffffffffffffffffffff168152602001908152602001600020805480602002602001604051908101604052809291908181526020018280548015610fb157602002820191906000526020600020905b815481526020019060010190808311610f9d575b50505050509050919050565b610fcf610fc861153d565b8383611938565b5050565b600a60009054906101000a900473ffffffffffffffffffffffffffffffffffffffff1681565b61100a61100461153d565b836115fe565b611049576040517f08c379a000000000000000000000000000000000000000000000000000000000815260040161104090612d3b565b60405180910390fd5b61105584848484611aa5565b50505050565b6060611066826114d1565b6110a5576040517f08c379a000000000000000000000000000000000000000000000000000000000815260040161109c90612c7b565b60405180910390fd5b60006006600084815260200190815260200160002080546110c590613202565b80601f01602080910402602001604051908101604052809291908181526020018280546110f190613202565b801561113e5780601f106111135761010080835404028352916020019161113e565b820191906000526020600020905b81548152906001019060200180831161112157829003601f168201915b50505050509050600061114f611b01565b90506000815114156111655781925050506111a8565b60008251111561119a578082604051602001611182929190612a36565b604051602081830303815290604052925050506111a8565b6111a384611b18565b925050505b919050565b6000600b54600a6111be9190612f8e565b60016111ca91906130ac565b341461120b576040517f08c379a000000000000000000000000000000000000000000000000000000000815260040161120290612d5b565b60405180910390fd5b34905090565b6060600c60003373ffffffffffffffffffffffffffffffffffffffff1673ffffffffffffffffffffffffffffffffffffffff16815260200190815260200160002080548060200260200160405190810160405280929190818152602001828054801561129c57602002820191906000526020600020905b815481526020019060010190808311611288575b5050505050905090565b6000600560008473ffffffffffffffffffffffffffffffffffffffff1673ffffffffffffffffffffffffffffffffffffffff16815260200190815260200160002060008373ffffffffffffffffffffffffffffffffffffffff1673ffffffffffffffffffffffffffffffffffffffff16815260200190815260200160002060009054906101000a900460ff16905092915050565b6000600a60009054906101000a900473ffffffffffffffffffffffffffffffffffffffff1673ffffffffffffffffffffffffffffffffffffffff163373ffffffffffffffffffffffffffffffffffffffff16146113cc576040517f08c379a00000000000000000000000000000000000000000000000000000000081526004016113c390612d1b565b60405180910390fd5b6113d66007611bbf565b60006113e26007611bd5565b90506113ee3382611be3565b6113f88184611c01565b600c60003373ffffffffffffffffffffffffffffffffffffffff1673ffffffffffffffffffffffffffffffffffffffff16815260200190815260200160002081908060018154018082558091505060019003906000526020600020016000909190919091505580915050919050565b60007f01ffc9a7000000000000000000000000000000000000000000000000000000007bffffffffffffffffffffffffffffffffffffffffffffffffffffffff1916827bffffffffffffffffffffffffffffffffffffffffffffffffffffffff1916149050919050565b60008073ffffffffffffffffffffffffffffffffffffffff166002600084815260200190815260200160002060009054906101000a900473ffffffffffffffffffffffffffffffffffffffff1673ffffffffffffffffffffffffffffffffffffffff1614159050919050565b600033905090565b816004600083815260200190815260200160002060006101000a81548173ffffffffffffffffffffffffffffffffffffffff021916908373ffffffffffffffffffffffffffffffffffffffff160217905550808273ffffffffffffffffffffffffffffffffffffffff166115b883610b27565b73ffffffffffffffffffffffffffffffffffffffff167f8c5be1e5ebec7d5bd14f71427d1e84f3dd0314c0f7b2291e5b200ac8c7c3b92560405160405180910390a45050565b6000611609826114d1565b611648576040517f08c379a000000000000000000000000000000000000000000000000000000000815260040161163f90612bbb565b60405180910390fd5b600061165383610b27565b90508073ffffffffffffffffffffffffffffffffffffffff168473ffffffffffffffffffffffffffffffffffffffff1614806116c257508373ffffffffffffffffffffffffffffffffffffffff166116aa846107ab565b73ffffffffffffffffffffffffffffffffffffffff16145b806116d357506116d281856112a6565b5b91505092915050565b8273ffffffffffffffffffffffffffffffffffffffff166116fc82610b27565b73ffffffffffffffffffffffffffffffffffffffff1614611752576040517f08c379a000000000000000000000000000000000000000000000000000000000815260040161174990612cbb565b60405180910390fd5b600073ffffffffffffffffffffffffffffffffffffffff168273ffffffffffffffffffffffffffffffffffffffff1614156117c2576040517f08c379a00000000000000000000000000000000000000000000000000000000081526004016117b990612b7b565b60405180910390fd5b6117cd838383611c75565b6117d8600082611545565b6001600360008573ffffffffffffffffffffffffffffffffffffffff1673ffffffffffffffffffffffffffffffffffffffff16815260200190815260200160002060008282546118289190613106565b925050819055506001600360008473ffffffffffffffffffffffffffffffffffffffff1673ffffffffffffffffffffffffffffffffffffffff168152602001908152602001600020600082825461187f9190612eb4565b92505081905550816002600083815260200190815260200160002060006101000a81548173ffffffffffffffffffffffffffffffffffffffff021916908373ffffffffffffffffffffffffffffffffffffffff160217905550808273ffffffffffffffffffffffffffffffffffffffff168473ffffffffffffffffffffffffffffffffffffffff167fddf252ad1be2c89b69c2b068fc378daa952ba7f163c4a11628f55a4df523b3ef60405160405180910390a4505050565b8173ffffffffffffffffffffffffffffffffffffffff168373ffffffffffffffffffffffffffffffffffffffff1614156119a7576040517f08c379a000000000000000000000000000000000000000000000000000000000815260040161199e90612b9b565b60405180910390fd5b80600560008573ffffffffffffffffffffffffffffffffffffffff1673ffffffffffffffffffffffffffffffffffffffff16815260200190815260200160002060008473ffffffffffffffffffffffffffffffffffffffff1673ffffffffffffffffffffffffffffffffffffffff16815260200190815260200160002060006101000a81548160ff0219169083151502179055508173ffffffffffffffffffffffffffffffffffffffff168373ffffffffffffffffffffffffffffffffffffffff167f17307eab39ab6107e8899845ad3d59bd9653f200f220920489ca2b5937696c3183604051611a989190612afe565b60405180910390a3505050565b611ab08484846116dc565b611abc84848484611c7a565b611afb576040517f08c379a0000000000000000000000000000000000000000000000000000000008152600401611af290612b3b565b60405180910390fd5b50505050565b606060405180602001604052806000815250905090565b6060611b23826114d1565b611b62576040517f08c379a0000000000000000000000000000000000000000000000000000000008152600401611b5990612cdb565b60405180910390fd5b6000611b6c611b01565b90506000815111611b8c5760405180602001604052806000815250611bb7565b80611b9684611e11565b604051602001611ba7929190612a36565b6040516020818303038152906040525b915050919050565b6001816000016000828254019250508190555050565b600081600001549050919050565b611bfd828260405180602001604052806000815250611f72565b5050565b611c0a826114d1565b611c49576040517f08c379a0000000000000000000000000000000000000000000000000000000008152600401611c4090612c3b565b60405180910390fd5b80600660008481526020019081526020016000209080519060200190611c709291906121c1565b505050565b505050565b6000611c9b8473ffffffffffffffffffffffffffffffffffffffff16611fcd565b15611e04578373ffffffffffffffffffffffffffffffffffffffff1663150b7a02611cc461153d565b8786866040518563ffffffff1660e01b8152600401611ce69493929190612a90565b602060405180830381600087803b158015611d0057600080fd5b505af1925050508015611d3157506040513d601f19601f82011682018060405250810190611d2e919061259d565b60015b611db4573d8060008114611d61576040519150601f19603f3d011682016040523d82523d6000602084013e611d66565b606091505b50600081511415611dac576040517f08c379a0000000000000000000000000000000000000000000000000000000008152600401611da390612b3b565b60405180910390fd5b805181602001fd5b63150b7a0260e01b7bffffffffffffffffffffffffffffffffffffffffffffffffffffffff1916817bffffffffffffffffffffffffffffffffffffffffffffffffffffffff191614915050611e09565b600190505b949350505050565b60606000821415611e59576040518060400160405280600181526020017f30000000000000000000000000000000000000000000000000000000000000008152509050611f6d565b600082905060005b60008214611e8b578080611e7490613265565b915050600a82611e849190612f0a565b9150611e61565b60008167ffffffffffffffff811115611ea757611ea661339b565b5b6040519080825280601f01601f191660200182016040528015611ed95781602001600182028036833780820191505090505b5090505b60008514611f6657600182611ef29190613106565b9150600a85611f0191906132ae565b6030611f0d9190612eb4565b60f81b818381518110611f2357611f2261336c565b5b60200101907effffffffffffffffffffffffffffffffffffffffffffffffffffffffffffff1916908160001a905350600a85611f5f9190612f0a565b9450611edd565b8093505050505b919050565b611f7c8383611fe0565b611f896000848484611c7a565b611fc8576040517f08c379a0000000000000000000000000000000000000000000000000000000008152600401611fbf90612b3b565b60405180910390fd5b505050565b600080823b905060008111915050919050565b600073ffffffffffffffffffffffffffffffffffffffff168273ffffffffffffffffffffffffffffffffffffffff161415612050576040517f08c379a000000000000000000000000000000000000000000000000000000000815260040161204790612c5b565b60405180910390fd5b612059816114d1565b15612099576040517f08c379a000000000000000000000000000000000000000000000000000000000815260040161209090612b5b565b60405180910390fd5b6120a560008383611c75565b6001600360008473ffffffffffffffffffffffffffffffffffffffff1673ffffffffffffffffffffffffffffffffffffffff16815260200190815260200160002060008282546120f59190612eb4565b92505081905550816002600083815260200190815260200160002060006101000a81548173ffffffffffffffffffffffffffffffffffffffff021916908373ffffffffffffffffffffffffffffffffffffffff160217905550808273ffffffffffffffffffffffffffffffffffffffff16600073ffffffffffffffffffffffffffffffffffffffff167fddf252ad1be2c89b69c2b068fc378daa952ba7f163c4a11628f55a4df523b3ef60405160405180910390a45050565b6040518060200160405280600081525090565b8280546121cd90613202565b90600052602060002090601f0160209004810192826121ef5760008555612236565b82601f1061220857805160ff1916838001178555612236565b82800160010185558215612236579182015b8281111561223557825182559160200191906001019061221a565b5b5090506122439190612247565b5090565b5b80821115612260576000816000905550600101612248565b5090565b600061227761227284612dd6565b612db1565b905082815260208101848484011115612293576122926133cf565b5b61229e8482856131c0565b509392505050565b60006122b96122b484612e07565b612db1565b9050828152602081018484840111156122d5576122d46133cf565b5b6122e08482856131c0565b509392505050565b6000813590506122f7816138cc565b92915050565b60008135905061230c816138e3565b92915050565b600081359050612321816138fa565b92915050565b600081519050612336816138fa565b92915050565b600082601f830112612351576123506133ca565b5b8135612361848260208601612264565b91505092915050565b600082601f83011261237f5761237e6133ca565b5b813561238f8482602086016122a6565b91505092915050565b6000813590506123a781613911565b92915050565b6000602082840312156123c3576123c26133d9565b5b60006123d1848285016122e8565b91505092915050565b600080604083850312156123f1576123f06133d9565b5b60006123ff858286016122e8565b9250506020612410858286016122e8565b9150509250929050565b600080600060608486031215612433576124326133d9565b5b6000612441868287016122e8565b9350506020612452868287016122e8565b925050604061246386828701612398565b9150509250925092565b60008060008060808587031215612487576124866133d9565b5b6000612495878288016122e8565b94505060206124a6878288016122e8565b93505060406124b787828801612398565b925050606085013567ffffffffffffffff8111156124d8576124d76133d4565b5b6124e48782880161233c565b91505092959194509250565b60008060408385031215612507576125066133d9565b5b6000612515858286016122e8565b9250506020612526858286016122fd565b9150509250929050565b60008060408385031215612547576125466133d9565b5b6000612555858286016122e8565b925050602061256685828601612398565b9150509250929050565b600060208284031215612586576125856133d9565b5b600061259484828501612312565b91505092915050565b6000602082840312156125b3576125b26133d9565b5b60006125c184828501612327565b91505092915050565b6000602082840312156125e0576125df6133d9565b5b600082013567ffffffffffffffff8111156125fe576125fd6133d4565b5b61260a8482850161236a565b91505092915050565b600060208284031215612629576126286133d9565b5b600061263784828501612398565b91505092915050565b600061264c8383612a18565b60208301905092915050565b6126618161314c565b82525050565b6126708161313a565b82525050565b600061268182612e48565b61268b8185612e76565b935061269683612e38565b8060005b838110156126c75781516126ae8882612640565b97506126b983612e69565b92505060018101905061269a565b5085935050505092915050565b6126dd8161315e565b82525050565b60006126ee82612e53565b6126f88185612e87565b93506127088185602086016131cf565b612711816133de565b840191505092915050565b600061272782612e5e565b6127318185612e98565b93506127418185602086016131cf565b61274a816133de565b840191505092915050565b600061276082612e5e565b61276a8185612ea9565b935061277a8185602086016131cf565b80840191505092915050565b6000612793603283612e98565b915061279e826133fc565b604082019050919050565b60006127b6601c83612e98565b91506127c18261344b565b602082019050919050565b60006127d9602483612e98565b91506127e482613474565b604082019050919050565b60006127fc601983612e98565b9150612807826134c3565b602082019050919050565b600061281f602c83612e98565b915061282a826134ec565b604082019050919050565b6000612842603883612e98565b915061284d8261353b565b604082019050919050565b6000612865602a83612e98565b91506128708261358a565b604082019050919050565b6000612888602983612e98565b9150612893826135d9565b604082019050919050565b60006128ab602e83612e98565b91506128b682613628565b604082019050919050565b60006128ce602083612e98565b91506128d982613677565b602082019050919050565b60006128f1603183612e98565b91506128fc826136a0565b604082019050919050565b6000612914602c83612e98565b915061291f826136ef565b604082019050919050565b6000612937602983612e98565b91506129428261373e565b604082019050919050565b600061295a602f83612e98565b91506129658261378d565b604082019050919050565b600061297d602183612e98565b9150612988826137dc565b604082019050919050565b60006129a0600983612e98565b91506129ab8261382b565b602082019050919050565b60006129c3603183612e98565b91506129ce82613854565b604082019050919050565b60006129e6600c83612e98565b91506129f1826138a3565b602082019050919050565b602082016000820151612a126000850182612a18565b50505050565b612a21816131b6565b82525050565b612a30816131b6565b82525050565b6000612a428285612755565b9150612a4e8284612755565b91508190509392505050565b6000602082019050612a6f6000830184612667565b92915050565b6000602082019050612a8a6000830184612658565b92915050565b6000608082019050612aa56000830187612667565b612ab26020830186612667565b612abf6040830185612a27565b8181036060830152612ad181846126e3565b905095945050505050565b60006020820190508181036000830152612af68184612676565b905092915050565b6000602082019050612b1360008301846126d4565b92915050565b60006020820190508181036000830152612b33818461271c565b905092915050565b60006020820190508181036000830152612b5481612786565b9050919050565b60006020820190508181036000830152612b74816127a9565b9050919050565b60006020820190508181036000830152612b94816127cc565b9050919050565b60006020820190508181036000830152612bb4816127ef565b9050919050565b60006020820190508181036000830152612bd481612812565b9050919050565b60006020820190508181036000830152612bf481612835565b9050919050565b60006020820190508181036000830152612c1481612858565b9050919050565b60006020820190508181036000830152612c348161287b565b9050919050565b60006020820190508181036000830152612c548161289e565b9050919050565b60006020820190508181036000830152612c74816128c1565b9050919050565b60006020820190508181036000830152612c94816128e4565b9050919050565b60006020820190508181036000830152612cb481612907565b9050919050565b60006020820190508181036000830152612cd48161292a565b9050919050565b60006020820190508181036000830152612cf48161294d565b9050919050565b60006020820190508181036000830152612d1481612970565b9050919050565b60006020820190508181036000830152612d3481612993565b9050919050565b60006020820190508181036000830152612d54816129b6565b9050919050565b60006020820190508181036000830152612d74816129d9565b9050919050565b6000602082019050612d9060008301846129fc565b92915050565b6000602082019050612dab6000830184612a27565b92915050565b6000612dbb612dcc565b9050612dc78282613234565b919050565b6000604051905090565b600067ffffffffffffffff821115612df157612df061339b565b5b612dfa826133de565b9050602081019050919050565b600067ffffffffffffffff821115612e2257612e2161339b565b5b612e2b826133de565b9050602081019050919050565b6000819050602082019050919050565b600081519050919050565b600081519050919050565b600081519050919050565b6000602082019050919050565b600082825260208201905092915050565b600082825260208201905092915050565b600082825260208201905092915050565b600081905092915050565b6000612ebf826131b6565b9150612eca836131b6565b9250827fffffffffffffffffffffffffffffffffffffffffffffffffffffffffffffffff03821115612eff57612efe6132df565b5b828201905092915050565b6000612f15826131b6565b9150612f20836131b6565b925082612f3057612f2f61330e565b5b828204905092915050565b6000808291508390505b6001851115612f8557808604811115612f6157612f606132df565b5b6001851615612f705780820291505b8081029050612f7e856133ef565b9450612f45565b94509492505050565b6000612f99826131b6565b9150612fa4836131b6565b9250612fd17fffffffffffffffffffffffffffffffffffffffffffffffffffffffffffffffff8484612fd9565b905092915050565b600082612fe957600190506130a5565b81612ff757600090506130a5565b816001811461300d576002811461301757613046565b60019150506130a5565b60ff841115613029576130286132df565b5b8360020a9150848211156130405761303f6132df565b5b506130a5565b5060208310610133831016604e8410600b841016171561307b5782820a905083811115613076576130756132df565b5b6130a5565b6130888484846001612f3b565b9250905081840481111561309f5761309e6132df565b5b81810290505b9392505050565b60006130b7826131b6565b91506130c2836131b6565b9250817fffffffffffffffffffffffffffffffffffffffffffffffffffffffffffffffff04831182151516156130fb576130fa6132df565b5b828202905092915050565b6000613111826131b6565b915061311c836131b6565b92508282101561312f5761312e6132df565b5b828203905092915050565b600061314582613196565b9050919050565b600061315782613196565b9050919050565b60008115159050919050565b60007fffffffff0000000000000000000000000000000000000000000000000000000082169050919050565b600073ffffffffffffffffffffffffffffffffffffffff82169050919050565b6000819050919050565b82818337600083830152505050565b60005b838110156131ed5780820151818401526020810190506131d2565b838111156131fc576000848401525b50505050565b6000600282049050600182168061321a57607f821691505b6020821081141561322e5761322d61333d565b5b50919050565b61323d826133de565b810181811067ffffffffffffffff8211171561325c5761325b61339b565b5b80604052505050565b6000613270826131b6565b91507fffffffffffffffffffffffffffffffffffffffffffffffffffffffffffffffff8214156132a3576132a26132df565b5b600182019050919050565b60006132b9826131b6565b91506132c4836131b6565b9250826132d4576132d361330e565b5b828206905092915050565b7f4e487b7100000000000000000000000000000000000000000000000000000000600052601160045260246000fd5b7f4e487b7100000000000000000000000000000000000000000000000000000000600052601260045260246000fd5b7f4e487b7100000000000000000000000000000000000000000000000000000000600052602260045260246000fd5b7f4e487b7100000000000000000000000000000000000000000000000000000000600052603260045260246000fd5b7f4e487b7100000000000000000000000000000000000000000000000000000000600052604160045260246000fd5b600080fd5b600080fd5b600080fd5b600080fd5b6000601f19601f8301169050919050565b60008160011c9050919050565b7f4552433732313a207472616e7366657220746f206e6f6e20455243373231526560008201527f63656976657220696d706c656d656e7465720000000000000000000000000000602082015250565b7f4552433732313a20746f6b656e20616c7265616479206d696e74656400000000600082015250565b7f4552433732313a207472616e7366657220746f20746865207a65726f2061646460008201527f7265737300000000000000000000000000000000000000000000000000000000602082015250565b7f4552433732313a20617070726f766520746f2063616c6c657200000000000000600082015250565b7f4552433732313a206f70657261746f7220717565727920666f72206e6f6e657860008201527f697374656e7420746f6b656e0000000000000000000000000000000000000000602082015250565b7f4552433732313a20617070726f76652063616c6c6572206973206e6f74206f7760008201527f6e6572206e6f7220617070726f76656420666f7220616c6c0000000000000000602082015250565b7f4552433732313a2062616c616e636520717565727920666f7220746865207a6560008201527f726f206164647265737300000000000000000000000000000000000000000000602082015250565b7f4552433732313a206f776e657220717565727920666f72206e6f6e657869737460008201527f656e7420746f6b656e0000000000000000000000000000000000000000000000602082015250565b7f45524337323155524953746f726167653a2055524920736574206f66206e6f6e60008201527f6578697374656e7420746f6b656e000000000000000000000000000000000000602082015250565b7f4552433732313a206d696e7420746f20746865207a65726f2061646472657373600082015250565b7f45524337323155524953746f726167653a2055524920717565727920666f722060008201527f6e6f6e6578697374656e7420746f6b656e000000000000000000000000000000602082015250565b7f4552433732313a20617070726f76656420717565727920666f72206e6f6e657860008201527f697374656e7420746f6b656e0000000000000000000000000000000000000000602082015250565b7f4552433732313a207472616e73666572206f6620746f6b656e2074686174206960008201527f73206e6f74206f776e0000000000000000000000000000000000000000000000602082015250565b7f4552433732314d657461646174613a2055524920717565727920666f72206e6f60008201527f6e6578697374656e7420746f6b656e0000000000000000000000000000000000602082015250565b7f4552433732313a20617070726f76616c20746f2063757272656e74206f776e6560008201527f7200000000000000000000000000000000000000000000000000000000000000602082015250565b7f4e6f74206f776e65720000000000000000000000000000000000000000000000600082015250565b7f4552433732313a207472616e736665722063616c6c6572206973206e6f74206f60008201527f776e6572206e6f7220617070726f766564000000000000000000000000000000602082015250565b7f4d4f4e45592055204b4f4e570000000000000000000000000000000000000000600082015250565b6138d58161313a565b81146138e057600080fd5b50565b6138ec8161315e565b81146138f757600080fd5b50565b6139038161316a565b811461390e57600080fd5b50565b61391a816131b6565b811461392557600080fd5b5056fea2646970667358221220e8a315ddbeba6c645720b3b23c42255cc4f84dc40a19d1064554fc8c7fac50d764736f6c63430008050033",
  "linkReferences": {},
  "deployedLinkReferences": {}
}