{
  "_format": "hh-sol-artifact-1",
  "contractName": "WileCard",
  "sourceName": "contracts/Card.sol",
  "abi": [
    {
      "inputs": [],
      "stateMutability": "nonpayable",
      "type": "constructor"
    },
    {
      "anonymous": false,
      "inputs": [
        {
          "indexed": true,
          "internalType": "address",
          "name": "owner",
          "type": "address"
        },
        {
          "indexed": true,
          "internalType": "address",
          "name": "approved",
          "type": "address"
        },
        {
          "indexed": true,
          "internalType": "uint256",
          "name": "tokenId",
          "type": "uint256"
        }
      ],
      "name": "Approval",
      "type": "event"
    },
    {
      "anonymous": false,
      "inputs": [
        {
          "indexed": true,
          "internalType": "address",
          "name": "owner",
          "type": "address"
        },
        {
          "indexed": true,
          "internalType": "address",
          "name": "operator",
          "type": "address"
        },
        {
          "indexed": false,
          "internalType": "bool",
          "name": "approved",
          "type": "bool"
        }
      ],
      "name": "ApprovalForAll",
      "type": "event"
    },
    {
      "anonymous": false,
      "inputs": [
        {
          "indexed": true,
          "internalType": "address",
          "name": "from",
          "type": "address"
        },
        {
          "indexed": true,
          "internalType": "address",
          "name": "to",
          "type": "address"
        },
        {
          "indexed": true,
          "internalType": "uint256",
          "name": "tokenId",
          "type": "uint256"
        }
      ],
      "name": "Transfer",
      "type": "event"
    },
    {
      "inputs": [],
      "name": "Owner",
      "outputs": [
        {
          "internalType": "address payable",
          "name": "",
          "type": "address"
        }
      ],
      "stateMutability": "view",
      "type": "function"
    },
    {
      "inputs": [
        {
          "internalType": "uint256",
          "name": "tokenId",
          "type": "uint256"
        },
        {
          "internalType": "uint256",
          "name": "price",
          "type": "uint256"
        }
      ],
      "name": "addItemToMarket",
      "outputs": [],
      "stateMutability": "payable",
      "type": "function"
    },
    {
      "inputs": [
        {
          "internalType": "address",
          "name": "to",
          "type": "address"
        },
        {
          "internalType": "uint256",
          "name": "tokenId",
          "type": "uint256"
        }
      ],
      "name": "approve",
      "outputs": [],
      "stateMutability": "nonpayable",
      "type": "function"
    },
    {
      "inputs": [
        {
          "internalType": "address",
          "name": "owner",
          "type": "address"
        }
      ],
      "name": "balanceOf",
      "outputs": [
        {
          "internalType": "uint256",
          "name": "",
          "type": "uint256"
        }
      ],
      "stateMutability": "view",
      "type": "function"
    },
    {
      "inputs": [
        {
          "internalType": "uint256",
          "name": "_fee",
          "type": "uint256"
        }
      ],
      "name": "changeFee",
      "outputs": [
        {
          "internalType": "uint256",
          "name": "",
          "type": "uint256"
        }
      ],
      "stateMutability": "nonpayable",
      "type": "function"
    },
    {
      "inputs": [],
      "name": "deposit",
      "outputs": [
        {
          "internalType": "uint256",
          "name": "",
          "type": "uint256"
        }
      ],
      "stateMutability": "payable",
      "type": "function"
    },
    {
      "inputs": [],
      "name": "deposits",
      "outputs": [
        {
          "internalType": "uint256",
          "name": "",
          "type": "uint256"
        }
      ],
      "stateMutability": "view",
      "type": "function"
    },
    {
      "inputs": [
        {
          "internalType": "uint256",
          "name": "tokenId",
          "type": "uint256"
        }
      ],
      "name": "getApproved",
      "outputs": [
        {
          "internalType": "address",
          "name": "",
          "type": "address"
        }
      ],
      "stateMutability": "view",
      "type": "function"
    },
    {
      "inputs": [],
      "name": "getBalance",
      "outputs": [
        {
          "internalType": "uint256",
          "name": "",
          "type": "uint256"
        }
      ],
      "stateMutability": "view",
      "type": "function"
    },
    {
      "inputs": [
        {
          "internalType": "uint256",
          "name": "CardNFTMarketId",
          "type": "uint256"
        }
      ],
      "name": "getCardNFTMarketById",
      "outputs": [
        {
          "components": [
            {
              "internalType": "uint256",
              "name": "itemId",
              "type": "uint256"
            },
            {
              "internalType": "uint256",
              "name": "tokenId",
              "type": "uint256"
            },
            {
              "internalType": "string",
              "name": "tokenURI",
              "type": "string"
            },
            {
              "internalType": "address payable",
              "name": "seller",
              "type": "address"
            },
            {
              "internalType": "address payable",
              "name": "owner",
              "type": "address"
            },
            {
              "internalType": "uint256",
              "name": "price",
              "type": "uint256"
            }
          ],
          "internalType": "struct WileCard.CardNFTMarket",
          "name": "",
          "type": "tuple"
        }
      ],
      "stateMutability": "view",
      "type": "function"
    },
    {
      "inputs": [],
      "name": "getUnsoldItems",
      "outputs": [
        {
          "components": [
            {
              "internalType": "uint256",
              "name": "itemId",
              "type": "uint256"
            },
            {
              "internalType": "uint256",
              "name": "tokenId",
              "type": "uint256"
            },
            {
              "internalType": "string",
              "name": "tokenURI",
              "type": "string"
            },
            {
              "internalType": "address payable",
              "name": "seller",
              "type": "address"
            },
            {
              "internalType": "address payable",
              "name": "owner",
              "type": "address"
            },
            {
              "internalType": "uint256",
              "name": "price",
              "type": "uint256"
            }
          ],
          "internalType": "struct WileCard.CardNFTMarket[]",
          "name": "",
          "type": "tuple[]"
        }
      ],
      "stateMutability": "view",
      "type": "function"
    },
    {
      "inputs": [],
      "name": "getUserToken",
      "outputs": [
        {
          "internalType": "uint256[]",
          "name": "",
          "type": "uint256[]"
        }
      ],
      "stateMutability": "view",
      "type": "function"
    },
    {
      "inputs": [
        {
          "internalType": "address",
          "name": "sender",
          "type": "address"
        }
      ],
      "name": "getUserTokenWithAddress",
      "outputs": [
        {
          "internalType": "uint256[]",
          "name": "",
          "type": "uint256[]"
        }
      ],
      "stateMutability": "view",
      "type": "function"
    },
    {
      "inputs": [
        {
          "internalType": "address",
          "name": "owner",
          "type": "address"
        },
        {
          "internalType": "address",
          "name": "operator",
          "type": "address"
        }
      ],
      "name": "isApprovedForAll",
      "outputs": [
        {
          "internalType": "bool",
          "name": "",
          "type": "bool"
        }
      ],
      "stateMutability": "view",
      "type": "function"
    },
    {
      "inputs": [
        {
          "internalType": "string[]",
          "name": "tokenURI",
          "type": "string[]"
        }
      ],
      "name": "mintNFT",
      "outputs": [],
      "stateMutability": "nonpayable",
      "type": "function"
    },
    {
      "inputs": [],
      "name": "name",
      "outputs": [
        {
          "internalType": "string",
          "name": "",
          "type": "string"
        }
      ],
      "stateMutability": "view",
      "type": "function"
    },
    {
      "inputs": [
        {
          "internalType": "uint256",
          "name": "tokenId",
          "type": "uint256"
        }
      ],
      "name": "ownerOf",
      "outputs": [
        {
          "internalType": "address",
          "name": "",
          "type": "address"
        }
      ],
      "stateMutability": "view",
      "type": "function"
    },
    {
      "inputs": [
        {
          "internalType": "uint256[]",
          "name": "_myArray",
          "type": "uint256[]"
        }
      ],
      "name": "random",
      "outputs": [
        {
          "internalType": "uint256[]",
          "name": "",
          "type": "uint256[]"
        }
      ],
      "stateMutability": "view",
      "type": "function"
    },
    {
      "inputs": [],
      "name": "randomNFT",
      "outputs": [
        {
          "internalType": "uint256",
          "name": "",
          "type": "uint256"
        }
      ],
      "stateMutability": "nonpayable",
      "type": "function"
    },
    {
      "inputs": [
        {
          "internalType": "address",
          "name": "from",
          "type": "address"
        },
        {
          "internalType": "address",
          "name": "to",
          "type": "address"
        },
        {
          "internalType": "uint256",
          "name": "tokenId",
          "type": "uint256"
        }
      ],
      "name": "safeTransferFrom",
      "outputs": [],
      "stateMutability": "nonpayable",
      "type": "function"
    },
    {
      "inputs": [
        {
          "internalType": "address",
          "name": "from",
          "type": "address"
        },
        {
          "internalType": "address",
          "name": "to",
          "type": "address"
        },
        {
          "internalType": "uint256",
          "name": "tokenId",
          "type": "uint256"
        },
        {
          "internalType": "bytes",
          "name": "_data",
          "type": "bytes"
        }
      ],
      "name": "safeTransferFrom",
      "outputs": [],
      "stateMutability": "nonpayable",
      "type": "function"
    },
    {
      "inputs": [
        {
          "internalType": "uint256",
          "name": "itemId",
          "type": "uint256"
        }
      ],
      "name": "sellItemAndTransferOwnership",
      "outputs": [],
      "stateMutability": "payable",
      "type": "function"
    },
    {
      "inputs": [
        {
          "internalType": "address",
          "name": "operator",
          "type": "address"
        },
        {
          "internalType": "bool",
          "name": "approved",
          "type": "bool"
        }
      ],
      "name": "setApprovalForAll",
      "outputs": [],
      "stateMutability": "nonpayable",
      "type": "function"
    },
    {
      "inputs": [
        {
          "internalType": "bytes4",
          "name": "interfaceId",
          "type": "bytes4"
        }
      ],
      "name": "supportsInterface",
      "outputs": [
        {
          "internalType": "bool",
          "name": "",
          "type": "bool"
        }
      ],
      "stateMutability": "view",
      "type": "function"
    },
    {
      "inputs": [],
      "name": "symbol",
      "outputs": [
        {
          "internalType": "string",
          "name": "",
          "type": "string"
        }
      ],
      "stateMutability": "view",
      "type": "function"
    },
    {
      "inputs": [
        {
          "internalType": "uint256",
          "name": "tokenId",
          "type": "uint256"
        }
      ],
      "name": "tokenURI",
      "outputs": [
        {
          "internalType": "string",
          "name": "",
          "type": "string"
        }
      ],
      "stateMutability": "view",
      "type": "function"
    },
    {
      "inputs": [],
      "name": "totalSupply",
      "outputs": [
        {
          "components": [
            {
              "internalType": "uint256",
              "name": "_value",
              "type": "uint256"
            }
          ],
          "internalType": "struct Counters.Counter",
          "name": "",
          "type": "tuple"
        }
      ],
      "stateMutability": "view",
      "type": "function"
    },
    {
      "inputs": [
        {
          "internalType": "address",
          "name": "from",
          "type": "address"
        },
        {
          "internalType": "address",
          "name": "to",
          "type": "address"
        },
        {
          "internalType": "uint256",
          "name": "tokenId",
          "type": "uint256"
        }
      ],
      "name": "transferFrom",
      "outputs": [],
      "stateMutability": "nonpayable",
      "type": "function"
    },
    {
      "inputs": [
        {
          "internalType": "address",
          "name": "from",
          "type": "address"
        },
        {
          "internalType": "address",
          "name": "to",
          "type": "address"
        },
        {
          "internalType": "uint256",
          "name": "tokenId",
          "type": "uint256"
        }
      ],
      "name": "transferNFT",
      "outputs": [],
      "stateMutability": "nonpayable",
      "type": "function"
    },
    {
      "inputs": [
        {
          "internalType": "address",
          "name": "",
          "type": "address"
        },
        {
          "internalType": "uint256",
          "name": "",
          "type": "uint256"
        }
      ],
      "name": "userOwnedTokens",
      "outputs": [
        {
          "internalType": "uint256",
          "name": "",
          "type": "uint256"
        }
      ],
      "stateMutability": "view",
      "type": "function"
    },
    {
      "inputs": [
        {
          "internalType": "uint256",
          "name": "_amount",
          "type": "uint256"
        }
      ],
      "name": "withdraw",
      "outputs": [],
      "stateMutability": "nonpayable",
      "type": "function"
    }
  ],
  "bytecode": "0x6080604052600060085560006009556008600b553480156200002057600080fd5b506040518060400160405280600881526020017f57696c65436172640000000000000000000000000000000000000000000000008152506040518060400160405280600481526020017f57696c65000000000000000000000000000000000000000000000000000000008152508160009080519060200190620000a592919062000108565b508060019080519060200190620000be92919062000108565b50505033600a60006101000a81548173ffffffffffffffffffffffffffffffffffffffff021916908373ffffffffffffffffffffffffffffffffffffffff1602179055506200021d565b8280546200011690620001b8565b90600052602060002090601f0160209004810192826200013a576000855562000186565b82601f106200015557805160ff191683800117855562000186565b8280016001018555821562000186579182015b828111156200018557825182559160200191906001019062000168565b5b50905062000195919062000199565b5090565b5b80821115620001b45760008160009055506001016200019a565b5090565b60006002820490506001821680620001d157607f821691505b60208210811415620001e857620001e7620001ee565b5b50919050565b7f4e487b7100000000000000000000000000000000000000000000000000000000600052602260045260246000fd5b61568d806200022d6000396000f3fe6080604052600436106101d85760003560e01c806370a0823111610102578063b74ab86511610095578063e546b9a311610064578063e546b9a3146106ee578063e985e9c514610719578063e9e883f914610756578063ece6b21f14610772576101d8565b8063b74ab8651461062d578063b88d4fde1461066a578063c87b56dd14610693578063d0e30db0146106d0576101d8565b80639e483815116100d15780639e4838151461055f578063a09e33671461059c578063a22cb465146105d9578063b4a99a4e14610602576101d8565b806370a08231146104b057806391066da8146104ed57806395d89b41146105095780639b8bc12714610534576101d8565b806323b872dd1161017a5780636352211e116101495780636352211e146103e457806369e9cae1146104215780636a1db1bf1461044a578063704affad14610487576101d8565b806323b872dd1461033e5780632e1a7d4d14610367578063323a5e0b1461039057806342842e0e146103bb576101d8565b8063095ea7b3116101b6578063095ea7b31461028257806312065fe0146102ab57806314b924e2146102d657806318160ddd14610313576101d8565b806301ffc9a7146101dd57806306fdde031461021a578063081812fc14610245575b600080fd5b3480156101e957600080fd5b5061020460048036038101906101ff9190613df4565b61079d565b604051610211919061462a565b60405180910390f35b34801561022657600080fd5b5061022f61087f565b60405161023c9190614645565b60405180910390f35b34801561025157600080fd5b5061026c60048036038101906102679190613e4e565b610911565b6040516102799190614564565b60405180910390f35b34801561028e57600080fd5b506102a960048036038101906102a49190613d22565b610996565b005b3480156102b757600080fd5b506102c0610aae565b6040516102cd9190614944565b60405180910390f35b3480156102e257600080fd5b506102fd60048036038101906102f89190613d22565b610ab6565b60405161030a9190614944565b60405180910390f35b34801561031f57600080fd5b50610328610ae7565b6040516103359190614929565b60405180910390f35b34801561034a57600080fd5b5061036560048036038101906103609190613c0c565b610b0b565b005b34801561037357600080fd5b5061038e60048036038101906103899190613e4e565b610b6b565b005b34801561039c57600080fd5b506103a5610c67565b6040516103b29190614944565b60405180910390f35b3480156103c757600080fd5b506103e260048036038101906103dd9190613c0c565b610c6d565b005b3480156103f057600080fd5b5061040b60048036038101906104069190613e4e565b610c8d565b6040516104189190614564565b60405180910390f35b34801561042d57600080fd5b5061044860048036038101906104439190613c0c565b610d3f565b005b34801561045657600080fd5b50610471600480360381019061046c9190613e4e565b611038565b60405161047e9190614944565b60405180910390f35b34801561049357600080fd5b506104ae60048036038101906104a99190613d62565b61104b565b005b3480156104bc57600080fd5b506104d760048036038101906104d29190613b9f565b6111ef565b6040516104e49190614944565b60405180910390f35b61050760048036038101906105029190613e7b565b6112a7565b005b34801561051557600080fd5b5061051e61173c565b60405161052b9190614645565b60405180910390f35b34801561054057600080fd5b506105496117ce565b60405161055691906145e6565b60405180910390f35b34801561056b57600080fd5b5061058660048036038101906105819190613b9f565b611ab9565b6040516105939190614608565b60405180910390f35b3480156105a857600080fd5b506105c360048036038101906105be9190613dab565b611b50565b6040516105d09190614608565b60405180910390f35b3480156105e557600080fd5b5061060060048036038101906105fb9190613ce2565b611ca8565b005b34801561060e57600080fd5b50610617611cbe565b604051610624919061457f565b60405180910390f35b34801561063957600080fd5b50610654600480360381019061064f9190613e4e565b611ce4565b6040516106619190614907565b60405180910390f35b34801561067657600080fd5b50610691600480360381019061068c9190613c5f565b611e73565b005b34801561069f57600080fd5b506106ba60048036038101906106b59190613e4e565b611ed5565b6040516106c79190614645565b60405180910390f35b6106d8612027565b6040516106e59190614944565b60405180910390f35b3480156106fa57600080fd5b5061070361208b565b6040516107109190614608565b60405180910390f35b34801561072557600080fd5b50610740600480360381019061073b9190613bcc565b612120565b60405161074d919061462a565b60405180910390f35b610770600480360381019061076b9190613e4e565b6121b4565b005b34801561077e57600080fd5b506107876125c1565b6040516107949190614944565b60405180910390f35b60007f80ac58cd000000000000000000000000000000000000000000000000000000007bffffffffffffffffffffffffffffffffffffffffffffffffffffffff1916827bffffffffffffffffffffffffffffffffffffffffffffffffffffffff1916148061086857507f5b5e139f000000000000000000000000000000000000000000000000000000007bffffffffffffffffffffffffffffffffffffffffffffffffffffffff1916827bffffffffffffffffffffffffffffffffffffffffffffffffffffffff1916145b80610878575061087782612a9d565b5b9050919050565b60606000805461088e90614e52565b80601f01602080910402602001604051908101604052809291908181526020018280546108ba90614e52565b80156109075780601f106108dc57610100808354040283529160200191610907565b820191906000526020600020905b8154815290600101906020018083116108ea57829003601f168201915b5050505050905090565b600061091c82612b07565b61095b576040517f08c379a000000000000000000000000000000000000000000000000000000000815260040161095290614827565b60405180910390fd5b6004600083815260200190815260200160002060009054906101000a900473ffffffffffffffffffffffffffffffffffffffff169050919050565b60006109a182610c8d565b90508073ffffffffffffffffffffffffffffffffffffffff168373ffffffffffffffffffffffffffffffffffffffff161415610a12576040517f08c379a0000000000000000000000000000000000000000000000000000000008152600401610a0990614887565b60405180910390fd5b8073ffffffffffffffffffffffffffffffffffffffff16610a31612b73565b73ffffffffffffffffffffffffffffffffffffffff161480610a605750610a5f81610a5a612b73565b612120565b5b610a9f576040517f08c379a0000000000000000000000000000000000000000000000000000000008152600401610a9690614767565b60405180910390fd5b610aa98383612b7b565b505050565b600047905090565b600c6020528160005260406000208181548110610ad257600080fd5b90600052602060002001600091509150505481565b610aef6137e4565b6007604051806020016040529081600082015481525050905090565b610b1c610b16612b73565b82612c34565b610b5b576040517f08c379a0000000000000000000000000000000000000000000000000000000008152600401610b52906148c7565b60405180910390fd5b610b66838383612d12565b505050565b600a60009054906101000a900473ffffffffffffffffffffffffffffffffffffffff1673ffffffffffffffffffffffffffffffffffffffff163373ffffffffffffffffffffffffffffffffffffffff1614610bfb576040517f08c379a0000000000000000000000000000000000000000000000000000000008152600401610bf2906148a7565b60405180910390fd5b600a60009054906101000a900473ffffffffffffffffffffffffffffffffffffffff1673ffffffffffffffffffffffffffffffffffffffff166108fc829081150290604051600060405180830381858888f19350505050158015610c63573d6000803e3d6000fd5b5050565b60085481565b610c8883838360405180602001604052806000815250611e73565b505050565b6000806002600084815260200190815260200160002060009054906101000a900473ffffffffffffffffffffffffffffffffffffffff169050600073ffffffffffffffffffffffffffffffffffffffff168173ffffffffffffffffffffffffffffffffffffffff161415610d36576040517f08c379a0000000000000000000000000000000000000000000000000000000008152600401610d2d906147a7565b60405180910390fd5b80915050919050565b610d50610d4a612b73565b82612c34565b610d8f576040517f08c379a0000000000000000000000000000000000000000000000000000000008152600401610d8690614707565b60405180910390fd5b600c60008373ffffffffffffffffffffffffffffffffffffffff1673ffffffffffffffffffffffffffffffffffffffff16815260200190815260200160002081908060018154018082558091505060019003906000526020600020016000909190919091505560005b600c60008573ffffffffffffffffffffffffffffffffffffffff1673ffffffffffffffffffffffffffffffffffffffff168152602001908152602001600020805490508110156110275781600c60008673ffffffffffffffffffffffffffffffffffffffff1673ffffffffffffffffffffffffffffffffffffffff1681526020019081526020016000208281548110610e9457610e93614ff5565b5b9060005260206000200154141561101457600c60008573ffffffffffffffffffffffffffffffffffffffff1673ffffffffffffffffffffffffffffffffffffffff1681526020019081526020016000206001600c60008773ffffffffffffffffffffffffffffffffffffffff1673ffffffffffffffffffffffffffffffffffffffff16815260200190815260200160002080549050610f339190614d56565b81548110610f4457610f43614ff5565b5b9060005260206000200154600c60008673ffffffffffffffffffffffffffffffffffffffff1673ffffffffffffffffffffffffffffffffffffffff1681526020019081526020016000208281548110610fa057610f9f614ff5565b5b9060005260206000200181905550600c60008573ffffffffffffffffffffffffffffffffffffffff1673ffffffffffffffffffffffffffffffffffffffff168152602001908152602001600020805480610ffd57610ffc614fc6565b5b600190038181906000526020600020016000905590555b808061101f90614eb5565b915050610df8565b50611033838383612d12565b505050565b600081600b81905550600b549050919050565b600a60009054906101000a900473ffffffffffffffffffffffffffffffffffffffff1673ffffffffffffffffffffffffffffffffffffffff163373ffffffffffffffffffffffffffffffffffffffff16146110db576040517f08c379a00000000000000000000000000000000000000000000000000000000081526004016110d2906148a7565b60405180910390fd5b60005b81518110156111eb576110f16007612f6e565b60006110fd6007612f84565b905061112b600a60009054906101000a900473ffffffffffffffffffffffffffffffffffffffff1682612f92565b61114f8184848151811061114257611141614ff5565b5b6020026020010151612fb0565b600c6000600a60009054906101000a900473ffffffffffffffffffffffffffffffffffffffff1673ffffffffffffffffffffffffffffffffffffffff1673ffffffffffffffffffffffffffffffffffffffff1681526020019081526020016000208190806001815401808255809150506001900390600052602060002001600090919091909150555080806111e390614eb5565b9150506110de565b5050565b60008073ffffffffffffffffffffffffffffffffffffffff168273ffffffffffffffffffffffffffffffffffffffff161415611260576040517f08c379a000000000000000000000000000000000000000000000000000000000815260040161125790614787565b60405180910390fd5b600360008373ffffffffffffffffffffffffffffffffffffffff1673ffffffffffffffffffffffffffffffffffffffff168152602001908152602001600020549050919050565b600081116112ea576040517f08c379a00000000000000000000000000000000000000000000000000000000081526004016112e1906146a7565b60405180910390fd5b6112fb6112f5612b73565b83612c34565b61133a576040517f08c379a000000000000000000000000000000000000000000000000000000000815260040161133190614707565b60405180910390fd5b611344600e612f6e565b6000611350600e612f84565b90506040518060c0016040528082815260200184815260200161137285611ed5565b81526020013373ffffffffffffffffffffffffffffffffffffffff168152602001600073ffffffffffffffffffffffffffffffffffffffff16815260200183815250600d6000838152602001908152602001600020600082015181600001556020820151816001015560408201518160020190805190602001906113f79291906137f7565b5060608201518160030160006101000a81548173ffffffffffffffffffffffffffffffffffffffff021916908373ffffffffffffffffffffffffffffffffffffffff16021790555060808201518160040160006101000a81548173ffffffffffffffffffffffffffffffffffffffff021916908373ffffffffffffffffffffffffffffffffffffffff16021790555060a08201518160050155905050600c60003073ffffffffffffffffffffffffffffffffffffffff1673ffffffffffffffffffffffffffffffffffffffff16815260200190815260200160002083908060018154018082558091505060019003906000526020600020016000909190919091505560005b600c60003373ffffffffffffffffffffffffffffffffffffffff1673ffffffffffffffffffffffffffffffffffffffff1681526020019081526020016000208054905081101561172b5783600c60003373ffffffffffffffffffffffffffffffffffffffff1673ffffffffffffffffffffffffffffffffffffffff168152602001908152602001600020828154811061159857611597614ff5565b5b9060005260206000200154141561171857600c60003373ffffffffffffffffffffffffffffffffffffffff1673ffffffffffffffffffffffffffffffffffffffff1681526020019081526020016000206001600c60003373ffffffffffffffffffffffffffffffffffffffff1673ffffffffffffffffffffffffffffffffffffffff168152602001908152602001600020805490506116379190614d56565b8154811061164857611647614ff5565b5b9060005260206000200154600c60003373ffffffffffffffffffffffffffffffffffffffff1673ffffffffffffffffffffffffffffffffffffffff16815260200190815260200160002082815481106116a4576116a3614ff5565b5b9060005260206000200181905550600c60003373ffffffffffffffffffffffffffffffffffffffff1673ffffffffffffffffffffffffffffffffffffffff16815260200190815260200160002080548061170157611700614fc6565b5b600190038181906000526020600020016000905590555b808061172390614eb5565b9150506114fc565b50611737333085612d12565b505050565b60606001805461174b90614e52565b80601f016020809104026020016040519081016040528092919081815260200182805461177790614e52565b80156117c45780601f10611799576101008083540402835291602001916117c4565b820191906000526020600020905b8154815290600101906020018083116117a757829003601f168201915b5050505050905090565b606060006117dc600e612f84565b905060006117ea600f612f84565b6117f4600e612f84565b6117fe9190614d56565b90506000808267ffffffffffffffff81111561181d5761181c615024565b5b60405190808252806020026020018201604052801561185657816020015b61184361387d565b81526020019060019003908161183b5790505b50905060005b84811015611aae57600073ffffffffffffffffffffffffffffffffffffffff16600d600060018461188d9190614b04565b815260200190815260200160002060040160009054906101000a900473ffffffffffffffffffffffffffffffffffffffff1673ffffffffffffffffffffffffffffffffffffffff161415611a9b5760006001826118ea9190614b04565b90506000600d60008381526020019081526020016000206040518060c0016040529081600082015481526020016001820154815260200160028201805461193090614e52565b80601f016020809104026020016040519081016040528092919081815260200182805461195c90614e52565b80156119a95780601f1061197e576101008083540402835291602001916119a9565b820191906000526020600020905b81548152906001019060200180831161198c57829003601f168201915b505050505081526020016003820160009054906101000a900473ffffffffffffffffffffffffffffffffffffffff1673ffffffffffffffffffffffffffffffffffffffff1673ffffffffffffffffffffffffffffffffffffffff1681526020016004820160009054906101000a900473ffffffffffffffffffffffffffffffffffffffff1673ffffffffffffffffffffffffffffffffffffffff1673ffffffffffffffffffffffffffffffffffffffff168152602001600582015481525050905080848681518110611a7e57611a7d614ff5565b5b6020026020010181905250600185611a969190614b04565b945050505b8080611aa690614eb5565b91505061185c565b508094505050505090565b6060600c60008373ffffffffffffffffffffffffffffffffffffffff1673ffffffffffffffffffffffffffffffffffffffff168152602001908152602001600020805480602002602001604051908101604052809291908181526020018280548015611b4457602002820191906000526020600020905b815481526020019060010190808311611b30575b50505050509050919050565b606060008251905060008351905060005b81811015611c9757600060018442888581518110611b8257611b81614ff5565b5b6020026020010151604051602001611b9b929190614538565b6040516020818303038152906040528051906020012060001c611bbe9190614f08565b611bc89190614b04565b9050600086600183611bda9190614d56565b81518110611beb57611bea614ff5565b5b6020026020010151905086600186611c039190614d56565b81518110611c1457611c13614ff5565b5b602002602001015187600184611c2a9190614d56565b81518110611c3b57611c3a614ff5565b5b6020026020010181815250508087600187611c569190614d56565b81518110611c6757611c66614ff5565b5b602002602001018181525050600185611c809190614d56565b945050508080611c8f90614eb5565b915050611b61565b506060849050809350505050919050565b611cba611cb3612b73565b8383613024565b5050565b600a60009054906101000a900473ffffffffffffffffffffffffffffffffffffffff1681565b611cec61387d565b6000600d60008481526020019081526020016000206040518060c00160405290816000820154815260200160018201548152602001600282018054611d3090614e52565b80601f0160208091040260200160405190810160405280929190818152602001828054611d5c90614e52565b8015611da95780601f10611d7e57610100808354040283529160200191611da9565b820191906000526020600020905b815481529060010190602001808311611d8c57829003601f168201915b505050505081526020016003820160009054906101000a900473ffffffffffffffffffffffffffffffffffffffff1673ffffffffffffffffffffffffffffffffffffffff1673ffffffffffffffffffffffffffffffffffffffff1681526020016004820160009054906101000a900473ffffffffffffffffffffffffffffffffffffffff1673ffffffffffffffffffffffffffffffffffffffff1673ffffffffffffffffffffffffffffffffffffffff168152602001600582015481525050905080915050919050565b611e84611e7e612b73565b83612c34565b611ec3576040517f08c379a0000000000000000000000000000000000000000000000000000000008152600401611eba906148c7565b60405180910390fd5b611ecf84848484613191565b50505050565b6060611ee082612b07565b611f1f576040517f08c379a0000000000000000000000000000000000000000000000000000000008152600401611f1690614807565b60405180910390fd5b6000600660008481526020019081526020016000208054611f3f90614e52565b80601f0160208091040260200160405190810160405280929190818152602001828054611f6b90614e52565b8015611fb85780601f10611f8d57610100808354040283529160200191611fb8565b820191906000526020600020905b815481529060010190602001808311611f9b57829003601f168201915b505050505090506000611fc96131ed565b9050600081511415611fdf578192505050612022565b600082511115612014578082604051602001611ffc929190614514565b60405160208183030381529060405292505050612022565b61201d84613204565b925050505b919050565b6000600b54600a6120389190614bde565b60016120449190614cfc565b3414612085576040517f08c379a000000000000000000000000000000000000000000000000000000000815260040161207c906148e7565b60405180910390fd5b34905090565b6060600c60003373ffffffffffffffffffffffffffffffffffffffff1673ffffffffffffffffffffffffffffffffffffffff16815260200190815260200160002080548060200260200160405190810160405280929190818152602001828054801561211657602002820191906000526020600020905b815481526020019060010190808311612102575b5050505050905090565b6000600560008473ffffffffffffffffffffffffffffffffffffffff1673ffffffffffffffffffffffffffffffffffffffff16815260200190815260200160002060008373ffffffffffffffffffffffffffffffffffffffff1673ffffffffffffffffffffffffffffffffffffffff16815260200190815260200160002060009054906101000a900460ff16905092915050565b6000600d60008381526020019081526020016000206005015490506000600d60008481526020019081526020016000206001015490506402540be400826121fb9190614cfc565b341461223c576040517f08c379a000000000000000000000000000000000000000000000000000000000815260040161223390614747565b60405180910390fd5b600d600084815260200190815260200160002060030160009054906101000a900473ffffffffffffffffffffffffffffffffffffffff1673ffffffffffffffffffffffffffffffffffffffff166108fc349081150290604051600060405180830381858888f193505050501580156122b8573d6000803e3d6000fd5b5033600d600085815260200190815260200160002060040160006101000a81548173ffffffffffffffffffffffffffffffffffffffff021916908373ffffffffffffffffffffffffffffffffffffffff160217905550612318600f612f6e565b600c60003373ffffffffffffffffffffffffffffffffffffffff1673ffffffffffffffffffffffffffffffffffffffff16815260200190815260200160002081908060018154018082558091505060019003906000526020600020016000909190919091505560005b600c60003073ffffffffffffffffffffffffffffffffffffffff1673ffffffffffffffffffffffffffffffffffffffff168152602001908152602001600020805490508110156125b05781600c60003073ffffffffffffffffffffffffffffffffffffffff1673ffffffffffffffffffffffffffffffffffffffff168152602001908152602001600020828154811061241d5761241c614ff5565b5b9060005260206000200154141561259d57600c60003073ffffffffffffffffffffffffffffffffffffffff1673ffffffffffffffffffffffffffffffffffffffff1681526020019081526020016000206001600c60003073ffffffffffffffffffffffffffffffffffffffff1673ffffffffffffffffffffffffffffffffffffffff168152602001908152602001600020805490506124bc9190614d56565b815481106124cd576124cc614ff5565b5b9060005260206000200154600c60003073ffffffffffffffffffffffffffffffffffffffff1673ffffffffffffffffffffffffffffffffffffffff168152602001908152602001600020828154811061252957612528614ff5565b5b9060005260206000200181905550600c60003073ffffffffffffffffffffffffffffffffffffffff1673ffffffffffffffffffffffffffffffffffffffff16815260200190815260200160002080548061258657612585614fc6565b5b600190038181906000526020600020016000905590555b80806125a890614eb5565b915050612381565b506125bc303383612d12565b505050565b60008061267c600c6000600a60009054906101000a900473ffffffffffffffffffffffffffffffffffffffff1673ffffffffffffffffffffffffffffffffffffffff1673ffffffffffffffffffffffffffffffffffffffff16815260200190815260200160002080548060200260200160405190810160405280929190818152602001828054801561267257602002820191906000526020600020905b81548152602001906001019080831161265e575b5050505050611b50565b60008151811061268f5761268e614ff5565b5b602002602001015190506126c5600a60009054906101000a900473ffffffffffffffffffffffffffffffffffffffff1682612c34565b612704576040517f08c379a00000000000000000000000000000000000000000000000000000000081526004016126fb90614707565b60405180910390fd5b600c60003373ffffffffffffffffffffffffffffffffffffffff1673ffffffffffffffffffffffffffffffffffffffff16815260200190815260200160002081908060018154018082558091505060019003906000526020600020016000909190919091505560005b600c6000600a60009054906101000a900473ffffffffffffffffffffffffffffffffffffffff1673ffffffffffffffffffffffffffffffffffffffff1673ffffffffffffffffffffffffffffffffffffffff16815260200190815260200160002080549050811015612a685781600c6000600a60009054906101000a900473ffffffffffffffffffffffffffffffffffffffff1673ffffffffffffffffffffffffffffffffffffffff1673ffffffffffffffffffffffffffffffffffffffff168152602001908152602001600020828154811061284d5761284c614ff5565b5b90600052602060002001541415612a5557600c6000600a60009054906101000a900473ffffffffffffffffffffffffffffffffffffffff1673ffffffffffffffffffffffffffffffffffffffff1673ffffffffffffffffffffffffffffffffffffffff1681526020019081526020016000206001600c6000600a60009054906101000a900473ffffffffffffffffffffffffffffffffffffffff1673ffffffffffffffffffffffffffffffffffffffff1673ffffffffffffffffffffffffffffffffffffffff168152602001908152602001600020805490506129309190614d56565b8154811061294157612940614ff5565b5b9060005260206000200154600c6000600a60009054906101000a900473ffffffffffffffffffffffffffffffffffffffff1673ffffffffffffffffffffffffffffffffffffffff1673ffffffffffffffffffffffffffffffffffffffff16815260200190815260200160002082815481106129bf576129be614ff5565b5b9060005260206000200181905550600c6000600a60009054906101000a900473ffffffffffffffffffffffffffffffffffffffff1673ffffffffffffffffffffffffffffffffffffffff1673ffffffffffffffffffffffffffffffffffffffff168152602001908152602001600020805480612a3e57612a3d614fc6565b5b600190038181906000526020600020016000905590555b8080612a6090614eb5565b91505061276d565b50612a96600a60009054906101000a900473ffffffffffffffffffffffffffffffffffffffff163383612d12565b8091505090565b60007f01ffc9a7000000000000000000000000000000000000000000000000000000007bffffffffffffffffffffffffffffffffffffffffffffffffffffffff1916827bffffffffffffffffffffffffffffffffffffffffffffffffffffffff1916149050919050565b60008073ffffffffffffffffffffffffffffffffffffffff166002600084815260200190815260200160002060009054906101000a900473ffffffffffffffffffffffffffffffffffffffff1673ffffffffffffffffffffffffffffffffffffffff1614159050919050565b600033905090565b816004600083815260200190815260200160002060006101000a81548173ffffffffffffffffffffffffffffffffffffffff021916908373ffffffffffffffffffffffffffffffffffffffff160217905550808273ffffffffffffffffffffffffffffffffffffffff16612bee83610c8d565b73ffffffffffffffffffffffffffffffffffffffff167f8c5be1e5ebec7d5bd14f71427d1e84f3dd0314c0f7b2291e5b200ac8c7c3b92560405160405180910390a45050565b6000612c3f82612b07565b612c7e576040517f08c379a0000000000000000000000000000000000000000000000000000000008152600401612c7590614727565b60405180910390fd5b6000612c8983610c8d565b90508073ffffffffffffffffffffffffffffffffffffffff168473ffffffffffffffffffffffffffffffffffffffff161480612cf857508373ffffffffffffffffffffffffffffffffffffffff16612ce084610911565b73ffffffffffffffffffffffffffffffffffffffff16145b80612d095750612d088185612120565b5b91505092915050565b8273ffffffffffffffffffffffffffffffffffffffff16612d3282610c8d565b73ffffffffffffffffffffffffffffffffffffffff1614612d88576040517f08c379a0000000000000000000000000000000000000000000000000000000008152600401612d7f90614847565b60405180910390fd5b600073ffffffffffffffffffffffffffffffffffffffff168273ffffffffffffffffffffffffffffffffffffffff161415612df8576040517f08c379a0000000000000000000000000000000000000000000000000000000008152600401612def906146c7565b60405180910390fd5b612e038383836132ab565b612e0e600082612b7b565b6001600360008573ffffffffffffffffffffffffffffffffffffffff1673ffffffffffffffffffffffffffffffffffffffff1681526020019081526020016000206000828254612e5e9190614d56565b925050819055506001600360008473ffffffffffffffffffffffffffffffffffffffff1673ffffffffffffffffffffffffffffffffffffffff1681526020019081526020016000206000828254612eb59190614b04565b92505081905550816002600083815260200190815260200160002060006101000a81548173ffffffffffffffffffffffffffffffffffffffff021916908373ffffffffffffffffffffffffffffffffffffffff160217905550808273ffffffffffffffffffffffffffffffffffffffff168473ffffffffffffffffffffffffffffffffffffffff167fddf252ad1be2c89b69c2b068fc378daa952ba7f163c4a11628f55a4df523b3ef60405160405180910390a4505050565b6001816000016000828254019250508190555050565b600081600001549050919050565b612fac8282604051806020016040528060008152506132b0565b5050565b612fb982612b07565b612ff8576040517f08c379a0000000000000000000000000000000000000000000000000000000008152600401612fef906147c7565b60405180910390fd5b8060066000848152602001908152602001600020908051906020019061301f9291906137f7565b505050565b8173ffffffffffffffffffffffffffffffffffffffff168373ffffffffffffffffffffffffffffffffffffffff161415613093576040517f08c379a000000000000000000000000000000000000000000000000000000000815260040161308a906146e7565b60405180910390fd5b80600560008573ffffffffffffffffffffffffffffffffffffffff1673ffffffffffffffffffffffffffffffffffffffff16815260200190815260200160002060008473ffffffffffffffffffffffffffffffffffffffff1673ffffffffffffffffffffffffffffffffffffffff16815260200190815260200160002060006101000a81548160ff0219169083151502179055508173ffffffffffffffffffffffffffffffffffffffff168373ffffffffffffffffffffffffffffffffffffffff167f17307eab39ab6107e8899845ad3d59bd9653f200f220920489ca2b5937696c3183604051613184919061462a565b60405180910390a3505050565b61319c848484612d12565b6131a88484848461330b565b6131e7576040517f08c379a00000000000000000000000000000000000000000000000000000000081526004016131de90614667565b60405180910390fd5b50505050565b606060405180602001604052806000815250905090565b606061320f82612b07565b61324e576040517f08c379a000000000000000000000000000000000000000000000000000000000815260040161324590614867565b60405180910390fd5b60006132586131ed565b9050600081511161327857604051806020016040528060008152506132a3565b80613282846134a2565b604051602001613293929190614514565b6040516020818303038152906040525b915050919050565b505050565b6132ba8383613603565b6132c7600084848461330b565b613306576040517f08c379a00000000000000000000000000000000000000000000000000000000081526004016132fd90614667565b60405180910390fd5b505050565b600061332c8473ffffffffffffffffffffffffffffffffffffffff166137d1565b15613495578373ffffffffffffffffffffffffffffffffffffffff1663150b7a02613355612b73565b8786866040518563ffffffff1660e01b8152600401613377949392919061459a565b602060405180830381600087803b15801561339157600080fd5b505af19250505080156133c257506040513d601f19601f820116820180604052508101906133bf9190613e21565b60015b613445573d80600081146133f2576040519150601f19603f3d011682016040523d82523d6000602084013e6133f7565b606091505b5060008151141561343d576040517f08c379a000000000000000000000000000000000000000000000000000000000815260040161343490614667565b60405180910390fd5b805181602001fd5b63150b7a0260e01b7bffffffffffffffffffffffffffffffffffffffffffffffffffffffff1916817bffffffffffffffffffffffffffffffffffffffffffffffffffffffff19161491505061349a565b600190505b949350505050565b606060008214156134ea576040518060400160405280600181526020017f300000000000000000000000000000000000000000000000000000000000000081525090506135fe565b600082905060005b6000821461351c57808061350590614eb5565b915050600a826135159190614b5a565b91506134f2565b60008167ffffffffffffffff81111561353857613537615024565b5b6040519080825280601f01601f19166020018201604052801561356a5781602001600182028036833780820191505090505b5090505b600085146135f7576001826135839190614d56565b9150600a856135929190614f08565b603061359e9190614b04565b60f81b8183815181106135b4576135b3614ff5565b5b60200101907effffffffffffffffffffffffffffffffffffffffffffffffffffffffffffff1916908160001a905350600a856135f09190614b5a565b945061356e565b8093505050505b919050565b600073ffffffffffffffffffffffffffffffffffffffff168273ffffffffffffffffffffffffffffffffffffffff161415613673576040517f08c379a000000000000000000000000000000000000000000000000000000000815260040161366a906147e7565b60405180910390fd5b61367c81612b07565b156136bc576040517f08c379a00000000000000000000000000000000000000000000000000000000081526004016136b390614687565b60405180910390fd5b6136c8600083836132ab565b6001600360008473ffffffffffffffffffffffffffffffffffffffff1673ffffffffffffffffffffffffffffffffffffffff16815260200190815260200160002060008282546137189190614b04565b92505081905550816002600083815260200190815260200160002060006101000a81548173ffffffffffffffffffffffffffffffffffffffff021916908373ffffffffffffffffffffffffffffffffffffffff160217905550808273ffffffffffffffffffffffffffffffffffffffff16600073ffffffffffffffffffffffffffffffffffffffff167fddf252ad1be2c89b69c2b068fc378daa952ba7f163c4a11628f55a4df523b3ef60405160405180910390a45050565b600080823b905060008111915050919050565b6040518060200160405280600081525090565b82805461380390614e52565b90600052602060002090601f016020900481019282613825576000855561386c565b82601f1061383e57805160ff191683800117855561386c565b8280016001018555821561386c579182015b8281111561386b578251825591602001919060010190613850565b5b50905061387991906138df565b5090565b6040518060c00160405280600081526020016000815260200160608152602001600073ffffffffffffffffffffffffffffffffffffffff168152602001600073ffffffffffffffffffffffffffffffffffffffff168152602001600081525090565b5b808211156138f85760008160009055506001016138e0565b5090565b600061390f61390a84614984565b61495f565b9050808382526020820190508285602086028201111561393257613931615058565b5b60005b8581101561398057813567ffffffffffffffff81111561395857613957615053565b5b8086016139658982613b5c565b85526020850194506020840193505050600181019050613935565b5050509392505050565b600061399d613998846149b0565b61495f565b905080838252602082019050828560208602820111156139c0576139bf615058565b5b60005b858110156139f057816139d68882613b8a565b8452602084019350602083019250506001810190506139c3565b5050509392505050565b6000613a0d613a08846149dc565b61495f565b905082815260208101848484011115613a2957613a2861505d565b5b613a34848285614e10565b509392505050565b6000613a4f613a4a84614a0d565b61495f565b905082815260208101848484011115613a6b57613a6a61505d565b5b613a76848285614e10565b509392505050565b600081359050613a8d816155fb565b92915050565b600082601f830112613aa857613aa7615053565b5b8135613ab88482602086016138fc565b91505092915050565b600082601f830112613ad657613ad5615053565b5b8135613ae684826020860161398a565b91505092915050565b600081359050613afe81615612565b92915050565b600081359050613b1381615629565b92915050565b600081519050613b2881615629565b92915050565b600082601f830112613b4357613b42615053565b5b8135613b538482602086016139fa565b91505092915050565b600082601f830112613b7157613b70615053565b5b8135613b81848260208601613a3c565b91505092915050565b600081359050613b9981615640565b92915050565b600060208284031215613bb557613bb4615067565b5b6000613bc384828501613a7e565b91505092915050565b60008060408385031215613be357613be2615067565b5b6000613bf185828601613a7e565b9250506020613c0285828601613a7e565b9150509250929050565b600080600060608486031215613c2557613c24615067565b5b6000613c3386828701613a7e565b9350506020613c4486828701613a7e565b9250506040613c5586828701613b8a565b9150509250925092565b60008060008060808587031215613c7957613c78615067565b5b6000613c8787828801613a7e565b9450506020613c9887828801613a7e565b9350506040613ca987828801613b8a565b925050606085013567ffffffffffffffff811115613cca57613cc9615062565b5b613cd687828801613b2e565b91505092959194509250565b60008060408385031215613cf957613cf8615067565b5b6000613d0785828601613a7e565b9250506020613d1885828601613aef565b9150509250929050565b60008060408385031215613d3957613d38615067565b5b6000613d4785828601613a7e565b9250506020613d5885828601613b8a565b9150509250929050565b600060208284031215613d7857613d77615067565b5b600082013567ffffffffffffffff811115613d9657613d95615062565b5b613da284828501613a93565b91505092915050565b600060208284031215613dc157613dc0615067565b5b600082013567ffffffffffffffff811115613ddf57613dde615062565b5b613deb84828501613ac1565b91505092915050565b600060208284031215613e0a57613e09615067565b5b6000613e1884828501613b04565b91505092915050565b600060208284031215613e3757613e36615067565b5b6000613e4584828501613b19565b91505092915050565b600060208284031215613e6457613e63615067565b5b6000613e7284828501613b8a565b91505092915050565b60008060408385031215613e9257613e91615067565b5b6000613ea085828601613b8a565b9250506020613eb185828601613b8a565b9150509250929050565b6000613ec783836143b1565b905092915050565b6000613edb83836144df565b60208301905092915050565b613ef081614d9c565b82525050565b613eff81614d9c565b82525050565b613f0e81614d8a565b82525050565b6000613f1f82614a5e565b613f298185614aa4565b935083602082028501613f3b85614a3e565b8060005b85811015613f775784840389528151613f588582613ebb565b9450613f6383614a8a565b925060208a01995050600181019050613f3f565b50829750879550505050505092915050565b6000613f9482614a69565b613f9e8185614ab5565b9350613fa983614a4e565b8060005b83811015613fda578151613fc18882613ecf565b9750613fcc83614a97565b925050600181019050613fad565b5085935050505092915050565b613ff081614dae565b82525050565b600061400182614a74565b61400b8185614ac6565b935061401b818560208601614e1f565b6140248161506c565b840191505092915050565b600061403a82614a7f565b6140448185614ad7565b9350614054818560208601614e1f565b61405d8161506c565b840191505092915050565b600061407382614a7f565b61407d8185614ae8565b935061408d818560208601614e1f565b6140968161506c565b840191505092915050565b60006140ac82614a7f565b6140b68185614af9565b93506140c6818560208601614e1f565b80840191505092915050565b60006140df603283614ae8565b91506140ea8261508a565b604082019050919050565b6000614102601c83614ae8565b915061410d826150d9565b602082019050919050565b6000614125602483614ae8565b915061413082615102565b604082019050919050565b6000614148602483614ae8565b915061415382615151565b604082019050919050565b600061416b601983614ae8565b9150614176826151a0565b602082019050919050565b600061418e601b83614ae8565b9150614199826151c9565b602082019050919050565b60006141b1602c83614ae8565b91506141bc826151f2565b604082019050919050565b60006141d4601e83614ae8565b91506141df82615241565b602082019050919050565b60006141f7603883614ae8565b91506142028261526a565b604082019050919050565b600061421a602a83614ae8565b9150614225826152b9565b604082019050919050565b600061423d602983614ae8565b915061424882615308565b604082019050919050565b6000614260602e83614ae8565b915061426b82615357565b604082019050919050565b6000614283602083614ae8565b915061428e826153a6565b602082019050919050565b60006142a6603183614ae8565b91506142b1826153cf565b604082019050919050565b60006142c9602c83614ae8565b91506142d48261541e565b604082019050919050565b60006142ec602983614ae8565b91506142f78261546d565b604082019050919050565b600061430f602f83614ae8565b915061431a826154bc565b604082019050919050565b6000614332602183614ae8565b915061433d8261550b565b604082019050919050565b6000614355600983614ae8565b91506143608261555a565b602082019050919050565b6000614378603183614ae8565b915061438382615583565b604082019050919050565b600061439b600c83614ae8565b91506143a6826155d2565b602082019050919050565b600060c0830160008301516143c960008601826144df565b5060208301516143dc60208601826144df565b50604083015184820360408601526143f4828261402f565b91505060608301516144096060860182613ee7565b50608083015161441c6080860182613ee7565b5060a083015161442f60a08601826144df565b508091505092915050565b600060c08301600083015161445260008601826144df565b50602083015161446560208601826144df565b506040830151848203604086015261447d828261402f565b91505060608301516144926060860182613ee7565b5060808301516144a56080860182613ee7565b5060a08301516144b860a08601826144df565b508091505092915050565b6020820160008201516144d960008501826144df565b50505050565b6144e881614e06565b82525050565b6144f781614e06565b82525050565b61450e61450982614e06565b614efe565b82525050565b600061452082856140a1565b915061452c82846140a1565b91508190509392505050565b600061454482856144fd565b60208201915061455482846144fd565b6020820191508190509392505050565b60006020820190506145796000830184613f05565b92915050565b60006020820190506145946000830184613ef6565b92915050565b60006080820190506145af6000830187613f05565b6145bc6020830186613f05565b6145c960408301856144ee565b81810360608301526145db8184613ff6565b905095945050505050565b600060208201905081810360008301526146008184613f14565b905092915050565b600060208201905081810360008301526146228184613f89565b905092915050565b600060208201905061463f6000830184613fe7565b92915050565b6000602082019050818103600083015261465f8184614068565b905092915050565b60006020820190508181036000830152614680816140d2565b9050919050565b600060208201905081810360008301526146a0816140f5565b9050919050565b600060208201905081810360008301526146c081614118565b9050919050565b600060208201905081810360008301526146e08161413b565b9050919050565b600060208201905081810360008301526147008161415e565b9050919050565b6000602082019050818103600083015261472081614181565b9050919050565b60006020820190508181036000830152614740816141a4565b9050919050565b60006020820190508181036000830152614760816141c7565b9050919050565b60006020820190508181036000830152614780816141ea565b9050919050565b600060208201905081810360008301526147a08161420d565b9050919050565b600060208201905081810360008301526147c081614230565b9050919050565b600060208201905081810360008301526147e081614253565b9050919050565b6000602082019050818103600083015261480081614276565b9050919050565b6000602082019050818103600083015261482081614299565b9050919050565b60006020820190508181036000830152614840816142bc565b9050919050565b60006020820190508181036000830152614860816142df565b9050919050565b6000602082019050818103600083015261488081614302565b9050919050565b600060208201905081810360008301526148a081614325565b9050919050565b600060208201905081810360008301526148c081614348565b9050919050565b600060208201905081810360008301526148e08161436b565b9050919050565b600060208201905081810360008301526149008161438e565b9050919050565b60006020820190508181036000830152614921818461443a565b905092915050565b600060208201905061493e60008301846144c3565b92915050565b600060208201905061495960008301846144ee565b92915050565b600061496961497a565b90506149758282614e84565b919050565b6000604051905090565b600067ffffffffffffffff82111561499f5761499e615024565b5b602082029050602081019050919050565b600067ffffffffffffffff8211156149cb576149ca615024565b5b602082029050602081019050919050565b600067ffffffffffffffff8211156149f7576149f6615024565b5b614a008261506c565b9050602081019050919050565b600067ffffffffffffffff821115614a2857614a27615024565b5b614a318261506c565b9050602081019050919050565b6000819050602082019050919050565b6000819050602082019050919050565b600081519050919050565b600081519050919050565b600081519050919050565b600081519050919050565b6000602082019050919050565b6000602082019050919050565b600082825260208201905092915050565b600082825260208201905092915050565b600082825260208201905092915050565b600082825260208201905092915050565b600082825260208201905092915050565b600081905092915050565b6000614b0f82614e06565b9150614b1a83614e06565b9250827fffffffffffffffffffffffffffffffffffffffffffffffffffffffffffffffff03821115614b4f57614b4e614f39565b5b828201905092915050565b6000614b6582614e06565b9150614b7083614e06565b925082614b8057614b7f614f68565b5b828204905092915050565b6000808291508390505b6001851115614bd557808604811115614bb157614bb0614f39565b5b6001851615614bc05780820291505b8081029050614bce8561507d565b9450614b95565b94509492505050565b6000614be982614e06565b9150614bf483614e06565b9250614c217fffffffffffffffffffffffffffffffffffffffffffffffffffffffffffffffff8484614c29565b905092915050565b600082614c395760019050614cf5565b81614c475760009050614cf5565b8160018114614c5d5760028114614c6757614c96565b6001915050614cf5565b60ff841115614c7957614c78614f39565b5b8360020a915084821115614c9057614c8f614f39565b5b50614cf5565b5060208310610133831016604e8410600b8410161715614ccb5782820a905083811115614cc657614cc5614f39565b5b614cf5565b614cd88484846001614b8b565b92509050818404811115614cef57614cee614f39565b5b81810290505b9392505050565b6000614d0782614e06565b9150614d1283614e06565b9250817fffffffffffffffffffffffffffffffffffffffffffffffffffffffffffffffff0483118215151615614d4b57614d4a614f39565b5b828202905092915050565b6000614d6182614e06565b9150614d6c83614e06565b925082821015614d7f57614d7e614f39565b5b828203905092915050565b6000614d9582614de6565b9050919050565b6000614da782614de6565b9050919050565b60008115159050919050565b60007fffffffff0000000000000000000000000000000000000000000000000000000082169050919050565b600073ffffffffffffffffffffffffffffffffffffffff82169050919050565b6000819050919050565b82818337600083830152505050565b60005b83811015614e3d578082015181840152602081019050614e22565b83811115614e4c576000848401525b50505050565b60006002820490506001821680614e6a57607f821691505b60208210811415614e7e57614e7d614f97565b5b50919050565b614e8d8261506c565b810181811067ffffffffffffffff82111715614eac57614eab615024565b5b80604052505050565b6000614ec082614e06565b91507fffffffffffffffffffffffffffffffffffffffffffffffffffffffffffffffff821415614ef357614ef2614f39565b5b600182019050919050565b6000819050919050565b6000614f1382614e06565b9150614f1e83614e06565b925082614f2e57614f2d614f68565b5b828206905092915050565b7f4e487b7100000000000000000000000000000000000000000000000000000000600052601160045260246000fd5b7f4e487b7100000000000000000000000000000000000000000000000000000000600052601260045260246000fd5b7f4e487b7100000000000000000000000000000000000000000000000000000000600052602260045260246000fd5b7f4e487b7100000000000000000000000000000000000000000000000000000000600052603160045260246000fd5b7f4e487b7100000000000000000000000000000000000000000000000000000000600052603260045260246000fd5b7f4e487b7100000000000000000000000000000000000000000000000000000000600052604160045260246000fd5b600080fd5b600080fd5b600080fd5b600080fd5b600080fd5b6000601f19601f8301169050919050565b60008160011c9050919050565b7f4552433732313a207472616e7366657220746f206e6f6e20455243373231526560008201527f63656976657220696d706c656d656e7465720000000000000000000000000000602082015250565b7f4552433732313a20746f6b656e20616c7265616479206d696e74656400000000600082015250565b7f5072696365206d757374206265206174206c656173742031202a2a206465636960008201527f6d616c7300000000000000000000000000000000000000000000000000000000602082015250565b7f4552433732313a207472616e7366657220746f20746865207a65726f2061646460008201527f7265737300000000000000000000000000000000000000000000000000000000602082015250565b7f4552433732313a20617070726f766520746f2063616c6c657200000000000000600082015250565b7f596f757220617265206e6f74206f776e65722074686973204e46540000000000600082015250565b7f4552433732313a206f70657261746f7220717565727920666f72206e6f6e657860008201527f697374656e7420746f6b656e0000000000000000000000000000000000000000602082015250565b7f6d73672e76616c756520213d207072696365202a2a20646563696d616c730000600082015250565b7f4552433732313a20617070726f76652063616c6c6572206973206e6f74206f7760008201527f6e6572206e6f7220617070726f76656420666f7220616c6c0000000000000000602082015250565b7f4552433732313a2062616c616e636520717565727920666f7220746865207a6560008201527f726f206164647265737300000000000000000000000000000000000000000000602082015250565b7f4552433732313a206f776e657220717565727920666f72206e6f6e657869737460008201527f656e7420746f6b656e0000000000000000000000000000000000000000000000602082015250565b7f45524337323155524953746f726167653a2055524920736574206f66206e6f6e60008201527f6578697374656e7420746f6b656e000000000000000000000000000000000000602082015250565b7f4552433732313a206d696e7420746f20746865207a65726f2061646472657373600082015250565b7f45524337323155524953746f726167653a2055524920717565727920666f722060008201527f6e6f6e6578697374656e7420746f6b656e000000000000000000000000000000602082015250565b7f4552433732313a20617070726f76656420717565727920666f72206e6f6e657860008201527f697374656e7420746f6b656e0000000000000000000000000000000000000000602082015250565b7f4552433732313a207472616e73666572206f6620746f6b656e2074686174206960008201527f73206e6f74206f776e0000000000000000000000000000000000000000000000602082015250565b7f4552433732314d657461646174613a2055524920717565727920666f72206e6f60008201527f6e6578697374656e7420746f6b656e0000000000000000000000000000000000602082015250565b7f4552433732313a20617070726f76616c20746f2063757272656e74206f776e6560008201527f7200000000000000000000000000000000000000000000000000000000000000602082015250565b7f4e6f74206f776e65720000000000000000000000000000000000000000000000600082015250565b7f4552433732313a207472616e736665722063616c6c6572206973206e6f74206f60008201527f776e6572206e6f7220617070726f766564000000000000000000000000000000602082015250565b7f4d4f4e45592055204b4f4e570000000000000000000000000000000000000000600082015250565b61560481614d8a565b811461560f57600080fd5b50565b61561b81614dae565b811461562657600080fd5b50565b61563281614dba565b811461563d57600080fd5b50565b61564981614e06565b811461565457600080fd5b5056fea264697066735822122063b227fd266200ef833889fba1c150d53eae62997efad269d542f4d8a40867ac64736f6c63430008050033",
  "linkReferences": {},
  "deployedLinkReferences": {}
}